:100000000C9463000C948B000C948B000C948B006C
:100010000C948B000C948B000C948B000C948B0034
:100020000C948B000C948B000C948B000C948B0024
:100030000C948B000C948B000C948B000C948B0014
:100040000C9447060C948B000C94B7060C94910604
:100050000C948B000C948B000C948B000C948B00F4
:100060000C94E9060C948B0000000000240027008B
:100070002A0000000000250028002B0000000000DE
:1000800023002600290004040404040404040202DA
:100090000202020203030303030301020408102007
:1000A0004080010204081020010204081020000012
:1000B0000008000201000003040700000000000027
:1000C00000000408240B11241FBECFEFD8E0DEBFD0
:1000D000CDBF23E0A0E8B2E001C01D92A83DB20769
:1000E000E1F712E0A0E0B1E0E0E6FBE102C005903C
:1000F0000D92A038B107D9F710E0C2E6D0E004C0F5
:100100002197FE010E94AB0BC136D107C9F70E94AF
:100110003C080C94A30D0C94000086E480937C00B2
:1001200080917A00806480937A0080917A0086FDC5
:10013000FCCF80917800909179000895833081F010
:1001400028F4813099F08230A9F008958730A9F021
:100150008830C9F08430B1F4809180008F7D03C075
:10016000809180008F7780938000089584B58F7789
:1001700084BD089584B58F7DFBCF8091B0008F77CB
:100180008093B00008958091B0008F7DF9CFCF9318
:10019000DF93282F30E0F901E255FF4F8491F901F8
:1001A000E656FF4FD491F901EA57FF4FC491CC2393
:1001B000A1F081110E949E00EC2FF0E0EE0FFF1FD6
:1001C000E458FF4FA591B491EC91ED2381E090E0CC
:1001D00009F480E0DF91CF91089580E090E0FACFBC
:1001E0001F93CF93DF93282F30E0F901E255FF4FA3
:1001F0008491F901E656FF4FD491F901EA57FF4F78
:10020000C491CC23A9F0162F81110E949E00EC2FDF
:10021000F0E0EE0FFF1FEE58FF4FA591B4918FB79E
:10022000F894EC91111108C0D095DE23DC938FBFB8
:10023000DF91CF911F910895DE2BF8CFCF93DF93FD
:1002400090E0FC01E656FF4F24918A579F4FFC0136
:1002500084918823D1F090E0880F991FFC01E85920
:10026000FF4FA591B491FC01EE58FF4FC591D49179
:1002700061110EC09FB7F8948C91E22FE0958E2308
:100280008C932881E223E8839FBFDF91CF9108956B
:100290008FB7F894EC91E22BEC938FBFF6CF3FB77A
:1002A000F8948091230390912403A0912503B091A9
:1002B000260326B5A89B05C02F3F19F00196A11D66
:1002C000B11D3FBFBA2FA92F982F8827BC01CD01A0
:1002D000620F711D811D911D42E0660F771F881FFF
:1002E000991F4A95D1F708958F929F92AF92BF922E
:1002F000CF92DF92EF92FF924B015C010E944F017F
:100300006B017C010E944F016C197D098E099F09C8
:10031000683E734081059105A8F321E0821A910897
:10032000A108B10888EEC80E83E0D81EE11CF11CBC
:1003300081149104A104B10429F7FF90EF90DF909C
:10034000CF90BF90AF909F908F900895AF92BF9243
:10035000CF92DF92EF92FF920F931F93CF93DF9391
:100360006C017B018B01040F151FEB015E01AE18C0
:10037000BF08C017D10759F06991D601ED91FC91E2
:100380000190F081E02DC6010995892B79F7C5010F
:10039000DF91CF911F910F91FF90EF90DF90CF9061
:1003A000BF90AF900895FC01538D448D252F30E010
:1003B000842F90E0821B930B541710F0CF96089572
:1003C00001970895FC01918D828D981761F0A28D9F
:1003D000AE0FBF2FB11D5D968C91928D9F5F9F7365
:1003E000928F90E008958FEF9FEF0895FC01918D1B
:1003F000828D981731F0828DE80FF11D858D90E088
:1004000008958FEF9FEF0895FC01918D228D892F24
:1004100090E0805C9F4F821B91098F73992708950C
:100420008BE293E00E94040221E0892B09F420E092
:10043000822F089580E090E0892B29F00E9410021D
:1004400081110C9400000895FC01A48DA80FB92F10
:10045000B11DA35ABF4F2C91848D90E001968F73EC
:100460009927848FA689B7892C93A089B1898C910B
:10047000837080648C93938D848D981306C002885A
:10048000F389E02D80818F7D80830895EF92FF9224
:100490000F931F93CF93DF93EC0181E0888F9B8DA7
:1004A0008C8D98131AC0E889F989808185FF15C061
:1004B0009FB7F894EE89FF896083E889F989808184
:1004C0008370806480839FBF81E090E0DF91CF9153
:1004D0001F910F91FF90EF900895F62E0B8D10E075
:1004E0000F5F1F4F0F731127E02E8C8D8E110CC0E4
:1004F0000FB607FCFACFE889F989808185FFF5CF2F
:10050000CE010E942402F1CFEB8DEC0FFD2FF11DE7
:10051000E35AFF4FF0829FB7F8940B8FEA89FB896B
:1005200080818062CFCFCF93DF93EC01888D8823C9
:10053000B9F0AA89BB89E889F9898C9185FD03C046
:10054000808186FD0DC00FB607FCF7CF8C9185FF2B
:10055000F2CF808185FFEDCFCE010E942402E9CF4A
:10056000DF91CF9108952091CB02260F3327331FBF
:1005700021323105ECF42091EF02FC0190E080E0A3
:10058000243069F082E00895A091CB022191AC0162
:1005900045555D4FA40FB52FB11D2C9301968617BD
:1005A00098F38091CB02680F6093CB0280E00895AE
:1005B00081E0089508958FEF9FEF08958FEF9FEFEB
:1005C00008958091A40290E09195819591090895F4
:1005D000CF93DF93CB01EA01642F0E94B302CE01D7
:1005E000DF91CF910895CF93DF931F92CDB7DEB700
:1005F000698361E0CE0101960E94B30281E090E040
:100600000F90DF91CF91089590E080E00895EF92F0
:10061000FF920F931F93CF93DF937C0108E011E0CB
:10062000D0E0C0E08091270390912803C817D90734
:1006300094F4F80180810E5F1F4F97010C2E02C0C9
:10064000369527950A94E2F761E020FF60E00E946A
:10065000F0002196E7CFDF91CF911F910F91FF908E
:10066000EF900895CF93DF93EB010E94070360E0C2
:1006700081E10E94F000CE010E94070380912903CE
:1006800090912A0360E08230910519F0039721F4DC
:1006900061E083E00E94F00060E089E00E94F000E9
:1006A00088E00E94C700EC0161E089E00E94F00050
:1006B00061E081E10E94F000CE01DF91CF910895C9
:1006C0001F93CF93DF93EB01142F0E94070360E089
:1006D00081E10E94F00060E080E10E94F000612F63
:1006E0008FE00E94F000CE010E9407038091290351
:1006F00090912A0360E08230910519F0039721F46C
:1007000061E083E00E94F00060E089E00E94F00078
:1007100061E080E10E94F00061E089E00E94F00069
:1007200061E081E1DF91CF911F910C94F000FC0119
:1007300001900020E9F73197AF01481B590BBC012C
:100740008BE293E00C94A601CF93DF93D0E0C0E05E
:10075000009719F00E949703EC018CE291E00E944F
:1007600097038C0F9D1FDF91CF910895CF93DF9357
:10077000EC018EE291E00E94A4034C815D816881CE
:1007800079818BE293E00E94A6018CE291E00E94C5
:10079000970380911D03813079F028F0823049F071
:1007A000DF91CF9108958FE291E0DF91CF910C948A
:1007B000A4038DE391E0F9CF8091290390912A035E
:1007C000892B21F480E591E00E94A4038091290304
:1007D00090912A03019721F481E691E00E94A403FD
:1007E0008091290390912A03029721F481E791E0F7
:1007F0000E94A4038091290390912A03039781F614
:1008000085E891E0D2CF8AE991E00E94A40380912B
:100810001D03813059F018F0823029F008958FE2DD
:1008200091E00C94A4038DE391E0FBCF8091290328
:1008300090912A03892B21F480E591E00E94A40382
:100840008091290390912A03019721F48BE691E08E
:100850000E94A4038091290390912A03029721F416
:1008600086EA91E00E94A4038091290390912A03D3
:10087000039719F48EEA91E0D4CF0895FC018081AA
:100880009181009711F00C944D0C0895EF92FF9216
:100890000F931F93CF93DF93EC017B018A01888133
:1008A0009981009729F02A813B812417350788F424
:1008B000B8016F5F7F4F0E94D60C009791F099832B
:1008C00088831B830A832C813D81232B11F4FC0137
:1008D00010821D830C83B701888199810E949C0D31
:1008E0000CC088819981009711F00E944D0C1982EB
:1008F00018821D821C821B821A82CE01DF91CF9149
:100900001F910F91FF90EF900895FC0111821082CA
:100910001382128215821482FB0101900020E9F7F4
:100920003197AF01461B570B0C9446041F93CF938E
:10093000DF9385ED8093BC008091A7029091A8027F
:10094000A091A902B091AA020796A11DB11D23E0B2
:10095000B695A795979587952A95D1F72091BC00D4
:1009600024FD03C01092EF0252C04091A7025091A3
:10097000A8026091A9027091AA02452B462B472B31
:1009800069F30097A105B10541F02AE22A95F1F734
:1009900000C00197A109B109E1CF8091A602C1E091
:1009A000C093A502882399F1D091B8001091BA00A4
:1009B0008091BC008A7B8093BC0060E082E10E9451
:1009C000F00060E083E10E94F0001092EF02C0931B
:1009D000F1021092F00261E082E10E94F00061E019
:1009E00083E10E94F0008091B9008E7F8093B9006E
:1009F0008091B9008D7F8093B90088E48093B8001E
:100A000085E48093BC001093BA00D093B800DF91C6
:100A1000CF911F9108950F931F93CF93DF93CDB77D
:100A2000DEB7A7970FB6F894DEBF0FBECDBF8C011F
:100A300020912703309128031BA21AA21DA21CA2F9
:100A40001FA21EA2072E000C880B990B04C0660F74
:100A5000771F881F991F2A95D2F7012E000C220BB1
:100A6000330B600F711F821F931F20E18E010F5FF8
:100A70001F4FA8010E942C0BF80101900020E9F7FC
:100A80003197AF01401B510BB801CE0182960E94F5
:100A90004604789486EB91E00E9497038AA19BA17B
:100AA0000E94A40382EC91E00E94A40381E0809361
:100AB00015038CE00E94C700892BD9F38CE00E94BB
:100AC000C7000197D9F36CE271E080E090E00E94EA
:100AD0007401CE0182960E943E04A7960FB6F89448
:100AE000DEBF0FBECDBFDF91CF911F910F91089553
:100AF000AF92BF92CF92DF92EF92FF920F931F932C
:100B0000CF93DF93CC24C394D12C8091290390916F
:100B10002A03029714F4D12CC12CD0E0C0E0F12CB0
:100B2000E12CAA24A394B12C80912703909128034F
:100B30008C199D09950102C0220F331F8A95E2F797
:100B4000C217D30784F510E000E08091270390914D
:100B50002803950102C0220F331F8A95E2F702177E
:100B60001307FCF4A701BE01C8010E946003BE0187
:100B7000C8010E943203E816F90671F0BE01C801EF
:100B8000DF91CF911F910F91FF90EF90DF90CF9069
:100B9000BF90AF900C940B0531E0E3260F5F1F4F21
:100BA000D4CF2196C1CFDF91CF911F910F91FF90AC
:100BB000EF90DF90CF90BF90AF9008959F92AF924B
:100BC000BF92CF92DF92EF92FF920F931F93CF933A
:100BD000DF937C01962ECC24C394D12C80912903E1
:100BE00090912A03029714F4D12CC12CD0E0C0E0DC
:100BF000AA24A394B12C80912703909128038C19E7
:100C00009D09950102C0220F331F8A95E2F7C21792
:100C1000D3078CF510E000E0809127039091280322
:100C2000950102C0220F331F8A95E2F702171307BE
:100C300004F5A701BE01C8010E9460039920B1F02C
:100C4000BE01C8010E9432038E159F0579F0BE01D6
:100C5000C801DF91CF911F910F91FF90EF90DF902E
:100C6000CF90BF90AF909F900C940B050F5F1F4FDC
:100C7000D3CF2196C0CFDF91CF911F910F91FF90DD
:100C8000EF90DF90CF90BF90AF909F9008951F920C
:100C90000F920FB60F9211242F933F938F939F9330
:100CA000AF93BF9380911F0390912003A0912103E4
:100CB000B091220330911E0323E0230F2D3758F506
:100CC0000196A11DB11D20931E0380931F039093D5
:100CD0002003A0932103B0932203809123039091DA
:100CE0002403A0912503B09126030196A11DB11DF7
:100CF0008093230390932403A0932503B0932603AA
:100D0000BF91AF919F918F913F912F910F900FBE07
:100D10000F901F90189526E8230F0296A11DB11D74
:100D2000D2CF1F920F920FB60F9211242F933F93A1
:100D30004F935F936F937F938F939F93AF93BF93E3
:100D4000EF93FF938BE293E00E942402FF91EF91D7
:100D5000BF91AF919F918F917F916F915F914F91D3
:100D60003F912F910F900FBE0F901F9018951F92DB
:100D70000F920FB60F9211242F938F939F93EF939F
:100D8000FF93E0913B03F0913C038081E0914103AC
:100D9000F091420382FD1BC09081809144038F5FDC
:100DA0008F7320914503821741F0E0914403F0E0F6
:100DB000E55DFC4F958F80934403FF91EF919F91E8
:100DC0008F912F910F900FBE0F901F9018958081DB
:100DD000F4CF1F920F920FB60F9211242F933F93CF
:100DE0004F935F936F937F938F939F93AF93BF9333
:100DF000EF93FF938091B900887F803609F44AC051
:100E0000F0F5883209F4A5C018F5803109F499C0CD
:100E1000B8F4882309F4F5C0883009F492C0FF9132
:100E2000EF91BF91AF919F918F917F916F915F9162
:100E30004F913F912F910F900FBE0F901F901895DB
:100E4000883109F486C0803251F78093EE0214C0D5
:100E5000803409F49BC040F48033B9F38833F9F649
:100E60008093EE0285ECAEC0803509F483C08835EE
:100E700009F494C0883499F60E949604D0CF88393A
:100E800009F48AC038F5883729F050F4883611F013
:100E9000803729F683E08093EF021092ED0255C06F
:100EA000883809F479C0803919F0803809F0B7CF53
:100EB0008091ED02803208F06FC0E091ED0281E098
:100EC0008E0F8093ED028091BB00F0E0E353FD4F65
:100ED00080833BC0803B39F0D0F4803A09F477C07E
:100EE000883A09F09CCF84E08093EF021092CC0204
:100EF0001092CB02F0E0E0E009958091CB028111E5
:100F00000FC081E08093CB021092AB0209C0803CFD
:100F100009F4A8CF883C09F4A5CF883B09F07FCF1E
:100F2000E091CC0281E08E0F8093CC02F0E0E55599
:100F3000FD4F80818093BB009091CC028091CB02C9
:100F400029C0809114038093BB0085EC8093BC0082
:100F500066CF9091130380911203981758F5E09192
:100F6000130381E08E0F80931303F0E0EE50FD4FEA
:100F70008081E9CFE091130381E08E0F809313030A
:100F80008091BB00F0E0EE50FD4F80839091130301
:100F9000809112039817C8F285E8D8CFE091130327
:100FA00081E08E0F809313038091BB00F0E0EE5040
:100FB000FD4F80838091F10281115ECF81E08093AB
:100FC000F00284EA8093BC001092EF0228CF85ECF7
:100FD0008093BC001092EF028091ED02803230F4D9
:100FE000E091ED02F0E0E353FD4F10826091ED02DD
:100FF00070E08DEC92E0F0E0E0E009951092ED02F7
:101000000ECF1092EE0238CFEBE2F3E013821282A1
:1010100088EE93E0A0E0B0E084839583A683B78355
:101020008EE191E09183808385EC90E095878487C1
:1010300084EC90E09787868780EC90E0918B808BA2
:1010400081EC90E0938B828B82EC90E0958B848B8B
:1010500086EC90E0978B868B118E128E138E148EF9
:101060006CED71E088EC93E00E9485046EED71E018
:101070008EEC93E00C948504CF93DF9300D000D0E6
:1010800000D0CDB7DEB7789484B5826084BD84B5D6
:10109000816084BD85B5826085BD85B5816085BD73
:1010A00080916E00816080936E001092810080912B
:1010B00081008260809381008091810081608093B3
:1010C0008100809180008160809380008091B100D8
:1010D00084608093B1008091B00081608093B00003
:1010E00080917A00846080937A0080917A00826097
:1010F00080937A0080917A00816080937A00809159
:101100007A00806880937A001092C100E0913B03DE
:10111000F0913C0382E08083E0913703F091380343
:101120001082E0913903F0913A038FEC80831092A2
:101130004303E0913F03F091400386E08083E09118
:101140003D03F0913E03808180618083E0913D0307
:10115000F0913E03808188608083E0913D03F091AF
:101160003E03808180688083E0913D03F0913E03DF
:1011700080818F7D808308E011E0F80180810E5F1F
:101180001F4F61E00E941E01F1E00A311F07A9F71D
:1011900061E089E00E941E0161E081E10E941E0180
:1011A00061E080E10E941E0161E08FE00E941E016B
:1011B00060E08CE00E941E0160E088E00E941E0159
:1011C00061E080E10E94F00061E081E10E94F000B6
:1011D00061E089E00E94F00090E080E00E945E0BF8
:1011E00090E0843091050CF0E0C190932A03809345
:1011F000290380EE91E00E94A4038EE291E00E9418
:10120000A4030E948D008A3091050CF4D3C1883C60
:1012100091050CF4D1C182E080931D0380931C03DF
:101220000E940304CC24C394D12C38E0232E312C0B
:1012300049E0442E512C57E0652E712C90E0892E08
:1012400090E0992E0E948D008A3091050CF4B6C171
:10125000883C91050CF4B4C182E080931D03909109
:101260001C03981721F080931C030E9403048CE058
:101270000E94C70090931B0380931A0320910001E2
:101280003091010121303105C9F4892BB9F42FB710
:10129000F89480911F0390912003A0912103B091B5
:1012A00022032FBF8093160390931703A093180374
:1012B000B093190310920101109200018091000176
:1012C00090910101892B09F05EC180911A039091E0
:1012D0001B038130910509F040C090930101809378
:1012E00000012FB7F89480911F0390912003A091E3
:1012F0002103B09122032FBF409116035091170391
:101300006091180370911903841B950BA60BB70B02
:101310008C3D9540A105B105CCF480911D03813031
:10132000A9F48091290390912A03019684309105B4
:101330000CF048C190932A038093290360912903FC
:1013400090E080E00E94660B0E94030480910001FF
:1013500090910101892B09F016C180911A03909197
:101360001B03892B09F00FC12FB7F89480911F033D
:1013700090912003A0912103B09122032FBF4091AF
:101380001603509117036091180370911903841B81
:10139000950BA60BB70B8D3D9540A105B10508F443
:1013A000F2C01092150380911D03882309F4EBC04D
:1013B00083EE93E00197F1F708E011E0F8018081F6
:1013C0000E5F1F4F60E00E94F000F1E008311F0740
:1013D000A9F708E010E060E081E10E94F00061E020
:1013E00081E10E94F00001501109A9F78DEF91E011
:1013F0000E94A4038CE092E00E94A40380911D034C
:10140000813009F4E4C0823041F486E192E00E9428
:10141000A40370922803609227037894F8940E94A2
:10142000780580911503811112C06EE372E0CE0140
:1014300001960E948504CE0101960E94B603CE015A
:1014400001960E943E047894F8940E947805809159
:101450001503811115C0789468E472E0CE010196FD
:101460000E948504CE0101960E94B603CE0101962A
:101470000E943E04F89460E081E090E00E94DE0566
:1014800080911503811160C0789466E572E0CE0109
:1014900001960E948504CE0101960E94B603CE01FA
:1014A00001960E943E04F894AA24A394B12C809142
:1014B000290390912A03029714F4B12CA12C10E077
:1014C00000E080912703909128038A199B099601D7
:1014D00002C0220F331F8A95E2F702171307DCF4CC
:1014E000F12CE12C8091270390912803F60102C092
:1014F000EE0FFF1F8A95E2F7EE16FF060CF09EC076
:10150000B801C7010E943203019709F493C0B801E2
:10151000C7010E940B0580911503811115C063E678
:1015200072E0CE0101960E948504CE0101960E94D0
:10153000B603CE0101960E943E047894F89461E0CF
:1015400090E080E00E94DE0578948091150381117F
:1015500078C080E792E00E94A40382EC91E00E94B0
:10156000A4038CE00E94C700892BD9F38CE00E9471
:10157000C7000197D9F30E9403046CE271E080E098
:1015800090E00E94740164E670E080E090E00E94C8
:1015900074018114910409F455CE0E94100288232D
:1015A00009F450CE0E94000049CE10922A031092F6
:1015B00029031FCE80E030CE81E02ECE80E04DCEDC
:1015C00081E04BCE10922A0310922903B7CE80916E
:1015D000290390912A03892B41F58CE192E00E9426
:1015E00097035092280340922703809129039091FA
:1015F0002A03019721F483E292E00E9497038091ED
:10160000290390912A03029721F489E292E00E9433
:1016100097038091290390912A03039709F0FDCE47
:1016200083E392E00E949703F8CE30922803209241
:101630002703DBCFFFEFEF1AFF0A54CF0F5F1F4FD7
:1016400040CF0E9403049FCF8EEC93E00E943E04A3
:1016500088EC93E00C943E04BB27FA01A62F621796
:10166000710581059105330B30FB66F0AA27660FE3
:10167000771F881F991FAA1FA21710F0A21B63953E
:101680003850A9F7A05DAA3308F0A95DA19336F7F9
:10169000B111B1931082CA010C944E0BDC01FC0114
:1016A000672F71917723E1F7329704C07C916D9396
:1016B00070836291AE17BF07C8F30895F999FECF02
:1016C00092BD81BDF89A992780B50895262FF99982
:1016D000FECF1FBA92BD81BD20BD0FB6F894FA9A15
:1016E000F99A0FBE019608952F923F924F925F9202
:1016F0006F927F928F929F92AF92BF92CF92DF9222
:10170000EF92FF920F931F93CF93DF93CDB7DEB786
:10171000CA1BDB0B0FB6F894DEBF0FBECDBF09941A
:101720002A88398848885F846E847D848C849B8471
:10173000AA84B984C884DF80EE80FD800C811B817F
:10174000AA81B981CE0FD11D0FB6F894DEBF0FBEAE
:10175000CDBFED010895EE0FFF1F0590F491E02D30
:1017600009940F931F93CF93DF938230910510F468
:1017700082E090E0E091D603F091D70330E020E0E2
:10178000B0E0A0E0309799F42115310509F44AC082
:10179000281B390B24303105D8F58A819B816115CE
:1017A000710589F1FB0193838283FE0111C04081A1
:1017B00051810281138148175907E0F048175907F2
:1017C00099F4109761F012960C93129713961C934C
:1017D0003296CF01DF91CF911F910F910895009321
:1017E000D6031093D703F4CF2115310551F04217DA
:1017F000530738F0A901DB019A01BD01DF01F801AF
:10180000C1CFEF01F9CF9093D7038093D603CDCF0B
:10181000FE01E20FF31F8193919322503109398326
:101820002883D7CF2091D4033091D503232B41F4C3
:1018300020910401309105013093D5032093D40306
:1018400020910201309103012115310541F42DB79A
:101850003EB74091060150910701241B350BE091E2
:10186000D403F091D503E217F307A0F42E1B3F0B2E
:101870002817390778F0AC014E5F5F4F2417350702
:1018800048F04E0F5F1F5093D5034093D4038193CC
:1018900091939FCFF0E0E0E09CCFCF93DF93009750
:1018A000E9F0FC01329713821282A091D603B09125
:1018B000D703ED0130E020E01097A1F420813181C1
:1018C000820F931F2091D4033091D5032817390735
:1018D00009F061C0F093D503E093D403DF91CF9179
:1018E0000895EA01CE17DF07E8F54A815B819E0182
:1018F00041155105B1F7E901FB83EA8349915991FB
:10190000C40FD51FEC17FD0761F480819181029609
:10191000840F951FE90199838883828193819B833A
:101920008A83F0E0E0E012968D919C9113970097E6
:10193000B9F52D913C911197CD010296820F931F1D
:101940002091D4033091D5032817390739F6309701
:1019500051F51092D7031092D603B093D503A093FC
:10196000D403BCCFD383C28340815181840F951FA0
:10197000C817D90761F44E5F5F4F88819981480F7E
:10198000591F518340838A819B81938382832115D0
:10199000310509F0B0CFF093D703E093D6039ECF83
:1019A000FD01DC01C0CF13821282D7CFB0E0A0E0EE
:1019B000ECEDFCE00C94760B8C01009751F4CB011C
:1019C0000E94B10B8C01C801CDB7DEB7E0E10C94E9
:1019D000920BFC01E60FF71F9C0122503109E21720
:1019E000F30708F49DC0D901CD91DC911197C6177A
:1019F000D70798F0C530D10530F3CE01049786178C
:101A0000970708F3C61BD70B2297C193D1936D9309
:101A10007C93CF010E944D0CD6CF5B01AC1ABD0A5E
:101A20004C018C0E9D1EA091D603B091D703512C72
:101A3000412CF12CE12C109731F58091D403909139
:101A4000D5038815990509F05CC04616570608F0BD
:101A500058C08091020190910301009741F48DB725
:101A60009EB74091060150910701841B950BE81722
:101A7000F90708F055C0F093D503E093D403F901BA
:101A800071836083A0CF8D919C91119712966C9079
:101A9000129713967C901397A815B90559F56C0108
:101AA00042E0C40ED11CCA14DB0420F1AC014A1977
:101AB0005B09DA011296159780F062827382518376
:101AC0004083D9016D937C93E114F10471F0D70147
:101AD0001396FC93EE93129776CF22968C0F9D1F50
:101AE000F90191838083F301EFCFF093D703E09363
:101AF000D60369CF4816590608F42C017D01D3019D
:101B00009ACFCB010E94B10B7C01009749F0AE0146
:101B1000B8010E94930DC8010E944D0C870153CF5C
:101B200010E000E050CFFB01DC0102C001900D92FB
:101B300041505040D8F70895FB01DC0101900D920F
:101B40000020E1F7089510E0C2E6D0E004C0FE01F5
:101B50000E94AB0B2196C336D107C9F7F894FFCF8B
:101B600001000000D80380000A0002000B000600FC
:101B700005000400070003000E00000000004602FC
:101B8000A601D30193020402E201F6010D0A0052FC
:101B9000414D2053656C2E3A204F46460052414D30
:101BA0002053656C2E3A20343131362031366B00AB
:101BB00052414D2053656C2E3A203235364B7831E8
:101BC0000052414D2053656C2E3A2036344B78310B
:101BD0000052414D2053656C2E3A2033324B783100
:101BE000204C6F770052414D2053656C2E3A2033C4
:101BF000324B78312048696768004452414D2D547A
:101C000045535445520033324B7831204C00333227
:101C10004B78312048002A204572726F6E206F6E1B
:101C2000200028507265737320737461727420747D
:101C30006F20636F6E74696E756529005C002F00FC
:101C40004452414D54455354455220342E32204283
:101C50005920524554524F4649584552003E205350
:101C60007461727420546573742E2E0054657374FD
:101C7000206E6F2E31002831366B29002832353620
:101C80006B29002836346B29002833326B204C6FC7
:101C90007729002833326B2048696768290054652A
:101CA0007374206E6F2E320046756C6C205772690B
:101CB00074652E2E2E0046756C6C20526561642E64
:101CC0002E2E0046696E697368696E672E2E2E008F
:101CD0002A205445535420504153534544202A0050
:00000001FF
