:100000000C942F120C9457120C9457120C945712F4
:100010000C9457120C9457120C9457120C945712BC
:100020000C9457120C9457120C9457120C945712AC
:100030000C9457120C9457120C9457120C9457129C
:100040000C9493200C9457120C9457120C94571242
:100050000C9457120C9457120C9457120C9457127C
:100060000C94DD200C94571200000000240027009F
:100070002A0000000000250028002B0000000000DE
:1000800023002600290004040404040404040202DA
:100090000202020203030303030301020408102007
:1000A0004080010204081020010204081020000012
:1000B0000008000201000003040700000000000027
:1000C0000000E90003020405040506101100FD0A02
:1000D000FD0BFF019C034904D820060090A70021D6
:1000E00008B118A6384402220834F6A6884C012329
:1000F0000E8632A6895A86256A1996A8052414B751
:10010000F2A50B07258AA43049D7248CA4CA2066FF
:10011000002511A712A609952829B5C669D4524A07
:10012000C4042612A712A611A32CCAA250D5A4A4B7
:100130001655222D270631F8A618280CC3F6A54A15
:10014000A224EA2DCA02290DC3F6A5C8A22CEA25CD
:100150004A22002A0D7772A62B55DAB6A4A9960179
:100160002B0C7732A68B6BC390C535002C0952B887
:10017000A5189244012D071792A638042E072218BD
:10018000A618022F0CA712A64EE3B49C96D31830E3
:100190000DA712A6DA2AA9AF49964D00310DA71274
:1001A000A64BC5248BE2DE8621320CA712A6199439
:1001B00054EDE76108330FA712A638C4697507E24A
:1001C000584D06053411A712A64DC5248B6A4998CF
:1001D0000C431A57003510A712A638C8952111E311
:1001E000B29A0C0A003610A712A61AA234AE0C89D5
:1001F000A85A934101370FA712A638C4699CC66953
:100200009CC621003811A712A6DA2A6992655B25DF
:1002100055932C9B003910A712A61994D45119920A
:10022000B81A0D11003A087218A618E2213B0BA269
:10023000B8A518E2214914003C09A514A6CC3AA699
:100240001D3D0A4752A638E48443003E0AA514A681
:10025000483B661D013F0EA712A61994548DD3E6A4
:100260001CCE004012A712A61994D4342899124D1E
:100270008A9C038302410DA712A64B93AC925A8726
:10028000AB354212A712A618A43049C56490C22407
:1002900035268304430DA712A6199454EE6B322819
:1002A00000440EA712A618A43049FD980C12004570
:1002B0000DA712A638C8E5418A9B8721460CA712D4
:1002C000A638C8E5418A3B03470FA712A6199454E4
:1002D0006E1B526B322800480BA712A6485D87ABF5
:1002E000D700490BA514A618A4B09F06014A14A86C
:1002F00012A61BD41CC8811CC8811CC88128CC86AE
:100300000C4B12A712A648C5248B6A6312465929C2
:100310004CD2004C0AA712A688FBF330044D10A75C
:1003200012A648D56DA92815299222D51A4E0FA7D5
:1003300012A648D551C9A4484BC4D51A4F0CA712D0
:10034000A61994D45F934101500DA712A6B8A4D664
:100350006148E2CE00510FC7D2A51994D42F995409
:1003600019D41C105210A712A6B8A4D66148A2AC8A
:100370001426A91A5311A712A61994D40EEC800EB4
:10038000A86A322800540AA712A63864717F035560
:100390000BA712A648FD6B3228005612A712A648DA
:1003A000AD49166551560993304933005710A712CD
:1003B000A6483D4552244552A4744B005810A7123C
:1003C000A648D524ABA4719A6495540D590DA71273
:1003D000A648D524ABA4716F005A0CA712A638C446
:1003E000699FE361085B0AC4F6A518B4FE6D085C5A
:1003F00011A712A6C88138077220CE811C887320ED
:100400005D0AC4F4A518B2FE6D105E0A47D2A64B71
:1004100093AC92065F0718F0A5380860073316A75B
:10042000C80A610F7712A61974204E8621159521EE
:1004300009620FA712A6885B864454ADA33224003C
:10044000630C7712A61994546E4D0605640DA7121D
:10045000A66E19127175548624650E7712A619942A
:10046000541DCE39302800660EA712A6DB4A591457
:1004700087831837026714A7B2A519123109933080
:100480001AA21C1894544D0605680CA712A6885B86
:10049000864454BD06690AA514A6D1D1B1A7416A04
:1004A0000ED6B2A5D4296B57D1980C09006B0FA7B3
:1004B00012A6885B3525D1D444CB94346C09A5149D
:1004C000A618FBD3206D107712A6589428922229E3
:1004D00092222952036E0B7712A648864454BD0619
:1004E0006F0C7712A61994D46B322800700FA7B244
:1004F000A548864454ADA332247119710DA7B2A545
:10050000191271755486246E720C7712A688262DE6
:100510000993B815730F7712A619945407061D5046
:10052000934101740D9712A68AC3618BBB650B00C2
:1005300075117712A60893300993300993301A92F7
:1005400000760F7712A648D5248BB24A98A41900DA
:10055000770E7712A6484D91144991D22D01780D4E
:100560007712A64893AC9256B24A1A790DA6B2A554
:10057000087D5396544C86047A0B7712A638A4BD96
:100580000E43007B0DC5F6A55AC26AA4A959581D91
:100590007C07C1F8A5F8007D0EC5F2A558C35AAA7C
:1005A00049695899007E0A37F2A6D1A44853000041
:1005B000000004FFFF4E24230ED5C1D5512D1C0E83
:1005C0003AA0A3523CDC111D5593E141156551162B
:1005D0006551968658D3011D4E2A290FD3C1CEB13D
:1005E0004C87EC98A263911A0D0FB2A803A23C6449
:1005F000B222C992A26A912A8B3AA0A943A44319B4
:10060000004E2D290FD3C11375409492E19BA8038E
:100610008A1DD3D2E1A0233A36DC21351A1E64515B
:1006200007441D50061D907644074E3A370FD3C13C
:100630001A327188122D93860F8A4D524C43320C18
:10064000D290B82492629386414B4A4A36484B2452
:1006500065431225D2304899A22592340C913A2450
:10066000004E3B280FD3C1AB63764494D5288C86CB
:10067000D38EEE409628A9A868AA6495A4588A64E7
:100680003507C4DAF010E528004E48350FD3C1CC49
:10069000A470888665C824518B944C1A3E6BDA305E
:1006A00044430E4883320CD1124789988489940CB4
:1006B00049A6581249312591120D5B3C44004E4B1E
:1006C000350FD3C187921CB36489920D83A6448AE7
:1006D0002629A6411912294D8CE1323C284AA22430
:1006E00043221D064D1B126548863851121D98760F
:1006F000244C004E5D2A0FD3C1CAB16C7888744473
:10070000D3116D78D3917078B3C492964AC3102AEE
:100710004A245AD2681834558EB5241A1E4E5F26C4
:100720000FD3C1D474449392E1A3A6235A920E0727
:100730001DD1611DF859477770D021636654C4E11B
:100740000E5C004E662A0FD3C1CAA1501A064DD4C2
:1007500001518A86074D54448BA8448AB80C272D32
:100760008DB6E1CD92683E6DC3908569024F462DEE
:100770000FD3C1D2A45499A44891864919A6E1A2E5
:100780004491E2A8382A8E8ADBB09886C429F1A861
:10079000583625AA44431A4971184F4D280DD5C122
:1007A000CB8150192E4AA67852A42453A45951C67D
:1007B000285B646D38486E924D99D42507B4218B1F
:1007C00035004F532F0FD3C1CA8C9AA264CA7088C8
:1007D00034454D92E18B53321CA4C49764B80C91FC
:1007E000324A8BAC1C93411922C54B14294A390A51
:1007F000014F5C290FD3C1CDC14CCC869F5229310A
:10080000A68A9403AF928E8462343CA88A8E293AD9
:10081000A688A9224A87415187054F602F0FD3C16F
:10082000CA09529C49C3C9A80C83A849A27418A438
:100830002111A5610895441995441A064D123549B0
:10084000D42451938641AB4600505A310FD3C1C9CD
:10085000A13447C42D1A958AB22A8B124A91222DAF
:1008600092A20CC922264A3264CA944CD1A84CAA3E
:1008700032A98A365CB41C887214513F280FD3C148
:10088000D474449392E1A3A623610E3CC89A0E88C7
:10089000F2F018EEE090638A0ED9114DD68650071B
:1008A00052005143340FD3C1CB09872C93B2414A34
:1008B000061D48A2448B12A5322C529269C345DA18
:1008C000116989322551064953A2CC12659621B38C
:1008D00044D1964311005145350FD3C147A26C98BE
:1008E000143189164D3155942119166590A46191E2
:1008F000D46518A42191C4219134451906C5498BAA
:100900001449CA1449C9966110A31C514632FFD23A
:10091000C18C86211926455234455234455226450C
:100920005994C4B22843322CCA900C8BB42CA6E53F
:10093000A02992A2293AA6E898A223C301514827E8
:10094000FFD2C14987215215D12286929A49D2F00D
:10095000491ED5211407D1222A89242E9A36856270
:100960003CE4A8065149270FD3C107C3E11DD1219B
:1009700069582535193EE604314786411D72201C11
:100980001EA226C5A72E3A38E4A804514B320FD335
:10099000C1D9E11D4994683888A9225A9461506CE4
:1009A000A32249C3321C1453A2448A344C8A94288B
:1009B00091220D93224A89711814758A0051652A73
:1009C0000FD3C1CE295A38BCD681211AB3488B86A1
:1009D00007451EB52156C6501E326D8895359307C2
:1009E000291CD268C8110051682C0FD3C187E21CA2
:1009F00011C561C8C42C4C1535E9367CD2C4CCB4C1
:100A000069831469A2A42492380D4AB4A55216CE63
:100A1000D19001516B250FD3C1CE093AAC439996C1
:100A20000E0751B24A56C92A5992E1F30E2A3AA446
:100A3000E9803AEAC01D4C00516C290FD3C1D6A100
:100A40004C4B8783285925DBF071D181211B95E11F
:100A50004991125152AAC34187226DB8E8E80E6746
:100A60000051732B0FD3C109D33094363151A56196
:100A70005072448D42255392619092540752599579
:100A800092D27048645556577595631151762B0F65
:100A9000D3C10B7348DAB245192645B2482E8B24D0
:100AA0002D2617C9457291164991944919A64C599A
:100AB00064259355594D0152292C0FD3C1D4744448
:100AC0009392E1A3A603610E693AA08991A20C87D3
:100AD000440A352991CC8A32889114A6666588B774
:100AE0001CCA00522B330FD3C18AB34C49868BA545
:100AF0006518324919B2A4494C2AC3902D99A88887
:100B0000D33064CBA226C930488A63140D43122B1C
:100B10003A360C3A9003523031FFD2C10893611A31
:100B200086504A9428D112A575D8A424518683A250
:100B3000648A326C4A942899AC8AC3264B913C242F
:100B4000893864431AAB005236260FD3C1877282AC
:100B50009885E2B0898A6811A544191E14D1225AD9
:100B60004471102DA998233AACC33A9C02523727FE
:100B70000ED5C1CD611D08C568784834D3F0A4995D
:100B800086A750CC012D87941D1974684B8749DACC
:100B9000863BB000524D290FD3C1CC097728CCA198
:100BA000612764C9F0A52D49B7411B1425DE062D28
:100BB0006951526D88452919BE89B22A02526A2BA1
:100BC000FFF2C187E23053226938448A2C65A2982B
:100BD0000DD3B048A22689DA306A92A80DA39248B4
:100BE000E264DB24311A0E0153412D0FD3C119DE0B
:100BF0009168C7C468785034511A1E224D94868774
:100C00004813A53631316689322DA67050D4288913
:100C1000863B70C80053431F0FD3C1CAB16C78889C
:100C200034FF36BCF96FC39B9F444D1235298D8626
:100C300024072300534E350FD3C1C9C238D25429DB
:100C40001BA46418724CC9922CC90645699392641E
:100C500050D42491D22891A4291906454A244D3113
:100C6000694A6453925B92D50053552F0FD3C187C5
:100C700006291C4659CA94E110A53B900DDA20259F
:100C8000CA244552A6C4A1340C9A49D414754834D8
:100C900069884445CC86D4025357310FD3C14B7376
:100CA00044D4015156A54C498641912C52A429CADD
:100CB000202A52222A9A92299A62B22C92324449CC
:100CC00026A59A0E483B906600535A220ED5C1C7FE
:100CD000D2E190233AAAA33A2A26C383ACA33AAA24
:100CE000A33AAAA33AAA63438EE60053612B0FD31B
:100CF000C1D6611D5C7444DD7468888641CA913038
:100D00001C86CCA4D886C52629B661B1498A2D1384
:100D1000B5689BC234025370300FD3C1CD816418C3
:100D20009261086529923249914C83B4688916A969
:100D3000EA38265AA2299222591665922229536529
:100D40006D08875096005374300FD3C1D391501B58
:100D5000864C4A2CC341112D9A9628D970102745EC
:100D600089124991B261915C2497451A169BA44857
:100D700099B2C85216025427300FD3C19292301B39
:100D80001E924C91948AA46C9B14468A3869C33491
:100D90001C5225931565966AD9F010E5900E0C8AC1
:100DA000328C438E4A00544A290FD3C1CDE11DD560
:100DB0007244D481581CDE862599252507241DB24E
:100DC000437644D3114DCB442D52874147060554F9
:100DD000582E0FD3C1942259B20D83144BEAF0CD93
:100DE0008E4489140D83628B15295122251A0669B8
:100DF000B50D83322589A62899A46D4A2C552E2E2F
:100E00000FD3C10C7560535265183455C9B4615085
:100E10001255CA94E1104971260D27A32629364997
:100E2000B1498A4D4A8C9A362972025546290FD308
:100E3000C1938C894B347C50D2448A86B3A623C399
:100E40009023690EBC633A321C724C4C86EF800EC4
:100E50000E399C035668380FD3C14BC3E1431625A6
:100E6000DA904443920C49942815251AA248899295
:100E70002149864392685A9265E2902AC3344C8A8B
:100E80002591A255498624DA1453D6005728240FF9
:100E9000D3C10772828E6AE970D0111D9593E1ABC0
:100EA0008EAAF17088531DD51149077778876300A2
:100EB00057302D0FD3C12C2B9A3C6452960C076DE2
:100EC00093134D89166518A2920E7C88952C9694E2
:100ED000718856459B34451A8734CE2100573A31E4
:100EE0000FD3C14BC368194EA2A6688992285192AC
:100EF00028C9B468CA2085A1942825299386210C85
:100F00000F5745B3244A326CA6345954AD00573EAE
:100F10002B0FD3C15265559614C9451A0E89E42288
:100F2000598643B444A6515DC52191A46191A4C5DD
:100F3000E422590E8728D281005740280FD3C116CA
:100F4000736418B44C4B878328ABC32195D5E190CB
:100F50004A528EA9C9F06DD821C52C499B6D5053BA
:100F600005575B300FD3C14B73604AA44C1A2E9ABD
:100F70002855D2285AB3411A461D557224193E8865
:100F8000CA0E294A3A448A322499A444D19643315C
:100F9000005927250FD3C10C7560D30151CA94E1C4
:100FA00090A86AA28999349C9444F36D18327F1BEF
:100FB00086CCA72D2C0159292C0FD3C18CD27019A6
:100FC000064DD23C899A92686EC39059124D4C8A54
:100FD00062521493A29814C5A4498B9292944E75B0
:100FE000200159342B0FD3C1ACA89B928A52A60C76
:100FF000874416132992326950262D194275150718
:10100000514B9450526C8AE42A65E25C0559392DA3
:101010000FD3C10C75605262C9282983A40D5145B4
:10102000D4014D0BA561D0A44856A54C190E912AA8
:101030008B43AA499B244E75200159732B0FD3C1B2
:10104000D691E121C77264187428D9B19D1066C386
:10105000433A64AA22A9CA122B433445DB9A483B7F
:101060003244733C0459792B0FD3C15693E1930E4C
:101070000F6F39140E6F3A200E072DC98ACBA04C82
:10108000499F969E926450A6A5A7241A968AAD0001
:10109000597D310FD3C187B2241B8648D154658A4C
:1010A000A52C29A9C390A851624B94C4A62C26173D
:1010B000A3A20C5A32298B122A520E4839B4C30902
:1010C000005B50280FD3C18D726CCA214D0754F3B9
:1010D0001029C3900CA124A59A0E687316E5A0945C
:1010E00003EF900EEBB09A0C1F5B57270FD3C1078D
:1010F000D36C1842555665551C4429538643A4CADF
:10110000AAACCA4A268FE290AA39A083438EAA00CD
:101110005B582BFFD2C1CAA1501B864C877528197A
:1011200094E124EA80A803A29669C32029B1B603FA
:10113000CA9023520E443A38E4A8045B662B0FD3BE
:10114000C147C378D0A46195AC926D1824259386CD
:1011500093AB6495ACCA262E9A34444AA21415A5C2
:101160003A2C739425005C312E0FD3C1CB816C18BF
:101170009261C872201CB4411AB452D634886312EA
:101180002ACA3024A11D1C0EE9B0A5D9B00E8724AF
:10119000193EEB005C40290FD3C1D474449392E113
:1011A000A3A6433A414D862FA11A0D0F8A264A9ACB
:1011B0002869A2A48992A64DA1982339025C4F2CDC
:1011C0000FD3C1D474449392E1A3A623C3A0039A7E
:1011D0000E8852260F510EC5C3214E7540D32145AE
:1011E00007071DD1862D0724005C5E250FD3C1D4CF
:1011F00074449392E1A3A6435A8E88B26A56A2E140
:101200009392C98A244B8AAC25B22A8B73115C71E4
:10121000280FD3C1D474449392E1A3A683833CECFA
:10122000A89A0C5F951C9374641AD2215286C955F2
:10123000D2213B94C5005E26280FD3C1D4744493B9
:1012400092E1D3701023450A8783A8382A8EC341C0
:101250001DCE43264B833C5C92E1B30EEB005E381F
:101260002C0FD3C1D4A464F8A8C9C341CCD468F866
:10127000904452A264C3944652387CC9E4687850C2
:10128000244572915C24298BA2055E552D0FD3C194
:1012900052655107342D945265F8A4499B9248E257
:1012A000F0104DB64D92864C92864C92124D1225FE
:1012B0004D9B42314A33005E72310FD3C112B3509D
:1012C0001B86CC244AC3362C912A0D272593372D13
:1012D0005B944C5994D2B024966488A2214AC4C429
:1012E000E4A28C4916C529005E73300FD3C1526544
:1012F00075D0A44896860F8A16596CCA705B4CD27A
:10130000220DD1A465432425C9202D15D3A0455213
:10131000528AA66C90AA0B005E74320FD3C19272EF
:101320002092869329320D1F9445B2542465384487
:101330004B9C4DD56951922119A264588654511283
:1013400031531251D986414A87055E762D0FD3C19C
:10135000B2899AA264CA70882C52327C5ADC94E119
:10136000102D6EC3D3A428D1902CE290DC1265B16D
:101370002D96932265A5145E7B320FD3C1D2864190
:10138000D21493360C92A628C3A00C83A44552A471
:101390004452380DEA284587877488127148328B89
:1013A000498B14658AA63A10025F53320FD3C147A6
:1013B00073641894AC120E5A122A531225CAF0A064
:1013C0000C49C5322415CB90549461482A4A94287C
:1013D00015791A625556E5E1AC2A005F552A0FD3FC
:1013E000C1C7728256D5065553A6E1A2641675523E
:1013F000066952BC0C8A924DD128CBB10EE77032EF
:101400000CA2342C005F622E0FD3C187728212654A
:10141000C930288394498AA4688A362A923229C618
:101420004159B224319906C9944576C88E683A90DC
:10143000EA70066027370FD3C12D49C93028C3A0F1
:10144000494BA22D4B320CCA9288CA922859B22419
:101450004A962C89D2B25486241906A5451A928E32
:10146000495BA6B49512694AC304603B390FD3C1E6
:101470004E73445BA248938643222991362CC9902F
:1014800028891249D1900C43A428919458222559B7
:10149000946848A42131454A6299232511A325D196
:1014A000C2240B6234320FD3C10B07295286314953
:1014B000A56C78886A52B40C0745596C8A326C8ADC
:1014C000B248CB705AA52491862154D5E14152945B
:1014D0008A96484A2262402B0FD3C1CB01551B3656
:1014E0002519E2415225A3529332653844A3ACCA70
:1014F000E2908A4AAA249238D92651ABAE3990009C
:10150000624B2F0FD3C1CB2455194E4A2289433247
:101510006C92295192E1102D6E9262938641932232
:10152000591A064DC9E46518A4558EA57838046289
:101530004D340FD3C1CAA2244AA6E1A22989920C34
:10154000C9900C49942889A5226D4A74D92A9128FA
:1015500069DA3048A2A429916D191E42290CC535BB
:1015600007120062532C0FD3C1D609B31A46C383A6
:10157000A255254D89A464181465131769949441E4
:10158000939461B2244E4AE2342951660B8B006277
:101590006B2D0FD3C152734095C5751CC2213225E6
:1015A00043122A8979519261C84CA226899A326ADB
:1015B00052AAE9882666DA3048E9B000636E360F31
:1015C000D3C1C9A1344A456588D44489A4508994BB
:1015D0009A320C8934292625312E892D5112654ADB
:1015E00086C4B2288965D11465912C92A20C51252C
:1015F000540064442C0FD3C109E32C1B4E1663A482
:1016000058D2619042C5A429266D18D41C0993E1D3
:10161000206592B649DA266993E6314A3300645868
:10162000300FD3C149E3281C0649536C99A2CC8AD8
:10163000251C2EA20E88636918B44A2865C9B06CAF
:1016400049986CC9B06C499868D130D5C2006478AB
:10165000310FD3C148C5481A266912B54C54874981
:10166000C9A1415186C92259872111C56413A349D3
:10167000C924655224458B32298D867098240065D3
:1016800036290FD3C1D6A1508C860F522C655A1221
:101690000E871C1073E05591D46CD8213B34EC902C
:1016A0001DB243CA0E652900653F2F0FD3C1CAD4AE
:1016B00068F8A048A664B8A4928E0C838E4852366F
:1016C0003C84E6E1100E992245C390858A8E294319
:1016D0000E283BA20E120065592E0FD3C12E69466B
:1016E0004D8A93E1904649940C9F14A5A2294A453E
:1016F00053A62153544D196E8AAA29C36DC8814837
:101700001A1E8741016570340FD3C1C9C168785072
:1017100074481A1E225BAA4889122DD29029CA3019
:10172000288394888A942891A2C5CA70504C91A6A7
:10173000484A18696296291200662F2CFFF2C18A66
:101740005D3269388951A86452342CD2A428D990CA
:10175000444B9424B6441C425995C75191142D52C0
:10176000B4214BD404663E2E0FD3C14A676D07A443
:10177000E1A4292E91A20C83320C8A2F91621912B6
:10178000691894219445459C32CB70502255CA6209
:101790001D9600667A2AFFF2C1CBE11D08B561886B
:1017A000744054524D1995645086932CEA8036A8A3
:1017B000628EE84828ABDA100E610E8800672C3183
:1017C0000FD3C10B7364D3325119125107A22447AE
:1017D000A2494B064919246993A44453064953541A
:1017E0004D4E3451D2942133A5D28E841100673AE4
:1017F0002F0FD3C14B736089A44C1A2E5AAC44D519
:10180000245A8669908C9AA489C33448B22AC6C9DE
:10181000306892A60C99291D861C0923006765244F
:10182000DF12C2CC916458864192555955426D9849
:10183000864D56E5515632599186501A64250A87CD
:101840000368212B0FD3C1AE031F94164D4C8A5A47
:10185000A44AA1351D442594864153652D59B521CF
:1018600009A54899864C4AA664C851156837320FB5
:10187000D3C18986218A867488946449A4211D2253
:1018800025591249E9220DC921AA46C9F04107A7E5
:10189000E194033A360C39A8C3523A1C2400683C40
:1018A0002F0FD3C1127344DB014DCCB4647848359B
:1018B0001D91B6501A224D1A244BA2448B92A89126
:1018C00092E888A6239A8E68F2A8031900684C2D26
:1018D0000FD3C1D2A14C1B064947341D9006314994
:1018E000E528DA86411952291944A5A2845A226BA7
:1018F00089ACCAAA38A4EA2A870068632C0FD3C12E
:10190000527340955529D3860751C974405B95435E
:101910001646C317254AB44453B4445394CCA26426
:101920009641B26D3A086B2130FFD2C1528741CD4A
:101930004C49662A4943122543A48489260D91A661
:1019400023D2100E43A20C8BA69834C5A429264D91
:1019500019942D8A33006B4C300FD3C1C9A21C18C7
:10196000245991A44C91864991E4419215498B9454
:10197000E1A098D6415242455234457291A4C5A483
:1019800045C9A46665006B63310FD3C1C9526D9020
:10199000864919A64C913249596CC39484CA7088FF
:1019A000145553B471D0A448190E8A4D553455516D
:1019B000123599C62C4C016B642F0FD3C1C9CA8351
:1019C000122991321C14654815658E0665D8141DC0
:1019D000538683E271508C8AA3E2A8B8448A976444
:1019E00089862D0917006B7B380FD3C18992301C73
:1019F000124D8B124D8B86458B1265588644D3A2AF
:101A0000E116C55A941C94216952A2A449899229CD
:101A1000892AB5529228533428CAA44461006C60C4
:101A20002D0FD3C11A0EA2D22226CA9044C3872CEE
:101A3000CD94411994EC9AF41C55878758D191257F
:101A400019A54192933AB4CC3A20016D3B300FD3A3
:101A5000C1AC0E9BAC4A99345C64558B9448542CB1
:101A6000C3A09894213129C321522629523455D13B
:101A7000A468D0A448D1861D1B12006D412B0FD342
:101A8000C1CC4AC364D3864112256B96E9A85A1982
:101A9000166D31659222299AA225A1225AB471901D
:101AA0005CA45007D2046D4E290FD3C1AC439AA455
:101AB00044436252B451D1B4441992E1A00E392189
:101AC00019BEEAA89C0E076D4835459587730D6DC4
:101AD0004F2F0FD3C1CE81CB70B24A56451B2E9AE1
:101AE0003A84CAE190542C4352B10C49C5322415B2
:101AF000CB902C9621558621559475CD81046D6A25
:101B0000310FD3C14BB238E931E9222A5224265988
:101B10003A7C4A4A39B20D524B160D4392452D522A
:101B20006549A4484994A696448B2A4DE112096D53
:101B300077300FD3C187D22C1B074D8A1469181236
:101B4000CB240D4A3264CA262A92A20D4A2425B615
:101B5000E1224D8A25510EE21055776CC774046E50
:101B600038260FD3C1191E22298B4C59240D0F3949
:101B7000876C78C8011DD6A14C87A4619574C80EE6
:101B8000D9216B327C706B310FD3C1077424D5B26D
:101B9000E12112E3449487874CD40151079461D02A
:101BA000D68A1429A1A44859924891A20C61525195
:101BB0008643940D1300706F330FD3C1077424D57F
:101BC000B2E12192722491D468A90C9392D594AC7D
:101BD000A62483122D592551A229539241C9A22529
:101BE000994C59949594308E007136270FD3C1D5F6
:101BF000093B12A6D1F041AA499922C59A8E8CF1CF
:101C0000700895D0B4EC90A2A33AAAA33AB64300C8
:101C100072472DEFF2C1CA11515D45355112795805
:101C2000E44449B428519261481225B10D8B5553B3
:101C30005425B10E43A20D496289C2E100725938A0
:101C40000FD3C18772208BA44C4B94491B8624511F
:101C500032251A9661481225D1864449342551927D
:101C600061488645F32519866C18326548124D4A3D
:101C7000A51D09230072692F0FD3C14794344B8CE3
:101C8000D290A4523226CA70192635518683A224D6
:101C9000B644D9A4E1934BA65C87A932246B140EF9
:101CA00077E090007279310FD3C14774208BA44C38
:101CB0001A4E4625514665785012658C1265569429
:101CC000E1978A64A948CA708886A5322C4B4509D9
:101CD0009564882B0075282F0FD3C14DD264F894DA
:101CE000449AD2B229C383D22246493BD26558BA1C
:101CF00069499BB61C9634D38621D3D24C1B864CA3
:101D00002926C3207531350FD3C1CDD261C8A22C8D
:101D10008986216959B4E1416959942EC321A92CBE
:101D20004A9761505A166D1922A53AFC102969226A
:101D300029C3900C4B1885090075352F0FD3C1AD01
:101D40000D43320C51922651D21429C387A44F4916
:101D50009F92BE28956D482A6A72785C5A8641E93E
:101D6000AAB40C83D2713804754C300FD3C1C8D2D9
:101D700070D83645B46852A4489A3228C32129A5A0
:101D8000990E6B62360D17CD922889A62493A60C66
:101D900099451D861CD11400767B360FD3C1912244
:101DA000395A8687449692619006459392CA304488
:101DB000494593066518A2A42465496998928A2624
:101DC0000DCAA285D13A6489B44A43AA2600767E18
:101DD000360FD3C191A2418B96A6614B32291C923A
:101DE0006450342929A64953695086416951122902
:101DF000A92889945486211A14259172241EA2615F
:101E0000D9C6B9007740350FD3C1CA227950A43062
:101E10004B866D99342551126918944D5D9664185E
:101E2000B24919C26C508621524CDAA0489A62D24B
:101E30001493961CA62CCA22000000600003030421
:101E4000050406060F1700FC10FC1000020B04012D
:101E500006022006001054012108021534F1A144A5
:101E6000220934B65521998802231E0813542711DC
:101E70004D4492916424911C0E928948E57090A87B
:101E8000496412D144A404241448D3532796D22C75
:101E9000A322799F89A5898D2A96012518081354B4
:101EA00023B348282255B1AA582A5615A948221208
:101EB0009B04002617081354372CC9243289783A1A
:101EC000244A641209C9CD343919270732B435516F
:101ED0000128100417541593885444FA26128D22B1
:101EE000002910041754139289D444FA22928C4288
:101EF000002A12787255278C48228710E9108948E9
:101F00008232002B0C66745425141D4A4211002C99
:101F10000732F43341092D0726B45471282E0622C6
:101F20001434412F140813542D9D8AA553B154AC79
:101F30002A964EC5D22900300F08135445B38C8A17
:101F4000FCC7D2C44602310B041754253A5044FA58
:101F50001F321408135445B38C8A6C53E9702A9DC0
:101F6000AA4E0F07013312081354F1209DAAAE9216
:101F7000C79A4B131B0900341208135427156B150D
:101F80006B11E9743808C54A003513081354F14041
:101F900056365D4645B132B134B19100361408135E
:101FA0005445B38C8A64B1E9322A722C4D6C2400FA
:101FB0003713081354F140A44DC5AA53B174552CDE
:101FC0009D0A01381508135445B38C8A8CA589C91C
:101FD000322A329626361200391408135445B38C2F
:101FE0008A1C4B9393594C2C4D6C24003A08925404
:101FF000344187113B09A23434418751023C0D958D
:10200000765C19932C05674361003D0967545CF1C8
:102010008EF0003E0E95765C1114CE86A1C952104A
:10202000003F1208135445B38C8A62E970AAAC3B96
:10203000825806402A3E938369071CA2C3D91C20FC
:102040001995482692124989A4445222299194480C
:102050004AA483E9109A43E7D083F8100241130899
:10206000135427160F7994C824229D4C17199128D0
:10207000421408135451BBC824426E12D34556E48F
:1020800026B9D400431008135445B38C8A64FDB1BB
:1020900034B19100440F08135461BAC88AFC6F87A9
:1020A000890900450F081354F140D6D96412EB7C1E
:1020B0003808460E081354F140D6D96412EB3300A9
:1020C000471108135445B38C8A649D1C194B939394
:1020D00001480D08135421E4C7C3C1C88F02490841
:1020E000021534F103014A0D081354ADFF99589AB3
:1020F000D848004B1A08135421AB494413918AACB9
:10210000469C4E8935894CA434914964034C0B0894
:10211000135421D6FFF3E1204D13081354212C3919
:102120001D7E904828128A84C8A3004E13081354B9
:1021300021ACB5994C178A8422A19CDC3A0A4F0F36
:1021400008135445B38C8AFCC7D2C4460250110808
:10215000135451BBC82442DE24979A58CF00510E25
:1021600008135445B38C8AFCC7D2E4645215081393
:102170005451BBC82442DE241793DE2432894C22FA
:1021800014531108135445B38C8AE47D26962636E1
:102190001200540C081354F12013EBFF0D00550DE1
:1021A00008135421E4FFB134B191005617081354B9
:1021B00021244A64129944A437894C22AB11A95BAB
:1021C0006500571107155C21E34B8412A144288751
:1021D0005F5C0658150813542194C824226D1259C7
:1021E0008DC8B13411E98D285917081354219488EA
:1021F00026225D6644E2742C154BA762E914005A4E
:1022000015081354F120968AA562A9582A968AA522
:10221000E2C341005B0B05175471A8E97F3B0C5CDE
:10222000110715542155964AA7AA53D5A9EA540077
:102230005D0B0515547198E97F3B145E0936145601
:1022400025A388045F071AF0537118600833F85506
:102250002111096116C9125C37AD29C9E40099E959
:102260002294082542D1214411621108135421D629
:102270006CBA8C8A7C2C1D2626006310C81254452B
:10228000B38C8A641D4B131B0900640F081354ADF3
:1022900093E5302AF2B13439196512C8125445B3A6
:1022A0008C8AC4C3C12C1E4D6C2400660F081354C5
:1022B00047336956BCDCC4FA1100671608935365AE
:1022C000398C8AC4D2C454138B2D8721F130B100CC
:1022D000680E08135421D66CBA8C8AFCA300690DD1
:1022E00003133421910324FA9789006A0F4695530A
:1022F000A98E24D4FF483A4428006B1808135421AF
:10230000D6AD26114D442A3289AC6D229A4C641206
:10231000D9006C0B04133421D2FF1365006D1BCE62
:10232000128461221D2C23525148141285442151DC
:1023300048141285442151016E0CC8125461BA8CA4
:102340008AFCA3006F0FC8125445B38C8A7C2C4DB5
:102350006C2400701108935361BA8C8A7C2C1D2662
:1023600026B16600710F08935365398C8A7C2C4D19
:102370004E661D720BC61244F11021EA8F007310D5
:10238000C7124C35ABC89889641A4D521B01740EA4
:1023900005133C23D37498C8F41B6900750CC8124C
:1023A0005421E41F4B9393017613C8125421244AFD
:1023B0006412D144A43789AC4664027720CE1284DB
:1023C0002114126712D94C22A24944242592524565
:1023D00026D14692C84844129144027814C8125437
:1023E000219488262219912A961269222D42017978
:1023F0001B0893532393C824329164249149641297
:102400009944489C6E8B8C8A43007A11C81254F10F
:10241000201D4EA5C3A974383D1C047B1026D5533E
:10242000291B09751BCD8643BD0E057C0842D95377
:10243000F187027D1026D553215CD4EB6C24D46D3A
:102440003413027E0929D25471081D027F06001040
:10245000540100000004FFFF0000FC212F2511247F
:102460001FBECFEFD8E0DEBFCDBF25E0ACE2B2E0CB
:1024700001C01D92A03CB207E1F712E0A0E0B1E07C
:10248000ECEFFFE402C005900D92AC32B107D9F732
:1024900012E1CEE2D2E104C02197FE010E94F225B2
:1024A000CD32D107C9F70E94BA220C94F1270C94BF
:1024B0000000662329F06A3019F0862F90E0089515
:1024C0008FEF9FEF0895CF92DF92EF92FF920F93DD
:1024D0001F93CF93DF93EC01842F8770E1E0F0E04E
:1024E000082E01C0EE0F0A94EAF73E2F7E0199E70D
:1024F000E90EF11CD7019C9110E0923018F41E2FC8
:10250000913029F150E0487FE8ADF9ADC880D9801D
:10251000D60150969C91949F6001959FD00C1124F8
:102520006C0D7D2D711DDF01A60FB71F011115C0A8
:102530008C91812B83278D932150D1F7DF91CF91FF
:102540001F910F91FF90EF90DF90CF90089530E0B2
:10255000D9CF110F330F222389F39C91912B93270D
:102560009C938F5F877021508111F3CF9CADA90F91
:10257000B11DF7019081923028F4913009F031E0DB
:1025800011E0E9CF31E0E7CF80E0089580E00895E1
:10259000CF93DF93C9E3D5E08FAFEAADFBAD0190F8
:1025A000F081E02D8DE395E00995EAADFBAD028069
:1025B000F381E02D8DE395E0DF91CF91099486E4DE
:1025C00080937C0080917A00806480937A0080916F
:1025D0007A0086FDFCCF8091780090917900089573
:1025E0009B01DC011896ED91FC9141E067E10994B3
:1025F000833081F028F4813099F08230A9F0089579
:102600008730A9F08830C9F08430B1F4809180001F
:102610008F7D03C0809180008F7780938000089524
:1026200084B58F7784BD089584B58F7DFBCF80916D
:10263000B0008F778093B00008958091B0008F7DB7
:10264000F9CFCF93DF93282F30E0F901E255FF4F08
:102650008491F901E656FF4FD491F901EA57FF4FF3
:10266000C491CC23A1F081110E94F812EC2FF0E06C
:10267000EE0FFF1FE458FF4FA591B491EC91ED23AD
:1026800081E090E009F480E0DF91CF91089580E04F
:1026900090E0FACF1F93CF93DF93282F30E0F9011A
:1026A000E255FF4F8491F901E656FF4FD491F901AD
:1026B000EA57FF4FC491CC23A9F0162F81110E9435
:1026C000F812EC2FF0E0EE0FFF1FEE58FF4FA59130
:1026D000B4918FB7F894EC91111108C0D095DE2316
:1026E000DC938FBFDF91CF911F910895DE2BF8CF40
:1026F000CF93DF93CDE6D1E08881229660E00E94FF
:102700004A1381E0CF37D807B9F7DF91CF91089509
:10271000CF93DF9390E0FC01E656FF4F24918A5758
:102720009F4FFC0184918823C9F090E0880F991F86
:10273000FC01E859FF4FA591B491FC01EE58FF4F01
:10274000C591D49161110DC09FB7F8948C912095DB
:1027500082238C938881282328839FBFDF91CF9188
:102760000895623051F49FB7F8943C91822F809580
:1027700083238C93E8812E2BEFCF8FB7F894EC91C5
:102780002E2B2C938FBFEACF3FB7F89480910C0388
:1027900090910D03A0910E03B0910F0326B5A89B55
:1027A00005C02F3F19F00196A11DB11D3FBFBA2FE3
:1027B000A92F982F8827BC01CD01620F711D811DA3
:1027C000911D42E0660F771F881F991F4A95D1F728
:1027D00008958F929F92AF92BF92CF92DF92EF9225
:1027E000FF926B017C010E94C4134B015C01C11478
:1027F000D104E104F104B9F00E94C4136819790905
:102800008A099B09683E73408105910580F321E0A8
:10281000C21AD108E108F10888EE880E83E0981EFC
:10282000A11CB11CE4CFFF90EF90DF90CF90BF9040
:10283000AF909F908F9008952091BF02260F33276D
:10284000331F21323105ECF42091E502FC0190E0C8
:1028500080E0243069F082E00895A091BF022191C8
:10286000AC0143565D4FA40FB52FB11D2C930196BB
:10287000861798F38091BF02680F6093BF0280E0D3
:10288000089581E008951092E50281E08093E702C7
:102890001092E60261E082E10E944A1361E083E166
:1028A0000E944A13E9EBF0E080818E7F8083808173
:1028B0008D7F808388E48093B80085E48093BC009A
:1028C0000895CF93DF9391E090939C028823B9F011
:1028D000C091B800D091BA008091BC008A7B8093EF
:1028E000BC0060E082E10E944A1360E083E10E9444
:1028F0004A130E944314D093BA00C093B800DF91EA
:10290000CF910895089508950895E09194028091DB
:102910009302E81730F4F0E0ED58FD4F808190E02D
:1029200008958FEF9FEF0895909194028091930204
:102930002FEF3FEF981748F4E92FF0E0ED58FD4FE7
:10294000208130E09F5F90939402C90108958091A7
:10295000930290919402891B990B0895CF92DF9274
:10296000EF92FF920F931F93CF93DF937C01CB01E4
:102970008A0120917202222389F0EB016B01C40EBF
:10298000D51ECC15DD0569F06991D701ED91FC915B
:102990000190F081E02DC7010995F3CF642F0E94CB
:1029A0001C14C801DF91CF911F910F91FF90EF9000
:1029B000DF90CF900895CF93DF931F92CDB7DEB70E
:1029C0006983209172022223F9F02091950220322E
:1029D00058F021E030E0FC013383228390E080E076
:1029E0000F90DF91CF91089580919602E82FF0E04B
:1029F000EE5AFD4F998190838F5F8093960280936A
:102A0000950281E090E0ECCF61E0CE0101960E945A
:102A10001C14F7CFDC011A96ED91FC9130E020E018
:102A20000994DC011496ED91FC9130E020E040E047
:102A300060E10994DC011696ED91FC9130E020E014
:102A400040E069E10994DC011696ED91FC9130E0DB
:102A500020E040E068E109949A01DC011696ED91CE
:102A6000FC91462F67E10994EF92FF920F931F9319
:102A7000CF93DF931F92CDB7DEB77C018B01D801D6
:102A80006C91673129F150F46531A0F40F90DF911A
:102A9000CF911F910F91FF90EF9008956A3118F137
:102AA0006E3FA1F7F8014181498369E2C7010E94A5
:102AB0000A150BC0F80141814983D7011696ED91A3
:102AC000FC9130E020E0C70109950E5F1F4FD7CF82
:102AD000F80181818983AE014F5F5F4F61E0C701DB
:102AE0000E942C15F2CF0F5F1F4FD7011696ED9164
:102AF000FC9130E020E040E0C7010995C0CF462FAF
:102B0000DC011696ED91FC9130E020E066E109943D
:102B1000462FDC011696ED91FC9130E020E065E156
:102B20000994EF92FF920F931F93CF93DF93EC01E1
:102B3000042F7901693069F485E591E099838883F0
:102B40001C8A81E0DF91CF911F910F91FF90EF9050
:102B500008956D3009F475C038F46A3091F16B3026
:102B600009F468C080E0EECF6E3009F47DC06F30AC
:102B7000C9F70E942315F7011381110F110F110FCF
:102B80006C89160F612F62956F706061CE010E9493
:102B90008815612F6F70CE010E948815F70164813E
:102BA000606BCE010E948815F701408151816281DE
:102BB000660F660F660FCE010E942C150150A1F71B
:102BC0005DC0EA85FB8530E020E040E068E20995E1
:102BD000EE81FF8130E020E040E064E1CE01099524
:102BE00041E06BE4CE010E940A15E881F98144813D
:102BF00069E2CE010E940A1540E06BE4CE010E941A
:102C00000A15E881F981448169E2CE010E940A1522
:102C100041E06BE4CE010E940A15E881F98145810B
:102C200069E2CE010E940A1560E271E0CE010E94C5
:102C3000341587CF6BE171E04423C1F366E171E0A5
:102C4000F5CF411109C06FE071E00E943415E881B1
:102C5000F98182898C8B75CF68E071E00E94341510
:102C6000E881F9818389F6CF0E94231561E8CE01BE
:102C70000E948815602FCE010E947F15CE010E9410
:102C80001A155FCFDC011896ED91FC9130E020E041
:102C900040E069E10994DC011896ED91FC9130E087
:102CA00020E040E068E10994CF93DF931F92CDB715
:102CB000DEB76983BE016F5F7F4F0E94F0120F90F5
:102CC000DF91CF910895EF92FF921F93CF93DF93FF
:102CD000EC01162F7A010E944B1660E4CE010E948F
:102CE0005416E885F9859701412F67E1CE010995D2
:102CF000CE01DF91CF911F91FF90EF900C9442167F
:102D0000EF92FF921F93CF93DF93EC01142F790181
:102D1000663181F138F4643109F44BC0653179F0E2
:102D200080E022C06831C9F150F16931C9F7809162
:102D30005102882391F1CE010E9442162EC080914B
:102D40005102882319F0CE010E944216CE010E9442
:102D50004B1660E0CE010E945416612FCE010E94F6
:102D6000541681E080935102DF91CF911F91FF9023
:102D7000EF900895642F0E94541681E0F5CF809162
:102D80005102882319F0CE010E944216A701193181
:102D900038F4612FCE010E94631610925102EDCFDC
:102DA00068E1CE010E946316185188E1E80EF11C1B
:102DB000EDCF8E898F3F11F488E78E8BE885F985FA
:102DC0009701412F64E1CE01DF91CF911F91FF90D8
:102DD000EF9009940F93DC01DE963C91DE97431B44
:102DE000D496ED91FC9109950F910895CF93DF93BF
:102DF000FC01A081B18182AD982F990F990F990F95
:102E000095AF50969C915097903208F09FE1990FA2
:102E1000990F990F94AF23AD922F990F990F990F96
:102E200096AF51963C915197682F620F7727771F85
:102E30003617170614F4832F821B97AFEF01C05C7F
:102E4000DF4F880F880F880F890F8883219680EFC6
:102E5000888354968D919C915597813F910508F4F4
:102E60008883EE5BFF4F56968C918083DF91CF91E4
:102E700008950F93FC01EB5BFF4F30813196508139
:102E8000451730F4301738F0041728F080E013C0ED
:102E90003017D0F3FBCFFC01ED5BFF4F30818C5B33
:102EA0009F4FFC018081681740F481E0321718F0D1
:102EB00081E0261758F70F9108953217C8F3E6CF2F
:102EC0002F923F924F925F926F927F928F929F923A
:102ED000AF92BF92CF92DF92EF92FF920F931F9328
:102EE000CF93DF93EC014C0183E4880E911CF40135
:102EF0001082329720805E01F4E4AF0EB11CF50120
:102F000020823FAC6E01F5E4CF0ED11CF601308279
:102F1000359740807E01F6E4EF0EF11CF701408208
:102F2000349610813297608031967080329750804D
:102F3000012F262D472D652DCE010E943917CD5822
:102F4000DF4F811114C01882DF91CF911F910F9133
:102F5000FF90EF90DF90CF90BF90AF909F908F90B9
:102F60007F906F905F904F903F902F90089581E0F9
:102F70008883552011F0F4015082621410F4F50199
:102F80006082371410F4F60170821415E8F6F70128
:102F90001083DACF0F93DC01802FFD01ED58FF4F36
:102FA00090819923E9F12223D9F1223020F00230D7
:102FB00079F56F5F621B082F0170FD0180FD32C043
:102FC000EB5BFF4F8081481758F13196808148179D
:102FD00038F53297908131978081260F2617F0F4CB
:102FE0006917D8F42FEF290F8217D0F4681708F467
:102FF000682F291708F4922F961BD696ED91FC9115
:10300000D7970480F581E02D292FCD01099508C0BF
:10301000033089F64F5F421BCECF682F691720F32C
:103020000F910895ED5BFF4F80816817C8F33196CB
:1030300080816817A8F73296908131978081240F9C
:10304000241778F4491760F42FEF290F821740F7FF
:10305000481708F4482F291708F4922F941BCDCF56
:10306000482F4917E8F6F2CF213039F020F022300E
:1030700031F0840F0895860F0895841B0895861BF0
:103080000895213039F020F0223031F0861B089568
:10309000840F0895860F0895841B08955F926F92A0
:1030A0007F928F929F92AF92BF92CF92DF92EF92D8
:1030B000FF920F931F93CF93DF935C01162F642E23
:1030C000EC01C15BDF4FDC80ED804C0189E7880EAD
:1030D000911CFE80FD18C12EF11608F4CF2C5B80E8
:1030E0000C85202F4E2D6D2D8A810E943418782E4C
:1030F000202F4E2D6D2D852D0E944118482F6620C2
:1031000071F08A85F40180832C2D672DC5010E9402
:10311000CA171F1548F01F19E394D12CDACF8985FF
:103120008111F7CF8B85EECF1D0D1C83ED82DF91D2
:10313000CF911F910F91FF90EF90DF90CF90BF90B4
:10314000AF909F908F907F906F905F900895DC017B
:1031500018964C911897ED91FC911197249130E0BD
:10316000042E02C0359527950A94E2F7842F860F26
:10317000883068F031961196FC93EE93E49198E0D4
:10318000941B01C0EE0F9A95EAF72E2B88501896E3
:103190008C938FEF9FEF01C0880F6A95EAF78095B7
:1031A00082230895FC01E60FF11D849190E0982F91
:1031B00088273196E4918E0F911D0895CF93DF9368
:1031C00020918805309189052817390709F490C0A6
:1031D000EC019093890580938805FC01849180938C
:1031E00099053196E491E0939A05FE013296E491B7
:1031F000E0939B05FE013396E491E0939C05FE016C
:103200003496E491E0939D05FE013596E491E093B8
:103210009E05FE013696E491E0939F05FE013796E8
:10322000E491E093A005FE013896E491E093A105B6
:10323000FE013996E491E093A205FE013A96E491ED
:10324000E093A305FE013B96E491E093A405FE0103
:103250003C96E491E093A505FE013D96E491E09350
:10326000A605FE013E96E491E093A705FE013F9678
:10327000E491E093A805FE017096E491E093A9051E
:1032800061E1CE010E94D2189093AB058093AA050C
:1032900063E1CE010E94D2189093AD058093AC05F6
:1032A00065E1CE010E94D2189093AF058093AE05E0
:1032B0008091880590918905892BD1F08091A60590
:1032C0008093B2054091A7054093B3059091B10555
:1032D000992371F0913079F49091A805891714F42D
:1032E0009093B2058091A905841714F48093B305D7
:1032F000DF91CF9108953091A3052091A505082E67
:10330000000C990B622F022E000C770B630F711DBE
:1033100037FD7A95861797071CF4320F3093B20564
:10332000241734F72093B305E3CF6F927F928F92E7
:103330009F92AF92BF92CF92DF92EF92FF920F9344
:103340001F93CF93DF93EC01062F142F7901FC011B
:10335000E55AFF4F8081813009F445C0D0F18230B9
:1033600009F44BC0833009F452C0FE01EF5AFF4FFD
:1033700000833196108337978081918147962FEF94
:10338000E216F10411F008F0E6C0E1E6EE16F104F1
:1033900008F447C0FE01E159FF4F20813181820FBF
:1033A000931F9C012F5F3F4FF9014491411142C08F
:1033B000712C872DDF91CF911F910F91FF90EF908E
:1033C000DF90CF90BF90AF909F908F907F906F9045
:1033D0000895FE01E35BFF4F0190F081E02DCE01E7
:1033E0000995180FC2CFFE01E35BFF4F0190F081FA
:1033F000E02DCE010995081BB8CFFE01E35BFF4F1E
:103400000190F081E02DCE010995181BAECFFE0191
:10341000E35BFF4F0190F081E02DCE010995080F8D
:10342000A4CFF1E4EF16F10408F4BBCFFE01E35999
:10343000FF4FB3CFFC0144914E151F0409F086C025
:103440000296009709F4B4CF7E01FFE4EF0EF11C61
:10345000F70191838083108671966081C7010E9475
:10346000A718F701868372966081C7010E94A7188A
:10347000A82EF70187836E01F9E7CF0ED11CF60164
:103480009081F701928781E0911180E0F7018387B5
:10349000FE01EE59FF4FB0806B2DC7010E94A718A7
:1034A000882EFE01ED59FF4F1081612FC7010E9448
:1034B000A718982EFE01EC59FF4F0081602FC7011D
:1034C0000E94A718015041E050E09A0101C0220F6C
:1034D0000A95EAF7782E721AF701068110160CF099
:1034E00068CFBA94CA0101C0880FBA94EAF7881A63
:1034F000B4849A0C115001C0440F1A95EAF7F42FC6
:10350000F9199F2E2B2D4F2F682DF70182810E94D4
:103510003418182FF70182832B2D492D682D8381B4
:103520000E944118F7018383F1E0BF1609F47CC0C3
:10353000BF1608F43FC022E0B21609F47BC093E046
:10354000B91609F482C0082F212F38C0F90124913F
:10355000820F911D26CFFE01EF58FF4F0081118190
:10356000080F191F680160E0C6010E94D218080FF9
:10357000191F62E0C6010E94D218F4E0CF0ED11CE0
:103580008E159F0580F3F801849190E0982F88278D
:103590003196E4918E2B009709F40ACFE816F906CC
:1035A00019F4C80103964DCFF8013296E4910E0F3D
:1035B000111DE9CF202F210F082F0A0D482F612F51
:1035C000CE010E943917882309F4F3CEF701148243
:1035D00015828E01025A1F4F4E01FFE58F0E911C7E
:1035E000F8016081C7010E94A718682EF40160816C
:1035F000C7010E94A718B82E40E0662DCE010E9498
:103600004E1841E06B2DCE010E944E1861E0C701BB
:103610000E94A7188111F0CFF70185818A1504F364
:103620008285F6018083C5CEBA1821E0210F080FEC
:103630001B0DC4CF91E0392F301B21E0210F9A19C7
:1036400001E0080F890F130FB9CF212F2A0D982FF2
:10365000901B01E0080F81E0890FB0CFFF920F931C
:103660001F93CF93DF93C82FD62F109255058A0151
:10367000F12CF80161918F01E0913F05F091400537
:103680008DE395E009958F3F9807F1F08E3F2FEF7E
:10369000920779F39C014D2F6C2F8DE395E00E94EA
:1036A000951990919805913049F030F0923041F0A1
:1036B000933041F0F80EDDCFC80FFCCFD80FFACF12
:1036C000C81BF8CFD81BF6CF8F2DDF91CF911F915C
:1036D0000F91FF90089529E532E130934005209342
:1036E0003F050C942E1BAF92BF92CF92DF92EF92C8
:1036F000FF920F931F93CF93DF9300D000D01F92C0
:10370000CDB7DEB78C01DC01DA96AC90DA97DB96A8
:10371000EC90DB97ED91FC91B188FE2CD12CC12C63
:10372000D801ED91FC9111978089D8962D913C910B
:103730001C82FD828B83B8E08B9FC00111248C9D7D
:10374000A0018D9D500D9C9D500D1124240F351FFF
:103750003A832983D8011496ED91FC919E012F5F45
:103760003F4F41E06FE0C8010995F3948F2D8E190A
:103770008A1528F4BFEFCB1ADB0AFB1488F20F90EE
:103780000F900F900F900F90DF91CF911F910F919D
:10379000FF90EF90DF90CF90BF90AF9008958DE3B2
:1037A00095E00E94731B8DE395E00C941115CF9268
:1037B000DF92EF92FF920F931F93CF93DF93EC0171
:1037C000962F683109F44BC0B901993130F4943126
:1037D000C9F0973189F080E006C0993109F461C0E1
:1037E0009032C9F781E0DF91CF911F910F91FF9047
:1037F000EF90DF90CF90089550E081E293E00E9437
:10380000AE14F0CF8C859D85AE85BF85892B8A2B24
:103810008B2B71F4E881F981A585B0E020EA36E8C8
:1038200041E050E00E947F256C877D878E879F87CF
:1038300010929402109293021092960210929502A6
:103840000E94431482E894E19093BE028093BD02EB
:1038500083E894E19093C2028093C102C3CF2C8588
:103860003D854E855F8560E074E284EF90E00E94C4
:10387000D025205131094109510956954795379571
:1038800027952093B8008E8990E09595879591E0D3
:1038900090937202809350021092960210929502B9
:1038A000A1CFD0919502D13208F093C0C0915002BF
:1038B0000E94C4136B017C018091E502811164C0F8
:1038C00082E08093E50281E08093E7028FEF8093AE
:1038D000E40210920903D0930803A2E5B2E0E8EEF7
:1038E000F2E080E0D8137CC010920A0380910A03B2
:1038F000CC0FC82BC0930A038091E602813009F0F7
:1039000073C01092E6020E94C4136B017C01809187
:103910000A038093BB008091980290919902A09134
:103920009A02B0919B02892B8A2B8B2B99F00E94D3
:10393000C413009198021091990220919A0230913B
:103940009B026C197D098E099F0906171707280726
:103950003907D8F18091BC0083FDD9CF85EC8093E5
:10396000BC000E94C4136B017C018091E50282308F
:10397000E9F18091E4028F3F61F18091E4028032AD
:1039800041F18091E40225C08091980290919902C2
:10399000A0919A02B0919B02892B8A2B8B2B09F460
:1039A0008BCF0E94C413009198021091990220912C
:1039B0009A0230919B026C197D098E099F090617A6
:1039C00017072807390708F077CF809197020E94E0
:1039D000611410929602109295021092720202CF18
:1039E0009D9191938F5F7ECF85EEB9CF80919802A4
:1039F00090919902A0919A02B0919B02892B8A2BF7
:103A00008B2B09F4B2CF0E94C4130091980210913D
:103A1000990220919A0230919B026C197D098E09BE
:103A20009F09061717072807390708F09ECFCDCF43
:103A30000F931F93CF93DF938C01C62F642FCC324B
:103A4000E8F4CA3208F041C0C83271F1C93209F451
:103A500042C080E0C034D0F1CF73F801EC0FF11D0B
:103A6000868D8F3F91F1C031E0F00E94211321E05B
:103A7000892B09F420E0F801218F27C0CD3289F18C
:103A800040F384EB8C0F823020F7CF73C00FD12F1F
:103A9000D11D8E8D411133C061E00E94881360E01A
:103AA0008E8D0E944A1311C0025E1F4FD0E0F801B4
:103AB00081918F018F3F31F061E0D03108F062E0F9
:103AC0000E948813DF5FD63191F781E0DF91CF91BB
:103AD0001F910F91089570E090E080E00E94E9133B
:103AE000F4CF85E090E0433010F082E090E0880F62
:103AF000991F880F991F05970197F1F7E6CF62E0AC
:103B00000E948813E2CF789443EA51E0019711F0C4
:103B100045EA51E060E28EE60E946B1B0E94CF1BDB
:103B2000F8940895CF93DF930E94781360E081E1C9
:103B30000E944A130E94781360E089E00E944A13B1
:103B400088E00E942113EC0161E089E00E944A13A1
:103B500061E081E10E944A13CE01DF91CF91089587
:103B6000CF93C42F0E94781360E081E10E944A1332
:103B700060E080E10E944A136C2F8FE00E944A139C
:103B80000E94781360E089E00E944A1361E080E1BE
:103B90000E944A1361E089E00E944A1361E081E1DA
:103BA000CF910C944A13CF92DF92EF92FF920F9332
:103BB0001F93CF93DF936C01EB017B01E40EF51EA5
:103BC00010E000E0CE15DF0561F06991D601ED91BE
:103BD000FC910190F081E02DC6010995080F191F95
:103BE000F1CFC801DF91CF911F910F91FF90EF901E
:103BF000DF90CF900895CF92DF92EF92FF920F93D4
:103C00001F93CF93DF93EC016C0124E0C20ED11C13
:103C1000FC01E158FF4F0190F081E02DC6010995AC
:103C20008E3FEFEF9E07C8F48E010E571F4F7E01A7
:103C3000F1E8EF0EF11C9C01F8014081F701608171
:103C4000C6010E949519C15ADF4F98819130A9F0A1
:103C500078F09230A1F09330B9F081E090E0DF91FC
:103C6000CF911F910F91FF90EF90DF90CF9008952B
:103C7000F7019081890F8083F0CFF801FACFF70127
:103C80009081981B892FF7CFF801FACF089590E023
:103C900080E00895FC0180819181009711F00C94DF
:103CA00094260895EF92FF920F931F93CF93DF9383
:103CB000EC017B018A0188819981009729F02A8192
:103CC0003B812417350788F4B8016F5F7F4F0E944E
:103CD0001D27009791F0998388831B830A832C8189
:103CE0003D81232B11F4FC0110821D830C83B7014D
:103CF000888199810E94EA270CC088819981009768
:103D000011F00E949426198218821D821C821B8247
:103D10001A82CE01DF91CF911F910F91FF90EF900A
:103D20000895FC011182108213821282158214827E
:103D3000FB0101900020E9F73197AF01461B570BBB
:103D40000C94521E85ED8093BC0080919802909156
:103D50009902A0919A02B0919B020796A11DB11DF4
:103D600023E0B695A795979587952A95D1F7209149
:103D7000BC0024FD03C01092E50208954091980212
:103D80005091990260919A0270919B02452B462BAB
:103D9000472B69F30097A105B10541F025E32A956A
:103DA000F1F700000197A109B109E1CF80919702D5
:103DB0000C946114FC01A081B18150962C9182ADCC
:103DC00038E0839FC0011124289FA001299F500D36
:103DD000112470E060E080AD91AD0C94E327CF93A7
:103DE000DF93EC018DE395E00E94DA1E8BE39EE108
:103DF0000E94DE1884E08093BA0580E18093BB05C1
:103E00004C815D816881798189E395E00E94D31DB1
:103E100082EC90E00E94DE1880911E03813089F0D0
:103E200028F0823059F0DF91CF91089548EC51E0AD
:103E300060E284E0DF91CF910C946B1B47EA51E084
:103E4000F7CF80911503909116034CEA51E0892B2E
:103E500079F342EB51E0ECCF8DE395E00E94DA1E5E
:103E60008BE39EE10E94DE1847EB51E060E188E0C1
:103E70000E946B1B82EC90E00E94DE1880911E0372
:103E8000813079F020F0823049F00C94CF1B43EC64
:103E900051E060E284E00E946B1BF7CF4CEC51E0F4
:103EA000F8CF809115039091160345ED51E0892BD1
:103EB00081F34CED51E0EDCF0F931F93CF93DF9340
:103EC000CDB7DEB7A7970FB6F894DEBF0FBECDBF54
:103ED0008C0120911F03309120031BA21AA21DA266
:103EE0001CA21FA21EA2072E000C880B990B04C057
:103EF000660F771F881F991F2A95D2F7012E000C95
:103F0000220B330B600F711F821F931F20E18E0164
:103F10000F5F1F4FA8010E943725F8010190002074
:103F2000E9F73197AF01401B510BB801CE018296E2
:103F30000E94521E78948DE395E00E94DA1E8BE376
:103F40009EE10E94DE1847EB51E060E188E00E94AC
:103F50006B1B82EC90E00E94DE1842EE51E060E2C2
:103F600084E00E946B1B4AA15BA160E286E40E9490
:103F70006B1B0E94CF1B81E0809314038CE00E9496
:103F80002113892BD9F38CE00E9421130197D9F3D7
:103F90006CE271E080E090E00E94E913CE0182962D
:103FA0000E944A1EA7960FB6F894DEBF0FBECDBF83
:103FB000DF91CF911F910F910895CF92DF92EF92F1
:103FC000FF920F931F93CF93DF93F12CE12CD0E05E
:103FD000C0E0CC24C394D12C80911F039091200386
:103FE000960102C0220F331F8A95E2F7C217D3074A
:103FF0008CF5C7010E94831D10E000E080911F0333
:1040000090912003960102C0220F331F8A95E2F798
:1040100002171307DCF450E040E0BE01C8010E9423
:10402000B01DBE01C8010E94921D892B61F0BE0126
:10403000C801DF91CF911F910F91FF90EF90DF901A
:10404000CF900C945C1F0F5F1F4FD8CF31E0E32659
:104050002196C2CFDF91CF911F910F91FF90EF90EA
:10406000DF90CF900895AF92BF92CF92DF92EF9200
:10407000FF920F931F93CF93DF93D12CC12CD0E0ED
:10408000C0E0F12CE12CAA24A394B12C80911F0351
:1040900090912003950102C0220F331F8A95E2F709
:1040A000C217D307ACF5C6010E94831D10E000E0E3
:1040B00080911F0390912003950102C0220F331FAE
:1040C0008A95E2F702171307FCF4A701BE01C801A5
:1040D0000E94B01DBE01C8010E94921DE816F9069B
:1040E00071F0BE01C801DF91CF911F910F91FF9038
:1040F000EF90DF90CF90BF90AF900C945C1F31E0B9
:10410000E3260F5F1F4FD4CF81E0C8262196BECF94
:10411000DF91CF911F910F91FF90EF90DF90CF90A3
:10412000BF90AF9008951F920F920FB60F92112477
:104130002F933F938F939F93AF93BF9380911003DF
:1041400090911103A0911203B091130330910B03CE
:1041500023E0230F2D3758F50196A11DB11D2093A3
:104160000B038093100390931103A0931203B09359
:10417000130380910C0390910D03A0910E03B09155
:104180000F030196A11DB11D80930C0390930D03A5
:10419000A0930E03B0930F03BF91AF919F918F91A6
:1041A0003F912F910F900FBE0F901F90189526E80A
:1041B000230F0296A11DB11DD2CF1F920F920FB6F1
:1041C0000F9211242F933F934F935F936F937F939D
:1041D0008F939F93AF93BF93EF93FF938091B90019
:1041E000887F803609F44AC0F0F5883209F4A7C008
:1041F00018F5803109F49BC0B8F4882309F4F9C09C
:10420000883009F494C0FF91EF91BF91AF919F91D5
:104210008F917F916F915F914F913F912F910F906F
:104220000FBE0F901F901895883109F488C0803216
:1042300051F78093E40214C0803409F49DC040F427
:104240008033B9F38833F9F68093E40285ECB0C08B
:10425000803509F485C0883509F496C0883499F60C
:104260000E94A21ED0CF883909F48CC038F5883757
:1042700029F050F4883611F0803729F683E08093D6
:10428000E5021092E30257C0883809F47BC08039F8
:1042900019F0803809F0B7CF8091E302803208F03E
:1042A00071C0E091E30281E08E0F8093E302809180
:1042B000BB00F0E0ED53FD4F80833DC0803B39F003
:1042C000E0F4803A09F479C0883A09F09CCF84E0A0
:1042D0008093E5021092C0021092BF02E091BD02ED
:1042E000F091BE0209958091BF0281110FC081E05B
:1042F0008093BF0210929D0209C0803C09F4A6CFB2
:10430000883C09F4A3CF883B09F07DCFE091C0023F
:1043100081E08E0F8093C002F0E0E356FD4F808174
:104320008093BB009091C0028091BF0229C0809110
:104330000A038093BB0085EC8093BC0064CF90910E
:10434000090380910803981758F5E091090381E06B
:104350008E0F80930903F0E0E851FD4F8081E9CF93
:10436000E091090381E08E0F809309038091BB00E7
:10437000F0E0E851FD4F808390910903809108039C
:104380009817C8F285E8D8CFE091090381E08E0F35
:10439000809309038091BB00F0E0E851FD4F8083DA
:1043A0008091E70281115CCF81E08093E60284EA8C
:1043B0008093BC001092E50226CF85EC8093BC0070
:1043C0001092E5028091E302803230F4E091E30242
:1043D000F0E0ED53FD4F10826091E30270E0E09158
:1043E000C102F091C20283EC92E009951092E302BF
:1043F0000ACF1092E40234CFCF931092240310928C
:10440000230388EE93E0A0E0B0E08093250390932F
:104410002603A0932703B093280383E891E09093A9
:1044200022038093210310923C0510923B0589E5FD
:1044300092E19093B9058093B8051092BA05109255
:10444000BB051092550585E991E090933A0580935C
:10445000390510923E0510923D05109252051092BA
:10446000490510924A0510924B0510924C058FEFAA
:104470008093530580935705EBE5F5E081E795E0E0
:10448000CFEFC1938E179F07E1F781E995E19093F4
:1044900042058093410580E896E19093440580931E
:1044A000430587ED9BE1909346058093450588E1A0
:1044B0009DE1909348058093470530E020E040E07F
:1044C00069E08DE395E00E949115109289051092A4
:1044D000880583E692E190937205809371058DE2E1
:1044E00093E0909376058093750584E0809377053B
:1044F00010927805109295051092B50581E0809391
:10450000B6058093B7058DE991E09093740580938B
:1045100073058DE395E00E94F616109284051092C3
:104520008605C0938505C0938705E0917305F091DA
:1045300074050280F381E02D8DE395E0099586EC0A
:1045400092E190938B0580938A0510929805C09311
:104550006605C0936705C093680563EA71E08DE264
:1045600095E00E94911E65EA71E083E395E0CF91AA
:104570000C94911ECF93DF9300D000D000D0CDB724
:10458000DEB7789484B5826084BD84B5816084BDD3
:1045900085B5826085BD85B5816085BD80916E00E1
:1045A000816080936E001092810080918100826012
:1045B000809381008091810081608093810080914F
:1045C00080008160809380008091B100846080933E
:1045D000B1008091B00081608093B00080917A003A
:1045E000846080937A0080917A00826080937A0060
:1045F00080917A00816080937A0080917A0080684F
:1046000080937A001092C100E0914105F09142053B
:1046100030E020E040E06AE08DE395E0099580918C
:10462000B705882321F08DE395E00E94DA1E80E033
:104630000E94C8128DE395E00E94731B10917805CB
:1046400080917705180FE0913D05F0913E05818935
:10465000181708F4CEC18DE395E00E94111580E093
:104660000E94C812E0914105F091420530E020E03F
:1046700040E06BE08DE395E009950DE611E03FE742
:10468000E32E31E0F32EF80180810E5F1F4F61E0D1
:104690000E948813E016F106B1F761E089E00E94FC
:1046A000881361E081E10E94881361E080E10E944B
:1046B000881361E08FE00E94881360E08CE00E9424
:1046C000881360E088E00E94881361E080E10E9426
:1046D0004A1361E081E10E944A1361E089E00E948F
:1046E0004A1390E080E00E94692590E090931603C1
:1046F00080931503029724F010921603109215036D
:104700000E94DF128A3091050CF47DC1883C91052E
:104710000CF47BC182E080931E0380931D030E94F2
:104720002C1F00E010E088E0E82EF12C99E0C92E63
:10473000D12C27E0A22EB12C0E94DF128A309105E5
:104740000CF465C1883C91050CF463C182E0809350
:104750001E0390911D03981721F080931D030E9462
:104760002C1F8CE00E94211390931C0380931B0349
:10477000209100013091010121303105C9F4892BCC
:10478000B9F42FB7F8948091100390911103A09180
:104790001203B09113032FBF809317039093180354
:1047A000A0931903B0931A03109201011092000113
:1047B0008091000190910101892B09F00DC1809138
:1047C0001B0390911C038130910509F03EC090932A
:1047D0000101809300012FB7F8944091100350918C
:1047E000110360911203709113032FBF40901703C0
:1047F000509018036090190370901A0344195509DA
:10480000660977094C3D554061057105BCF420915E
:104810001E03213099F42091150330911603232BA8
:1048200009F0F9C090931603809315036091150366
:1048300090E080E00E9471250E942C1F8091000171
:1048400090910101892B09F0C7C080911B039091C1
:104850001C03892B09F0C0C02FB7F8948091100376
:1048600090911103A0911203B09113032FBF4091B7
:104870001703509118036091190370911A03841B58
:10488000950BA60BB70B8D3D9540A105B10508F41E
:10489000A3C01092140380911E03882309F49CC0C6
:1048A0008DE395E00E94DA1E8BE39EE10E94DE1804
:1048B0004BEE51E060E188E00E946B1B82EC90E0DF
:1048C0000E94DE1880911E03813009F4A9C0823055
:1048D00051F447EA51E060E284E00E946B1BB09221
:1048E0002003A0921F030E94CF1B7894F8940E948B
:1048F000332080911403811112C065EF71E0CE0165
:1049000001960E94911ECE0101960E94EF1ECE01DB
:1049100001960E944A1E7894F8940E943320809158
:104920001403811112C06FEF71E0CE0101960E9455
:10493000911ECE0101960E94EF1ECE0101960E94AB
:104940004A1E7894F8940E94DD1F8091140381110F
:1049500012C069E072E0CE0101960E94911ECE0164
:1049600001960E94EF1ECE0101960E944A1E789485
:10497000F8940E94DD1F78948091140381116CC01B
:104980008DE395E00E94DA1E8BE39EE10E94DE1823
:1049900043E152E060E186E00E946B1B82EC90E014
:1049A0000E94DE184FE152E06EE18CE00E946B1B2A
:1049B0000E94CF1B8CE00E942113892BD9F38CE03D
:1049C0000E9421130197D9F30E942C1F6CE271E021
:1049D00080E090E00E94E91364E670E080E090E0FF
:1049E0000E94E9130115110509F4A6CE0E940000EA
:1049F000A3CE8091B705882321F08DE395E00E9436
:104A0000DA1E812F15CE80E086CE81E084CE80E054
:104A10009ECE81E09CCE109216031092150306CF15
:104A20008091150390911603892B59F44CEA51E0BB
:104A300060E284E00E946B1BD0922003C0921F03AF
:104A400052CF42EB51E060E284E00E946B1BF09297
:104A50002003E0921F0347CF0E942C1FBDCF83E3AA
:104A600095E00E944A1E8DE295E00C944A1EBB27F9
:104A7000FA01A62F6217710581059105330B30FBF2
:104A800066F0AA27660F771F881F991FAA1FA21713
:104A900010F0A21B63953850A9F7A05DAA3308F067
:104AA000A95DA19336F7B111B1931082CA010C949C
:104AB0005925DC01FC01672F71917723E1F73297CB
:104AC00004C07C916D9370836291AE17BF07C8F3E9
:104AD0000895F999FECF92BD81BDF89A992780B5C6
:104AE0000895262FF999FECF1FBA92BD81BD20BD32
:104AF0000FB6F894FA9AF99A0FBE019608950E949B
:104B0000C125A59F900DB49F900DA49F800D911D70
:104B1000112408952F923F924F925F926F927F924D
:104B20008F929F92AF92BF92CF92DF92EF92FF92BD
:104B30000F931F93CF93DF93CDB7DEB7CA1BDB0B69
:104B40000FB6F894DEBF0FBECDBF09942A8839880E
:104B500048885F846E847D848C849B84AA84B98415
:104B6000C884DF80EE80FD800C811B81AA81B98121
:104B7000CE0FD11D0FB6F894DEBF0FBECDBFED0135
:104B80000895A29FB001B39FC001A39F700D811D26
:104B90001124911DB29F700D811D1124911D089546
:104BA000A1E21A2EAA1BBB1BFD010DC0AA1FBB1F31
:104BB000EE1FFF1FA217B307E407F50720F0A21BA3
:104BC000B30BE40BF50B661F771F881F991F1A9410
:104BD00069F760957095809590959B01AC01BD013A
:104BE000CF010895EE0FFF1F0590F491E02D099479
:104BF0000F931F93CF93DF938230910510F482E0DF
:104C000090E0E091BE05F091BF0530E020E0B0E01B
:104C1000A0E0309799F42115310509F44AC0281B0A
:104C2000390B24303105D8F58A819B8161157105D6
:104C300089F1FB0193838283FE0111C04081518180
:104C40000281138148175907E0F04817590799F472
:104C5000109761F012960C93129713961C9332964C
:104C6000CF01DF91CF911F910F9108950093BE0561
:104C70001093BF05F4CF2115310551F042175307AA
:104C800038F0A901DB019A01BD01DF01F801C1CFB4
:104C9000EF01F9CF9093BF058093BE05CDCFFE0104
:104CA000E20FF31F819391932250310939832883B6
:104CB000D7CF2091BC053091BD05232B41F4209125
:104CC0000401309105013093BD052093BC0520916E
:104CD0000201309103012115310541F42DB73EB792
:104CE0004091060150910701241B350BE091BC0552
:104CF000F091BD05E217F307A0F42E1B3F0B281718
:104D0000390778F0AC014E5F5F4F2417350748F044
:104D10004E0F5F1F5093BD054093BC058193919347
:104D20009FCFF0E0E0E09CCFCF93DF930097E9F0D6
:104D3000FC01329713821282A091BE05B091BF058B
:104D4000ED0130E020E01097A1F420813181820F45
:104D5000931F2091BC053091BD052817390709F034
:104D600061C0F093BD05E093BC05DF91CF9108953C
:104D7000EA01CE17DF07E8F54A815B819E01411504
:104D80005105B1F7E901FB83EA8349915991C40FB9
:104D9000D51FEC17FD0761F4808191810296840F85
:104DA000951FE90199838883828193819B838A83FC
:104DB000F0E0E0E012968D919C9113970097B9F581
:104DC0002D913C911197CD010296820F931F209156
:104DD000BC053091BD052817390739F6309751F5D4
:104DE0001092BF051092BE05B093BD05A093BC05FF
:104DF000BCCFD383C28340815181840F951FC817D4
:104E0000D90761F44E5F5F4F88819981480F591F20
:104E1000518340838A819B8193838283211531054D
:104E200009F0B0CFF093BF05E093BE059ECFFD0122
:104E3000DC01C0CF13821282D7CFB0E0A0E0E3E262
:104E4000F7E20C948C258C01009751F4CB010E9461
:104E5000F8258C01C801CDB7DEB7E0E10C94A82598
:104E6000FC01E60FF71F9C0122503109E217F307FE
:104E700008F49DC0D901CD91DC911197C617D707D1
:104E800098F0C530D10530F3CE0104978617970707
:104E900008F3C61BD70B2297C193D1936D937C93D4
:104EA000CF010E949426D6CF5B01AC1ABD0A4C01FB
:104EB0008C0E9D1EA091BE05B091BF05512C412CBA
:104EC000F12CE12C109731F58091BC059091BD0536
:104ED0008815990509F05CC04616570608F058C0B9
:104EE0008091020190910301009741F48DB79EB724
:104EF0004091060150910701841B950BE817F907B3
:104F000008F055C0F093BD05E093BC05F90171832D
:104F10006083A0CF8D919C91119712966C901297FF
:104F200013967C901397A815B90559F56C0142E0CA
:104F3000C40ED11CCA14DB0420F1AC014A195B0970
:104F4000DA011296159780F0628273825183408352
:104F5000D9016D937C93E114F10471F0D70113969C
:104F6000FC93EE93129776CF22968C0F9D1FF9013A
:104F700091838083F301EFCFF093BF05E093BE05EB
:104F800069CF4816590608F42C017D01D3019ACF48
:104F9000CB010E94F8257C01009749F0AE01B801D1
:104FA0000E94DA27C8010E949426870153CF10E09F
:104FB00000E050CFFB01DC0102C001900D92415096
:104FC0005040D8F70895DC0101C06D934150504026
:104FD000E0F70895FB01DC0101900D920020E1F75C
:104FE000089512E1CEE2D2E104C0FE010E94F22552
:0C4FF0002196CF32D107C9F7F894FFCF0B
:104FFC0001000000C00580001815A015C019FF188D
:10500C0015A115C819FF1815AE19FF1815AF19FF02
:10501C001815AE15D5168015A8161F15D316001524
:10502C0040158D16141520160015A115C815DA1685
:10503C00021581168F15D916F115DB1640152E1594
:10504C00A415A619FF0001140A6464323200127A06
:10505C00000004289610040000800020000A0002C2
:10506C00000B00060005000400070003000E000002
:10507C00000000DB14AE14471E8414A7149414858E
:10508C001400000000FB1DD31D471E461EF61660C3
:10509C0017EA165C002F003E31366B003E32353677
:1050AC006B003E36346B004452414D2D54455354E5
:1050BC0045520020204F4646202020003431313606
:1050CC002031366B003235364B78310036344B7824
:1050DC0031004572722E206F6E200054657374205F
:1050EC006E6F2E310054657374206E6F2E32005427
:1050FC00657374206E6F2E330054657374206E6F5D
:10510C002E340054455354205041535345440070A1
:0C511C007265737320737461727400007C
:00000001FF
