:100000000C942F120C9457120C9457120C945712F4
:100010000C9457120C9457120C9457120C945712BC
:100020000C9457120C9457120C9457120C945712AC
:100030000C9457120C9457120C9457120C9457129C
:100040000C9427200C9457120C94F51F0C94CF1F7E
:100050000C9457120C9457120C9457120C9457127C
:100060000C9471200C94571200000000240027000B
:100070002A0000000000250028002B0000000000DE
:1000800023002600290004040404040404040202DA
:100090000202020203030303030301020408102007
:1000A0004080010204081020010204081020000012
:1000B0000008000201000003040700000000000027
:1000C0000000E90003020405040506101100FD0A02
:1000D000FD0BFF019C034904D820060090A70021D6
:1000E00008B118A6384402220834F6A6884C012329
:1000F0000E8632A6895A86256A1996A8052414B751
:10010000F2A50B07258AA43049D7248CA4CA2066FF
:10011000002511A712A609952829B5C669D4524A07
:10012000C4042612A712A611A32CCAA250D5A4A4B7
:100130001655222D270631F8A618280CC3F6A54A15
:10014000A224EA2DCA02290DC3F6A5C8A22CEA25CD
:100150004A22002A0D7772A62B55DAB6A4A9960179
:100160002B0C7732A68B6BC390C535002C0952B887
:10017000A5189244012D071792A638042E072218BD
:10018000A618022F0CA712A64EE3B49C96D31830E3
:100190000DA712A6DA2AA9AF49964D00310DA71274
:1001A000A64BC5248BE2DE8621320CA712A6199439
:1001B00054EDE76108330FA712A638C4697507E24A
:1001C000584D06053411A712A64DC5248B6A4998CF
:1001D0000C431A57003510A712A638C8952111E311
:1001E000B29A0C0A003610A712A61AA234AE0C89D5
:1001F000A85A934101370FA712A638C4699CC66953
:100200009CC621003811A712A6DA2A6992655B25DF
:1002100055932C9B003910A712A61994D45119920A
:10022000B81A0D11003A087218A618E2213B0BA269
:10023000B8A518E2214914003C09A514A6CC3AA699
:100240001D3D0A4752A638E48443003E0AA514A681
:10025000483B661D013F0EA712A61994548DD3E6A4
:100260001CCE004012A712A61994D4342899124D1E
:100270008A9C038302410DA712A64B93AC925A8726
:10028000AB354212A712A618A43049C56490C22407
:1002900035268304430DA712A6199454EE6B322819
:1002A00000440EA712A618A43049FD980C12004570
:1002B0000DA712A638C8E5418A9B8721460CA712D4
:1002C000A638C8E5418A3B03470FA712A6199454E4
:1002D0006E1B526B322800480BA712A6485D87ABF5
:1002E000D700490BA514A618A4B09F06014A14A86C
:1002F00012A61BD41CC8811CC8811CC88128CC86AE
:100300000C4B12A712A648C5248B6A6312465929C2
:100310004CD2004C0AA712A688FBF330044D10A75C
:1003200012A648D56DA92815299222D51A4E0FA7D5
:1003300012A648D551C9A4484BC4D51A4F0CA712D0
:10034000A61994D45F934101500DA712A6B8A4D664
:100350006148E2CE00510FC7D2A51994D42F995409
:1003600019D41C105210A712A6B8A4D66148A2AC8A
:100370001426A91A5311A712A61994D40EEC800EB4
:10038000A86A322800540AA712A63864717F035560
:100390000BA712A648FD6B3228005612A712A648DA
:1003A000AD49166551560993304933005710A712CD
:1003B000A6483D4552244552A4744B005810A7123C
:1003C000A648D524ABA4719A6495540D590DA71273
:1003D000A648D524ABA4716F005A0CA712A638C446
:1003E000699FE361085B0AC4F6A518B4FE6D085C5A
:1003F00011A712A6C88138077220CE811C887320ED
:100400005D0AC4F4A518B2FE6D105E0A47D2A64B71
:1004100093AC92065F0718F0A5380860073316A75B
:10042000C80A610F7712A61974204E8621159521EE
:1004300009620FA712A6885B864454ADA33224003C
:10044000630C7712A61994546E4D0605640DA7121D
:10045000A66E19127175548624650E7712A619942A
:10046000541DCE39302800660EA712A6DB4A591457
:1004700087831837026714A7B2A519123109933080
:100480001AA21C1894544D0605680CA712A6885B86
:10049000864454BD06690AA514A6D1D1B1A7416A04
:1004A0000ED6B2A5D4296B57D1980C09006B0FA7B3
:1004B00012A6885B3525D1D444CB94346C09A5149D
:1004C000A618FBD3206D107712A6589428922229E3
:1004D00092222952036E0B7712A648864454BD0619
:1004E0006F0C7712A61994D46B322800700FA7B244
:1004F000A548864454ADA332247119710DA7B2A545
:10050000191271755486246E720C7712A688262DE6
:100510000993B815730F7712A619945407061D5046
:10052000934101740D9712A68AC3618BBB650B00C2
:1005300075117712A60893300993300993301A92F7
:1005400000760F7712A648D5248BB24A98A41900DA
:10055000770E7712A6484D91144991D22D01780D4E
:100560007712A64893AC9256B24A1A790DA6B2A554
:10057000087D5396544C86047A0B7712A638A4BD96
:100580000E43007B0DC5F6A55AC26AA4A959581D91
:100590007C07C1F8A5F8007D0EC5F2A558C35AAA7C
:1005A00049695899007E0A37F2A6D1A44853000041
:1005B000000004FFFF4E24230ED5C1D5512D1C0E83
:1005C0003AA0A3523CDC111D5593E141156551162B
:1005D0006551968658D3011D4E2A290FD3C1CEB13D
:1005E0004C87EC98A263911A0D0FB2A803A23C6449
:1005F000B222C992A26A912A8B3AA0A943A44319B4
:10060000004E2D290FD3C11375409492E19BA8038E
:100610008A1DD3D2E1A0233A36DC21351A1E64515B
:1006200007441D50061D907644074E3A370FD3C13C
:100630001A327188122D93860F8A4D524C43320C18
:10064000D290B82492629386414B4A4A36484B2452
:1006500065431225D2304899A22592340C913A2450
:10066000004E3B280FD3C1AB63764494D5288C86CB
:10067000D38EEE409628A9A868AA6495A4588A64E7
:100680003507C4DAF010E528004E48350FD3C1CC49
:10069000A470888665C824518B944C1A3E6BDA305E
:1006A00044430E4883320CD1124789988489940CB4
:1006B00049A6581249312591120D5B3C44004E4B1E
:1006C000350FD3C187921CB36489920D83A6448AE7
:1006D0002629A6411912294D8CE1323C284AA22430
:1006E00043221D064D1B126548863851121D98760F
:1006F000244C004E5D2A0FD3C1CAB16C7888744473
:10070000D3116D78D3917078B3C492964AC3102AEE
:100710004A245AD2681834558EB5241A1E4E5F26C4
:100720000FD3C1D474449392E1A3A6235A920E0727
:100730001DD1611DF859477770D021636654C4E11B
:100740000E5C004E662A0FD3C1CAA1501A064DD4C2
:1007500001518A86074D54448BA8448AB80C272D32
:100760008DB6E1CD92683E6DC3908569024F462DEE
:100770000FD3C1D2A45499A44891864919A6E1A2E5
:100780004491E2A8382A8E8ADBB09886C429F1A861
:10079000583625AA44431A4971184F4D280DD5C122
:1007A000CB8150192E4AA67852A42453A45951C67D
:1007B000285B646D38486E924D99D42507B4218B1F
:1007C00035004F532F0FD3C1CA8C9AA264CA7088C8
:1007D00034454D92E18B53321CA4C49764B80C91FC
:1007E000324A8BAC1C93411922C54B14294A390A51
:1007F000014F5C290FD3C1CDC14CCC869F5229310A
:10080000A68A9403AF928E8462343CA88A8E293AD9
:10081000A688A9224A87415187054F602F0FD3C16F
:10082000CA09529C49C3C9A80C83A849A27418A438
:100830002111A5610895441995441A064D123549B0
:10084000D42451938641AB4600505A310FD3C1C9CD
:10085000A13447C42D1A958AB22A8B124A91222DAF
:1008600092A20CC922264A3264CA944CD1A84CAA3E
:1008700032A98A365CB41C887214513F280FD3C148
:10088000D474449392E1A3A623610E3CC89A0E88C7
:10089000F2F018EEE090638A0ED9114DD68650071B
:1008A00052005143340FD3C1CB09872C93B2414A34
:1008B000061D48A2448B12A5322C529269C345DA18
:1008C000116989322551064953A2CC12659621B38C
:1008D00044D1964311005145350FD3C147A26C98BE
:1008E000143189164D3155942119166590A46191E2
:1008F000D46518A42191C4219134451906C5498BAA
:100900001449CA1449C9966110A31C514632FFD23A
:10091000C18C86211926455234455234455226450C
:100920005994C4B22843322CCA900C8BB42CA6E53F
:10093000A02992A2293AA6E898A223C301514827E8
:10094000FFD2C14987215215D12286929A49D2F00D
:10095000491ED5211407D1222A89242E9A36856270
:100960003CE4A8065149270FD3C107C3E11DD1219B
:1009700069582535193EE604314786411D72201C11
:100980001EA226C5A72E3A38E4A804514B320FD335
:10099000C1D9E11D4994683888A9225A9461506CE4
:1009A000A32249C3321C1453A2448A344C8A94288B
:1009B00091220D93224A89711814758A0051652A73
:1009C0000FD3C1CE295A38BCD681211AB3488B86A1
:1009D00007451EB52156C6501E326D8895359307C2
:1009E000291CD268C8110051682C0FD3C187E21CA2
:1009F00011C561C8C42C4C1535E9367CD2C4CCB4C1
:100A000069831469A2A42492380D4AB4A55216CE63
:100A1000D19001516B250FD3C1CE093AAC439996C1
:100A20000E0751B24A56C92A5992E1F30E2A3AA446
:100A3000E9803AEAC01D4C00516C290FD3C1D6A100
:100A40004C4B8783285925DBF071D181211B95E11F
:100A50004991125152AAC34187226DB8E8E80E6746
:100A60000051732B0FD3C109D33094363151A56196
:100A70005072448D42255392619092540752599579
:100A800092D27048645556577595631151762B0F65
:100A9000D3C10B7348DAB245192645B2482E8B24D0
:100AA0002D2617C9457291164991944919A64C599A
:100AB00064259355594D0152292C0FD3C1D4744448
:100AC0009392E1A3A603610E693AA08991A20C87D3
:100AD000440A352991CC8A32889114A6666588B774
:100AE0001CCA00522B330FD3C18AB34C49868BA545
:100AF0006518324919B2A4494C2AC3902D99A88887
:100B0000D33064CBA226C930488A63140D43122B1C
:100B10003A360C3A9003523031FFD2C10893611A31
:100B200086504A9428D112A575D8A424518683A250
:100B3000648A326C4A942899AC8AC3264B913C242F
:100B4000893864431AAB005236260FD3C1877282AC
:100B50009885E2B0898A6811A544191E14D1225AD9
:100B60004471102DA998233AACC33A9C02523727FE
:100B70000ED5C1CD611D08C568784834D3F0A4995D
:100B800086A750CC012D87941D1974684B8749DACC
:100B9000863BB000524D290FD3C1CC097728CCA198
:100BA000612764C9F0A52D49B7411B1425DE062D28
:100BB0006951526D88452919BE89B22A02526A2BA1
:100BC000FFF2C187E23053226938448A2C65A2982B
:100BD0000DD3B048A22689DA306A92A80DA39248B4
:100BE000E264DB24311A0E0153412D0FD3C119DE0B
:100BF0009168C7C468785034511A1E224D94868774
:100C00004813A53631316689322DA67050D4288913
:100C1000863B70C80053431F0FD3C1CAB16C78889C
:100C200034FF36BCF96FC39B9F444D1235298D8626
:100C300024072300534E350FD3C1C9C238D25429DB
:100C40001BA46418724CC9922CC90645699392641E
:100C500050D42491D22891A4291906454A244D3113
:100C6000694A6453925B92D50053552F0FD3C187C5
:100C700006291C4659CA94E110A53B900DDA20259F
:100C8000CA244552A6C4A1340C9A49D414754834D8
:100C900069884445CC86D4025357310FD3C14B7376
:100CA00044D4015156A54C498641912C52A429CADD
:100CB000202A52222A9A92299A62B22C92324449CC
:100CC00026A59A0E483B906600535A220ED5C1C7FE
:100CD000D2E190233AAAA33A2A26C383ACA33AAA24
:100CE000A33AAAA33AAA63438EE60053612B0FD31B
:100CF000C1D6611D5C7444DD7468888641CA913038
:100D00001C86CCA4D886C52629B661B1498A2D1384
:100D1000B5689BC234025370300FD3C1CD816418C3
:100D20009261086529923249914C83B4688916A969
:100D3000EA38265AA2299222591665922229536529
:100D40006D08875096005374300FD3C1D391501B58
:100D5000864C4A2CC341112D9A9628D970102745EC
:100D600089124991B261915C2497451A169BA44857
:100D700099B2C85216025427300FD3C19292301B39
:100D80001E924C91948AA46C9B14468A3869C33491
:100D90001C5225931565966AD9F010E5900E0C8AC1
:100DA000328C438E4A00544A290FD3C1CDE11DD560
:100DB0007244D481581CDE862599252507241DB24E
:100DC000437644D3114DCB442D52874147060554F9
:100DD000582E0FD3C1942259B20D83144BEAF0CD93
:100DE0008E4489140D83628B15295122251A0669B8
:100DF000B50D83322589A62899A46D4A2C552E2E2F
:100E00000FD3C10C7560535265183455C9B4615085
:100E10001255CA94E1104971260D27A32629364997
:100E2000B1498A4D4A8C9A362972025546290FD308
:100E3000C1938C894B347C50D2448A86B3A623C399
:100E40009023690EBC633A321C724C4C86EF800EC4
:100E50000E399C035668380FD3C14BC3E1431625A6
:100E6000DA904443920C49942815251AA248899295
:100E70002149864392685A9265E2902AC3344C8A8B
:100E80002591A255498624DA1453D6005728240FF9
:100E9000D3C10772828E6AE970D0111D9593E1ABC0
:100EA0008EAAF17088531DD51149077778876300A2
:100EB00057302D0FD3C12C2B9A3C6452960C076DE2
:100EC00093134D89166518A2920E7C88952C9694E2
:100ED000718856459B34451A8734CE2100573A31E4
:100EE0000FD3C14BC368194EA2A6688992285192AC
:100EF00028C9B468CA2085A1942825299386210C85
:100F00000F5745B3244A326CA6345954AD00573EAE
:100F10002B0FD3C15265559614C9451A0E89E42288
:100F2000598643B444A6515DC52191A46191A4C5DD
:100F3000E422590E8728D281005740280FD3C116CA
:100F4000736418B44C4B878328ABC32195D5E190CB
:100F50004A528EA9C9F06DD821C52C499B6D5053BA
:100F600005575B300FD3C14B73604AA44C1A2E9ABD
:100F70002855D2285AB3411A461D557224193E8865
:100F8000CA0E294A3A448A322499A444D19643315C
:100F9000005927250FD3C10C7560D30151CA94E1C4
:100FA00090A86AA28999349C9444F36D18327F1BEF
:100FB00086CCA72D2C0159292C0FD3C18CD27019A6
:100FC000064DD23C899A92686EC39059124D4C8A54
:100FD00062521493A29814C5A4498B9292944E75B0
:100FE000200159342B0FD3C1ACA89B928A52A60C76
:100FF000874416132992326950262D194275150718
:10100000514B9450526C8AE42A65E25C0559392DA3
:101010000FD3C10C75605262C9282983A40D5145B4
:10102000D4014D0BA561D0A44856A54C190E912AA8
:101030008B43AA499B244E75200159732B0FD3C1B2
:10104000D691E121C77264187428D9B19D1066C386
:10105000433A64AA22A9CA122B433445DB9A483B7F
:101060003244733C0459792B0FD3C15693E1930E4C
:101070000F6F39140E6F3A200E072DC98ACBA04C82
:10108000499F969E926450A6A5A7241A968AAD0001
:10109000597D310FD3C187B2241B8648D154658A4C
:1010A000A52C29A9C390A851624B94C4A62C26173D
:1010B000A3A20C5A32298B122A520E4839B4C30902
:1010C000005B50280FD3C18D726CCA214D0754F3B9
:1010D0001029C3900CA124A59A0E687316E5A0945C
:1010E00003EF900EEBB09A0C1F5B57270FD3C1078D
:1010F000D36C1842555665551C4429538643A4CADF
:10110000AAACCA4A268FE290AA39A083438EAA00CD
:101110005B582BFFD2C1CAA1501B864C877528197A
:1011200094E124EA80A803A29669C32029B1B603FA
:10113000CA9023520E443A38E4A8045B662B0FD3BE
:10114000C147C378D0A46195AC926D1824259386CD
:1011500093AB6495ACCA262E9A34444AA21415A5C2
:101160003A2C739425005C312E0FD3C1CB816C18BF
:101170009261C872201CB4411AB452D634886312EA
:101180002ACA3024A11D1C0EE9B0A5D9B00E8724AF
:10119000193EEB005C40290FD3C1D474449392E113
:1011A000A3A6433A414D862FA11A0D0F8A264A9ACB
:1011B0002869A2A48992A64DA1982339025C4F2CDC
:1011C0000FD3C1D474449392E1A3A623C3A0039A7E
:1011D0000E8852260F510EC5C3214E7540D32145AE
:1011E00007071DD1862D0724005C5E250FD3C1D4CF
:1011F00074449392E1A3A6435A8E88B26A56A2E140
:101200009392C98A244B8AAC25B22A8B73115C71E4
:10121000280FD3C1D474449392E1A3A683833CECFA
:10122000A89A0C5F951C9374641AD2215286C955F2
:10123000D2213B94C5005E26280FD3C1D4744493B9
:1012400092E1D3701023450A8783A8382A8EC341C0
:101250001DCE43264B833C5C92E1B30EEB005E381F
:101260002C0FD3C1D4A464F8A8C9C341CCD468F866
:10127000904452A264C3944652387CC9E4687850C2
:10128000244572915C24298BA2055E552D0FD3C194
:1012900052655107342D945265F8A4499B9248E257
:1012A000F0104DB64D92864C92864C92124D1225FE
:1012B0004D9B42314A33005E72310FD3C112B3509D
:1012C0001B86CC244AC3362C912A0D272593372D13
:1012D0005B944C5994D2B024966488A2214AC4C429
:1012E000E4A28C4916C529005E73300FD3C1526544
:1012F00075D0A44896860F8A16596CCA705B4CD27A
:10130000220DD1A465432425C9202D15D3A0455213
:10131000528AA66C90AA0B005E74320FD3C19272EF
:101320002092869329320D1F9445B2542465384487
:101330004B9C4DD56951922119A264588654511283
:1013400031531251D986414A87055E762D0FD3C19C
:10135000B2899AA264CA70882C52327C5ADC94E119
:10136000102D6EC3D3A428D1902CE290DC1265B16D
:101370002D96932265A5145E7B320FD3C1D2864190
:10138000D21493360C92A628C3A00C83A44552A471
:101390004452380DEA284587877488127148328B89
:1013A000498B14658AA63A10025F53320FD3C147A6
:1013B00073641894AC120E5A122A531225CAF0A064
:1013C0000C49C5322415CB90549461482A4A94287C
:1013D00015791A625556E5E1AC2A005F552A0FD3FC
:1013E000C1C7728256D5065553A6E1A2641675523E
:1013F000066952BC0C8A924DD128CBB10EE77032EF
:101400000CA2342C005F622E0FD3C187728212654A
:10141000C930288394498AA4688A362A923229C618
:101420004159B224319906C9944576C88E683A90DC
:10143000EA70066027370FD3C12D49C93028C3A0F1
:10144000494BA22D4B320CCA9288CA922859B22419
:101450004A962C89D2B25486241906A5451A928E32
:10146000495BA6B49512694AC304603B390FD3C1E6
:101470004E73445BA248938643222991362CC9902F
:1014800028891249D1900C43A428919458222559B7
:10149000946848A42131454A6299232511A325D196
:1014A000C2240B6234320FD3C10B07295286314953
:1014B000A56C78886A52B40C0745596C8A326C8ADC
:1014C000B248CB705AA52491862154D5E14152945B
:1014D0008A96484A2262402B0FD3C1CB01551B3656
:1014E0002519E2415225A3529332653844A3ACCA70
:1014F000E2908A4AAA249238D92651ABAE3990009C
:10150000624B2F0FD3C1CB2455194E4A2289433247
:101510006C92295192E1102D6E9262938641932232
:10152000591A064DC9E46518A4558EA57838046289
:101530004D340FD3C1CAA2244AA6E1A22989920C34
:10154000C9900C49942889A5226D4A74D92A9128FA
:1015500069DA3048A2A429916D191E42290CC535BB
:1015600007120062532C0FD3C1D609B31A46C383A6
:10157000A255254D89A464181465131769949441E4
:10158000939461B2244E4AE2342951660B8B006277
:101590006B2D0FD3C152734095C5751CC2213225E6
:1015A00043122A8979519261C84CA226899A326ADB
:1015B00052AAE9882666DA3048E9B000636E360F31
:1015C000D3C1C9A1344A456588D44489A4508994BB
:1015D0009A320C8934292625312E892D5112654ADB
:1015E00086C4B2288965D11465912C92A20C51252C
:1015F000540064442C0FD3C109E32C1B4E1663A482
:1016000058D2619042C5A429266D18D41C0993E1D3
:10161000206592B649DA266993E6314A3300645868
:10162000300FD3C149E3281C0649536C99A2CC8AD8
:10163000251C2EA20E88636918B44A2865C9B06CAF
:1016400049986CC9B06C499868D130D5C2006478AB
:10165000310FD3C148C5481A266912B54C54874981
:10166000C9A1415186C92259872111C56413A349D3
:10167000C924655224458B32298D867098240065D3
:1016800036290FD3C1D6A1508C860F522C655A1221
:101690000E871C1073E05591D46CD8213B34EC902C
:1016A0001DB243CA0E652900653F2F0FD3C1CAD4AE
:1016B00068F8A048A664B8A4928E0C838E4852366F
:1016C0003C84E6E1100E992245C390858A8E294319
:1016D0000E283BA20E120065592E0FD3C12E69466B
:1016E0004D8A93E1904649940C9F14A5A2294A453E
:1016F00053A62153544D196E8AAA29C36DC8814837
:101700001A1E8741016570340FD3C1C9C168785072
:1017100074481A1E225BAA4889122DD29029CA3019
:10172000288394888A942891A2C5CA70504C91A6A7
:10173000484A18696296291200662F2CFFF2C18A66
:101740005D3269388951A86452342CD2A428D990CA
:10175000444B9424B6441C425995C75191142D52C0
:10176000B4214BD404663E2E0FD3C14A676D07A443
:10177000E1A4292E91A20C83320C8A2F91621912B6
:10178000691894219445459C32CB70502255CA6209
:101790001D9600667A2AFFF2C1CBE11D08B561886B
:1017A000744054524D1995645086932CEA8036A8A3
:1017B000628EE84828ABDA100E610E8800672C3183
:1017C0000FD3C10B7364D3325119125107A22447AE
:1017D000A2494B064919246993A44453064953541A
:1017E0004D4E3451D2942133A5D28E841100673AE4
:1017F0002F0FD3C14B736089A44C1A2E5AAC44D519
:10180000245A8669908C9AA489C33448B22AC6C9DE
:10181000306892A60C99291D861C0923006765244F
:10182000DF12C2CC916458864192555955426D9849
:10183000864D56E5515632599186501A64250A87CD
:101840000368212B0FD3C1AE031F94164D4C8A5A47
:10185000A44AA1351D442594864153652D59B521CF
:1018600009A54899864C4AA664C851156837320FB5
:10187000D3C18986218A867488946449A4211D2253
:1018800025591249E9220DC921AA46C9F04107A7E5
:10189000E194033A360C39A8C3523A1C2400683C40
:1018A0002F0FD3C1127344DB014DCCB4647848359B
:1018B0001D91B6501A224D1A244BA2448B92A89126
:1018C00092E888A6239A8E68F2A8031900684C2D26
:1018D0000FD3C1D2A14C1B064947341D9006314994
:1018E000E528DA86411952291944A5A2845A226BA7
:1018F00089ACCAAA38A4EA2A870068632C0FD3C12E
:10190000527340955529D3860751C974405B95435E
:101910001646C317254AB44453B4445394CCA26426
:101920009641B26D3A086B2130FFD2C1528741CD4A
:101930004C49662A4943122543A48489260D91A661
:1019400023D2100E43A20C8BA69834C5A429264D91
:1019500019942D8A33006B4C300FD3C1C9A21C18C7
:10196000245991A44C91864991E4419215498B9454
:10197000E1A098D6415242455234457291A4C5A483
:1019800045C9A46665006B63310FD3C1C9526D9020
:10199000864919A64C913249596CC39484CA7088FF
:1019A000145553B471D0A448190E8A4D553455516D
:1019B000123599C62C4C016B642F0FD3C1C9CA8351
:1019C000122991321C14654815658E0665D8141DC0
:1019D000538683E271508C8AA3E2A8B8448A976444
:1019E00089862D0917006B7B380FD3C18992301C73
:1019F000124D8B124D8B86458B1265588644D3A2AF
:101A0000E116C55A941C94216952A2A449899229CD
:101A1000892AB5529228533428CAA44461006C60C4
:101A20002D0FD3C11A0EA2D22226CA9044C3872CEE
:101A3000CD94411994EC9AF41C55878758D191257F
:101A400019A54192933AB4CC3A20016D3B300FD3A3
:101A5000C1AC0E9BAC4A99345C64558B9448542CB1
:101A6000C3A09894213129C321522629523455D13B
:101A7000A468D0A448D1861D1B12006D412B0FD342
:101A8000C1CC4AC364D3864112256B96E9A85A1982
:101A9000166D31659222299AA225A1225AB471901D
:101AA0005CA45007D2046D4E290FD3C1AC439AA455
:101AB00044436252B451D1B4441992E1A00E392189
:101AC00019BEEAA89C0E076D4835459587730D6DC4
:101AD0004F2F0FD3C1CE81CB70B24A56451B2E9AE1
:101AE0003A84CAE190542C4352B10C49C5322415B2
:101AF000CB902C9621558621559475CD81046D6A25
:101B0000310FD3C14BB238E931E9222A5224265988
:101B10003A7C4A4A39B20D524B160D4392452D522A
:101B20006549A4484994A696448B2A4DE112096D53
:101B300077300FD3C187D22C1B074D8A1469181236
:101B4000CB240D4A3264CA262A92A20D4A2425B615
:101B5000E1224D8A25510EE21055776CC774046E50
:101B600038260FD3C1191E22298B4C59240D0F3949
:101B7000876C78C8011DD6A14C87A4619574C80EE6
:101B8000D9216B327C706B310FD3C1077424D5B26D
:101B9000E12112E3449487874CD40151079461D02A
:101BA000D68A1429A1A44859924891A20C61525195
:101BB0008643940D1300706F330FD3C1077424D57F
:101BC000B2E12192722491D468A90C9392D594AC7D
:101BD000A62483122D592551A229539241C9A22529
:101BE000994C59949594308E007136270FD3C1D5F6
:101BF000093B12A6D1F041AA499922C59A8E8CF1CF
:101C0000700895D0B4EC90A2A33AAAA33AB64300C8
:101C100072472DEFF2C1CA11515D45355112795805
:101C2000E44449B428519261481225B10D8B5553B3
:101C30005425B10E43A20D496289C2E100725938A0
:101C40000FD3C18772208BA44C4B94491B8624511F
:101C500032251A9661481225D1864449342551927D
:101C600061488645F32519866C18326548124D4A3D
:101C7000A51D09230072692F0FD3C14794344B8CE3
:101C8000D290A4523226CA70192635518683A224D6
:101C9000B644D9A4E1934BA65C87A932246B140EF9
:101CA00077E090007279310FD3C14774208BA44C38
:101CB0001A4E4625514665785012658C1265569429
:101CC000E1978A64A948CA708886A5322C4B4509D9
:101CD0009564882B0075282F0FD3C14DD264F894DA
:101CE000449AD2B229C383D22246493BD26558BA1C
:101CF00069499BB61C9634D38621D3D24C1B864CA3
:101D00002926C3207531350FD3C1CDD261C8A22C8D
:101D10008986216959B4E1416959942EC321A92CBE
:101D20004A9761505A166D1922A53AFC102969226A
:101D300029C3900C4B1885090075352F0FD3C1AD01
:101D40000D43320C51922651D21429C387A44F4916
:101D50009F92BE28956D482A6A72785C5A8641E93E
:101D6000AAB40C83D2713804754C300FD3C1C8D2D9
:101D700070D83645B46852A4489A3228C32129A5A0
:101D8000990E6B62360D17CD922889A62493A60C66
:101D900099451D861CD11400767B360FD3C1912244
:101DA000395A8687449692619006459392CA304488
:101DB000494593066518A2A42465496998928A2624
:101DC0000DCAA285D13A6489B44A43AA2600767E18
:101DD000360FD3C191A2418B96A6614B32291C923A
:101DE0006450342929A64953695086416951122902
:101DF000A92889945486211A14259172241EA2615F
:101E0000D9C6B9007740350FD3C1CA227950A43062
:101E10004B866D99342551126918944D5D9664185E
:101E2000B24919C26C508621524CDAA0489A62D24B
:101E30001493961CA62CCA22000000600003030421
:101E4000050406060F1700FC10FC1000020B04012D
:101E500006022006001054012108021534F1A144A5
:101E6000220934B65521998802231E0813542711DC
:101E70004D4492916424911C0E928948E57090A87B
:101E8000496412D144A404241448D3532796D22C75
:101E9000A322799F89A5898D2A96012518081354B4
:101EA00023B348282255B1AA582A5615A948221208
:101EB0009B04002617081354372CC9243289783A1A
:101EC000244A641209C9CD343919270732B435516F
:101ED0000128100417541593885444FA26128D22B1
:101EE000002910041754139289D444FA22928C4288
:101EF000002A12787255278C48228710E9108948E9
:101F00008232002B0C66745425141D4A4211002C99
:101F10000732F43341092D0726B45471282E0622C6
:101F20001434412F140813542D9D8AA553B154AC79
:101F30002A964EC5D22900300F08135445B38C8A17
:101F4000FCC7D2C44602310B041754253A5044FA58
:101F50001F321408135445B38C8A6C53E9702A9DC0
:101F6000AA4E0F07013312081354F1209DAAAE9216
:101F7000C79A4B131B0900341208135427156B150D
:101F80006B11E9743808C54A003513081354F14041
:101F900056365D4645B132B134B19100361408135E
:101FA0005445B38C8A64B1E9322A722C4D6C2400FA
:101FB0003713081354F140A44DC5AA53B174552CDE
:101FC0009D0A01381508135445B38C8A8CA589C91C
:101FD000322A329626361200391408135445B38C2F
:101FE0008A1C4B9393594C2C4D6C24003A08925404
:101FF000344187113B09A23434418751023C0D958D
:10200000765C19932C05674361003D0967545CF1C8
:102010008EF0003E0E95765C1114CE86A1C952104A
:10202000003F1208135445B38C8A62E970AAAC3B96
:10203000825806402A3E938369071CA2C3D91C20FC
:102040001995482692124989A4445222299194480C
:102050004AA483E9109A43E7D083F8100241130899
:10206000135427160F7994C824229D4C17199128D0
:10207000421408135451BBC824426E12D34556E48F
:1020800026B9D400431008135445B38C8A64FDB1BB
:1020900034B19100440F08135461BAC88AFC6F87A9
:1020A000890900450F081354F140D6D96412EB7C1E
:1020B0003808460E081354F140D6D96412EB3300A9
:1020C000471108135445B38C8A649D1C194B939394
:1020D00001480D08135421E4C7C3C1C88F02490841
:1020E000021534F103014A0D081354ADFF99589AB3
:1020F000D848004B1A08135421AB494413918AACB9
:10210000469C4E8935894CA434914964034C0B0894
:10211000135421D6FFF3E1204D13081354212C3919
:102120001D7E904828128A84C8A3004E13081354B9
:1021300021ACB5994C178A8422A19CDC3A0A4F0F36
:1021400008135445B38C8AFCC7D2C4460250110808
:10215000135451BBC82442DE24979A58CF00510E25
:1021600008135445B38C8AFCC7D2E4645215081393
:102170005451BBC82442DE241793DE2432894C22FA
:1021800014531108135445B38C8AE47D26962636E1
:102190001200540C081354F12013EBFF0D00550DE1
:1021A00008135421E4FFB134B191005617081354B9
:1021B00021244A64129944A437894C22AB11A95BAB
:1021C0006500571107155C21E34B8412A144288751
:1021D0005F5C0658150813542194C824226D1259C7
:1021E0008DC8B13411E98D285917081354219488EA
:1021F00026225D6644E2742C154BA762E914005A4E
:1022000015081354F120968AA562A9582A968AA522
:10221000E2C341005B0B05175471A8E97F3B0C5CDE
:10222000110715542155964AA7AA53D5A9EA540077
:102230005D0B0515547198E97F3B145E0936145601
:1022400025A388045F071AF0537118600833F85506
:102250002111096116C9125C37AD29C9E40099E959
:102260002294082542D1214411621108135421D629
:102270006CBA8C8A7C2C1D2626006310C81254452B
:10228000B38C8A641D4B131B0900640F081354ADF3
:1022900093E5302AF2B13439196512C8125445B3A6
:1022A0008C8AC4C3C12C1E4D6C2400660F081354C5
:1022B00047336956BCDCC4FA1100671608935365AE
:1022C000398C8AC4D2C454138B2D8721F130B100CC
:1022D000680E08135421D66CBA8C8AFCA300690DD1
:1022E00003133421910324FA9789006A0F4695530A
:1022F000A98E24D4FF483A4428006B1808135421AF
:10230000D6AD26114D442A3289AC6D229A4C641206
:10231000D9006C0B04133421D2FF1365006D1BCE62
:10232000128461221D2C23525148141285442151DC
:1023300048141285442151016E0CC8125461BA8CA4
:102340008AFCA3006F0FC8125445B38C8A7C2C4DB5
:102350006C2400701108935361BA8C8A7C2C1D2662
:1023600026B16600710F08935365398C8A7C2C4D19
:102370004E661D720BC61244F11021EA8F007310D5
:10238000C7124C35ABC89889641A4D521B01740EA4
:1023900005133C23D37498C8F41B6900750CC8124C
:1023A0005421E41F4B9393017613C8125421244AFD
:1023B0006412D144A43789AC4664027720CE1284DB
:1023C0002114126712D94C22A24944242592524565
:1023D00026D14692C84844129144027814C8125437
:1023E000219488262219912A961269222D42017978
:1023F0001B0893532393C824329164249149641297
:102400009944489C6E8B8C8A43007A11C81254F10F
:10241000201D4EA5C3A974383D1C047B1026D5533E
:10242000291B09751BCD8643BD0E057C0842D95377
:10243000F187027D1026D553215CD4EB6C24D46D3A
:102440003413027E0929D25471081D027F06001040
:10245000540100000004FFFF000090210527112413
:102460001FBECFEFD8E0DEBFCDBF26E0A0E3B2E0D5
:1024700001C01D92A136B207E1F712E0A0E0B1E081
:10248000E6ECF3E502C005900D92A033B107D9F751
:1024900012E1CEE2D2E104C02197FE010E94D727CB
:1024A000CD32D107C9F70E94A8220C94D6290C94EA
:1024B0000000662329F06A3019F0862F90E0089515
:1024C0008FEF9FEF0895CF92DF92EF92FF920F93DD
:1024D0001F93CF93DF93EC01842F8770E1E0F0E04E
:1024E000082E01C0EE0F0A94EAF73E2F7E0199E70D
:1024F000E90EF11CD7019C9110E0923018F41E2FC8
:10250000913029F150E0487FE8ADF9ADC880D9801D
:10251000D60150969C91949F6001959FD00C1124F8
:102520006C0D7D2D711DDF01A60FB71F011115C0A8
:102530008C91812B83278D932150D1F7DF91CF91FF
:102540001F910F91FF90EF90DF90CF90089530E0B2
:10255000D9CF110F330F222389F39C91912B93270D
:102560009C938F5F877021508111F3CF9CADA90F91
:10257000B11DF7019081923028F4913009F031E0DB
:1025800011E0E9CF31E0E7CF80E0089580E00895E1
:10259000CF93DF93CAEDD5E08FAFEAADFBAD0190ED
:1025A000F081E02D8EED95E00995EAADFBAD02805E
:1025B000F381E02D8EED95E0DF91CF91099486E4D3
:1025C00080937C0080917A00806480937A0080916F
:1025D0007A0086FDFCCF8091780090917900089573
:1025E0009B01DC011896ED91FC9141E067E10994B3
:1025F000FC01538D448D252F30E0842F90E0821B09
:10260000930B541710F0CF96089501970895FC018D
:10261000918D828D981761F0A28DAE0FBF2FB11DE5
:102620005D968C91928D9F5F9F73928F90E008953D
:102630008FEF9FEF0895FC01918D828D981731F0F7
:10264000828DE80FF11D858D90E008958FEF9FEF4B
:102650000895FC01918D228D892F90E0805C9F4F21
:10266000821B91098F7399270895FC01A48DA80FEF
:10267000B92FB11DA35ABF4F2C91848D90E00196C4
:102680008F739927848FA689B7892C93A089B189E4
:102690008C91837080648C93938D848D981306C085
:1026A0000288F389E02D80818F7D80830895EF92E9
:1026B000FF920F931F93CF93DF93EC0181E0888FFC
:1026C0009B8D8C8D98131AC0E889F989808185FFCC
:1026D00015C09FB7F894EE89FF896083E889F9896E
:1026E00080818370806480839FBF81E090E0DF9170
:1026F000CF911F910F91FF90EF900895F62E0B8DC3
:1027000010E00F5F1F4F0F731127E02E8C8D8E117D
:102710000CC00FB607FCFACFE889F989808185FFE4
:10272000F5CFCE010E943513F1CFEB8DEC0FFD2FCD
:10273000F11DE35AFF4FF0829FB7F8940B8FEA899F
:10274000FB8980818062CFCFCF93DF93EC01888DAE
:102750008823B9F0AA89BB89E889F9898C9185FD1C
:1027600003C0808186FD0DC00FB607FCF7CF8C91AA
:1027700085FFF2CF808185FFEDCFCE010E9435131A
:10278000E9CFDF91CF91089585E293E00E9429136C
:1027900021E0892B09F420E0822F089580E090E069
:1027A000892B29F00E94C41381110C940000089514
:1027B000AF92BF92CF92DF92EF92FF920F931F934F
:1027C000CF93DF936C017B018B01040F151FEB018D
:1027D0005E01AE18BF08C017D10759F06991D60144
:1027E000ED91FC910190F081E02DC6010995892BB6
:1027F00079F7C501DF91CF911F910F91FF90EF9075
:10280000DF90CF90BF90AF900895833081F028F48F
:10281000813099F08230A9F008958730A9F088308E
:10282000C9F08430B1F4809180008F7D03C0809125
:1028300080008F7780938000089584B58F7784BD62
:10284000089584B58F7DFBCF8091B0008F77809302
:10285000B00008958091B0008F7DF9CFCF93DF93C2
:10286000282F30E0F901E255FF4F8491F901E65637
:10287000FF4FD491F901EA57FF4FC491CC23A1F047
:1028800081110E940514EC2FF0E0EE0FFF1FE458B9
:10289000FF4FA591B491EC91ED2381E090E009F414
:1028A00080E0DF91CF91089580E090E0FACF1F9310
:1028B000CF93DF93282F30E0F901E255FF4F849149
:1028C000F901E656FF4FD491F901EA57FF4FC49141
:1028D000CC23A9F0162F81110E940514EC2FF0E0F3
:1028E000EE0FFF1FEE58FF4FA591B4918FB7F894EC
:1028F000EC91111108C0D095DE23DC938FBFDF91DE
:10290000CF911F910895DE2BF8CFCF93DF9390E006
:10291000FC01E656FF4F24918A579F4FFC0184919A
:102920008823C9F090E0880F991FFC01E859FF4FF8
:10293000A591B491FC01EE58FF4FC591D49161115E
:102940000DC09FB7F8948C91209582238C93888139
:10295000282328839FBFDF91CF910895623051F4DF
:102960009FB7F8943C91822F809583238C93E881C4
:102970002E2BEFCF8FB7F894EC912E2B2C938FBF8B
:10298000EACF3FB7F8948091100390911103A09182
:102990001203B091130326B5A89B05C02F3F19F071
:1029A0000196A11DB11D3FBFBA2FA92F982F8827CF
:1029B000BC01CD01620F711D811D911D42E0660FAA
:1029C000771F881F991F4A95D1F708958F929F927C
:1029D000AF92BF92CF92DF92EF92FF926B017C0198
:1029E0000E94C1144B015C01C114D104E104F10443
:1029F000B9F00E94C114681979098A099B09683ED7
:102A000073408105910580F321E0C21AD108E108E5
:102A1000F10888EE880E83E0981EA11CB11CE4CF5B
:102A2000FF90EF90DF90CF90BF90AF909F908F90EE
:102A300008952091C302260F3327331F2132310519
:102A4000ECF42091E902FC0190E080E0243069F090
:102A500082E00895A091C3022191AC014F555D4FD2
:102A6000A40FB52FB11D2C930196861798F3809172
:102A7000C302680F6093C30280E0089581E0089567
:102A80001092E90281E08093EB021092EA0261E089
:102A900082E10E94571461E083E10E945714E9EB40
:102AA000F0E080818E7F808380818D7F808388E4C9
:102AB0008093B80085E48093BC000895CF93DF93A2
:102AC00091E09093A0028823B9F0C091B800D09112
:102AD000BA008091BC008A7B8093BC0060E082E1F8
:102AE0000E94571460E083E10E9457140E94401531
:102AF000D093BA00C093B800DF91CF9108950895A4
:102B000008950895E091980280919702E81730F4B3
:102B1000F0E0E958FD4F808190E008958FEF9FEF3E
:102B2000089590919802809197022FEF3FEF9817A8
:102B300048F4E92FF0E0E958FD4F208130E09F5F35
:102B400090939802C90108958091970290919802FC
:102B5000891B990B0895CF92DF92EF92FF920F930A
:102B60001F93CF93DF937C01CB018A0120917602E2
:102B7000222389F0EB016B01C40ED51ECC15DD05B7
:102B800069F06991D701ED91FC910190F081E02D00
:102B9000C7010995F3CF642F0E941915C801DF9171
:102BA000CF911F910F91FF90EF90DF90CF900895FC
:102BB000CF93DF931F92CDB7DEB769832091760262
:102BC0002223F9F020919902203258F021E030E0E0
:102BD000FC013383228390E080E00F90DF91CF915E
:102BE000089580919A02E82FF0E0EA5AFD4F99810A
:102BF00090838F5F80939A028093990281E090E0A6
:102C0000ECCF61E0CE0101960E941915F7CFDC01EF
:102C10001A96ED91FC9130E020E00994DC011496C5
:102C2000ED91FC9130E020E040E060E10994DC01AE
:102C30001696ED91FC9130E020E040E069E10994C6
:102C4000DC011696ED91FC9130E020E040E068E177
:102C500009949A01DC011696ED91FC91462F67E1EB
:102C60000994EF92FF920F931F93CF93DF931F92DC
:102C7000CDB7DEB77C018B01D8016C91673129F1AA
:102C800050F46531A0F40F90DF91CF911F910F9117
:102C9000FF90EF9008956A3118F16E3FA1F7F801A7
:102CA0004181498369E2C7010E9407160BC0F80100
:102CB00041814983D7011696ED91FC9130E020E0E7
:102CC000C70109950E5F1F4FD7CFF8018181898316
:102CD000AE014F5F5F4F61E0C7010E942916F2CF3E
:102CE0000F5F1F4FD7011696ED91FC9130E020E069
:102CF00040E0C7010995C0CF462FDC011696ED9143
:102D0000FC9130E020E066E10994462FDC01169644
:102D1000ED91FC9130E020E065E10994EF92FF92A3
:102D20000F931F93CF93DF93EC01042F7901693048
:102D300069F485E591E0998388831C8A81E0DF91BD
:102D4000CF911F910F91FF90EF9008956D3009F48E
:102D500075C038F46A3091F16B3009F468C080E0D6
:102D6000EECF6E3009F47DC06F30C9F70E94201697
:102D7000F7011381110F110F110F6C89160F612FBD
:102D800062956F706061CE010E948516612F6F7031
:102D9000CE010E948516F7016481606BCE010E940E
:102DA0008516F701408151816281660F660F660FBB
:102DB000CE010E9429160150A1F75DC0EA85FB856E
:102DC00030E020E040E068E20995EE81FF8130E0EC
:102DD00020E040E064E1CE01099541E06BE4CE01E2
:102DE0000E940716E881F981448169E2CE010E94C0
:102DF000071640E06BE4CE010E940716E881F981D6
:102E0000448169E2CE010E94071641E06BE4CE01E5
:102E10000E940716E881F981458169E2CE010E948E
:102E2000071660E271E0CE010E94311687CF6BE198
:102E300071E04423C1F366E171E0F5CF411109C0AF
:102E40006FE071E00E943116E881F98182898C8BF4
:102E500075CF68E071E00E943116E881F9818389BD
:102E6000F6CF0E94201661E8CE010E948516602FE1
:102E7000CE010E947C16CE010E9417165FCFDC01A6
:102E80001896ED91FC9130E020E040E069E1099472
:102E9000DC011896ED91FC9130E020E040E068E123
:102EA0000994CF93DF931F92CDB7DEB76983BE013C
:102EB0006F5F7F4F0E94F0120F90DF91CF910895C6
:102EC000EF92FF921F93CF93DF93EC01162F7A01BD
:102ED0000E94481760E4CE010E945117E885F985E9
:102EE0009701412F67E1CE010995CE01DF91CF9186
:102EF0001F91FF90EF900C943F17EF92FF921F935A
:102F0000CF93DF93EC01142F7901663181F138F40E
:102F1000643109F44BC0653179F080E022C068313A
:102F2000C9F150F16931C9F780915502882391F1B7
:102F3000CE010E943F172EC080915502882319F0C0
:102F4000CE010E943F17CE010E94481760E0CE01DB
:102F50000E945117612FCE010E94511781E080938A
:102F60005502DF91CF911F91FF90EF900895642F4C
:102F70000E94511781E0F5CF80915502882319F006
:102F8000CE010E943F17A701193138F4612FCE01FD
:102F90000E94601710925502EDCF68E1CE010E94A9
:102FA0006017185188E1E80EF11CEDCF8E898F3F34
:102FB00011F488E78E8BE885F9859701412F64E14C
:102FC000CE01DF91CF911F91FF90EF9009940F9365
:102FD000DC01DE963C91DE97431BD496ED91FC918B
:102FE00009950F910895CF93DF93FC01A081B181E2
:102FF00082AD982F990F990F990F95AF50969C918C
:103000005097903208F09FE1990F990F990F94AF64
:1030100023AD922F990F990F990F96AF51963C912E
:103020005197682F620F7727771F3617170614F40A
:10303000832F821B97AFEF01C05CDF4F880F880F93
:10304000880F890F8883219680EF888354968D910D
:103050009C915597813F910508F48883EE5BFF4F63
:1030600056968C918083DF91CF9108950F93FC0148
:10307000EB5BFF4F308131965081451730F43017AC
:1030800038F0041728F080E013C03017D0F3FBCFDE
:10309000FC01ED5BFF4F30818C5B9F4FFC01808119
:1030A000681740F481E0321718F081E0261758F7CE
:1030B0000F9108953217C8F3E6CF2F923F924F92A7
:1030C0005F926F927F928F929F92AF92BF92CF92B8
:1030D000DF92EF92FF920F931F93CF93DF93EC0158
:1030E0004C0183E4880E911CF401108232972080F9
:1030F0005E01F4E4AF0EB11CF50120823FAC6E011D
:10310000F5E4CF0ED11CF6013082359740807E0168
:10311000F6E4EF0EF11CF7014082349610813297ED
:1031200060803196708032975080012F262D472D78
:10313000652DCE010E943618CD58DF4F811114C085
:103140001882DF91CF911F910F91FF90EF90DF9048
:10315000CF90BF90AF909F908F907F906F905F9037
:103160004F903F902F90089581E08883552011F073
:10317000F4015082621410F4F5016082371410F4E7
:10318000F60170821415E8F6F7011083DACF0F9379
:10319000DC01802FFD01ED58FF4F90819923E9F16B
:1031A0002223D9F1223020F0023079F56F5F621BC3
:1031B000082F0170FD0180FD32C0EB5BFF4F808165
:1031C000481758F131968081481738F53297908129
:1031D00031978081260F2617F0F46917D8F42FEF66
:1031E000290F8217D0F4681708F4682F291708F4FC
:1031F000922F961BD696ED91FC91D7970480F5817E
:10320000E02D292FCD01099508C0033089F64F5FC5
:10321000421BCECF682F691720F30F910895ED5B05
:10322000FF4F80816817C8F3319680816817A8F72F
:103230003296908131978081240F241778F44917B2
:1032400060F42FEF290F821740F7481708F4482F32
:10325000291708F4922F941BCDCF482F4917E8F671
:10326000F2CF213039F020F0223031F0840F089570
:10327000860F0895841B0895861B0895213039F028
:1032800020F0223031F0861B0895840F0895860FB8
:103290000895841B08955F926F927F928F929F9200
:1032A000AF92BF92CF92DF92EF92FF920F931F9354
:1032B000CF93DF935C01162F642EEC01C15BDF4FCF
:1032C000DC80ED804C0189E7880E911CFE80FD18A2
:1032D000C12EF11608F4CF2C5B800C85202F4E2DCB
:1032E0006D2D8A810E943119782E202F4E2D6D2D43
:1032F000852D0E943E19482F662071F08A85F401C1
:1033000080832C2D672DC5010E94C7181F1548F01A
:103310001F19E394D12CDACF89858111F7CF8B85E2
:10332000EECF1D0D1C83ED82DF91CF911F910F9188
:10333000FF90EF90DF90CF90BF90AF909F908F90D5
:103340007F906F905F900895DC0118964C911897CC
:10335000ED91FC911197249130E0042E02C0359537
:1033600027950A94E2F7842F860F883068F031960B
:103370001196FC93EE93E49198E0941B01C0EE0F3C
:103380009A95EAF72E2B885018968C938FEF9FEF23
:1033900001C0880F6A95EAF7809582230895FC01A1
:1033A000E60FF11D849190E0982F88273196E491E3
:1033B0008E0F911D0895CF93DF93209129063091B0
:1033C0002A062817390709F490C0EC0190932A06C1
:1033D00080932906FC01849180933A063196E4910A
:1033E000E0933B06FE013296E491E0933C06FE0139
:1033F0003396E491E0933D06FE013496E491E09328
:103400003E06FE013596E491E0933F06FE013696B6
:10341000E491E0934006FE013796E491E093410683
:10342000FE013896E491E0934206FE013996E4915C
:10343000E0934306FE013A96E491E0934406FE01D0
:103440003B96E491E0934506FE013C96E491E093BF
:103450004606FE013D96E491E0934706FE013E9646
:10346000E491E0934806FE013F96E491E09349061B
:10347000FE017096E491E0934A0661E1CE010E945C
:10348000CF1990934C0680934B0663E1CE010E94C6
:10349000CF1990934E0680934D0665E1CE010E94B0
:1034A000CF199093500680934F06809129069091F2
:1034B0002A06892BD1F080914706809353064091CC
:1034C00048064093540690915206992371F091302A
:1034D00079F490914906891714F4909353068091DA
:1034E0004A06841714F480935406DF91CF9108950F
:1034F0003091440620914606082E000C990B622F4D
:10350000022E000C770B630F711D37FD7A9586171D
:1035100097071CF4320F30935306241734F7209387
:103520005406E3CF6F927F928F929F92AF92BF9299
:10353000CF92DF92EF92FF920F931F93CF93DF937F
:10354000EC01062F142F7901FC01E55AFF4F808111
:10355000813009F445C0D0F1823009F44BC083308A
:1035600009F452C0FE01EF5AFF4F008331961083D9
:1035700037978081918147962FEFE216F10411F081
:1035800008F0E6C0E1E6EE16F10408F447C0FE01DB
:10359000E159FF4F20813181820F931F9C012F5FE2
:1035A0003F4FF9014491411142C0712C872DDF91A9
:1035B000CF911F910F91FF90EF90DF90CF90BF9030
:1035C000AF909F908F907F906F900895FE01E35B86
:1035D000FF4F0190F081E02DCE010995180FC2CF69
:1035E000FE01E35BFF4F0190F081E02DCE010995D4
:1035F000081BB8CFFE01E35BFF4F0190F081E02D87
:10360000CE010995181BAECFFE01E35BFF4F019081
:10361000F081E02DCE010995080FA4CFF1E4EF165B
:10362000F10408F4BBCFFE01E359FF4FB3CFFC0117
:1036300044914E151F0409F086C00296009709F4C4
:10364000B4CF7E01FFE4EF0EF11CF701918380837C
:10365000108671966081C7010E94A419F7018683C4
:1036600072966081C7010E94A419A82EF701878372
:103670006E01F9E7CF0ED11CF6019081F701928718
:1036800081E0911180E0F7018387FE01EE59FF4F41
:10369000B0806B2DC7010E94A419882EFE01ED5940
:1036A000FF4F1081612FC7010E94A419982EFE01BF
:1036B000EC59FF4F0081602FC7010E94A4190150EF
:1036C00041E050E09A0101C0220F0A95EAF7782EF6
:1036D000721AF701068110160CF068CFBA94CA016D
:1036E00001C0880FBA94EAF7881AB4849A0C115072
:1036F00001C0440F1A95EAF7F42FF9199F2E2B2DCC
:103700004F2F682DF70182810E943119182FF70180
:1037100082832B2D492D682D83810E943E19F7014C
:103720008383F1E0BF1609F47CC0BF1608F43FC0E4
:1037300022E0B21609F47BC093E0B91609F482C006
:10374000082F212F38C0F9012491820F911D26CF17
:10375000FE01EF58FF4F00811181080F191F68010A
:1037600060E0C6010E94CF19080F191F62E0C60170
:103770000E94CF19F4E0CF0ED11C8E159F0580F367
:10378000F801849190E0982F88273196E4918E2B50
:10379000009709F40ACFE816F90619F4C801039650
:1037A0004DCFF8013296E4910E0F111DE9CF202F75
:1037B000210F082F0A0D482F612FCE010E943618C5
:1037C000882309F4F3CEF701148215828E01025A80
:1037D0001F4F4E01FFE58F0E911CF8016081C7015C
:1037E0000E94A419682EF4016081C7010E94A419E7
:1037F000B82E40E0662DCE010E944B1941E06B2DA2
:10380000CE010E944B1961E0C7010E94A4198111E9
:10381000F0CFF70185818A1504F38285F601808354
:10382000C5CEBA1821E0210F080F1B0DC4CF91E0BF
:10383000392F301B21E0210F9A1901E0080F890F61
:10384000130FB9CF212F2A0D982F901B01E0080FDD
:1038500081E0890FB0CFFF920F931F93CF93DF9337
:10386000C82FD62F1092F6058A01F12CF80161912C
:103870008F01E091E005F091E1058EED95E009956D
:103880008F3F9807F1F08E3F2FEF920779F39C015D
:103890004D2F6C2F8EED95E00E94921A9091390673
:1038A000913049F030F0923041F0933041F0F80E11
:1038B000DDCFC80FFCCFD80FFACFC81BF8CFD81B6D
:1038C000F6CF8F2DDF91CF911F910F91FF9008952B
:1038D00029E532E13093E1052093E0050C942B1C9F
:1038E000AF92BF92CF92DF92EF92FF920F931F930E
:1038F000CF93DF9300D000D01F92CDB7DEB78C01FD
:10390000DC01DA96AC90DA97DB96EC90DB97ED91E0
:10391000FC91B188FE2CD12CC12CD801ED91FC91E9
:1039200011978089D8962D913C911C82FD828B83C2
:10393000B8E08B9FC00111248C9DA0018D9D500D7E
:103940009C9D500D1124240F351F3A832983D801E3
:103950001496ED91FC919E012F5F3F4F41E06FE087
:10396000C8010995F3948F2D8E198A1528F4BFEF9D
:10397000CB1ADB0AFB1488F20F900F900F900F9078
:103980000F90DF91CF911F910F91FF90EF90DF90FB
:10399000CF90BF90AF9008958EED95E00E94701C7F
:1039A0008EED95E00C940E16CF92DF92EF92FF927F
:1039B0000F931F93CF93DF93EC01962F683109F497
:1039C0004BC0B901993130F49431C9F0973189F085
:1039D00080E006C0993109F461C09032C9F781E0F6
:1039E000DF91CF911F910F91FF90EF90DF90CF90DB
:1039F000089550E082EC93E00E94AB15F0CF8C85E7
:103A00009D85AE85BF85892B8A2B8B2B71F4E88130
:103A1000F981A585B0E020EA36E841E050E00E9457
:103A200064276C877D878E879F87109298021092FB
:103A3000970210929A02109299020E9440158FE705
:103A400095E19093C2028093C10280E895E1909342
:103A5000C6028093C502C3CF2C853D854E855F8508
:103A600060E074E284EF90E00E94B52720513109B4
:103A70004109510956954795379527952093B800E8
:103A80008E8990E09595879591E09093760280934A
:103A9000540210929A0210929902A1CFD0919902E9
:103AA000D13208F093C0C09154020E94C1146B013E
:103AB0007C018091E902811164C082E08093E90277
:103AC00081E08093EB028FEF8093E80210920D0368
:103AD000D0930C03A6E5B2E0ECEEF2E080E0D81360
:103AE0007CC010920E0380910E03CC0FC82BC093A4
:103AF0000E038091EA02813009F073C01092EA024D
:103B00000E94C1146B017C0180910E038093BB0065
:103B100080919C0290919D02A0919E02B0919F0283
:103B2000892B8A2B8B2B99F00E94C11400919C0247
:103B300010919D0220919E0230919F026C197D0987
:103B40008E099F090617170728073907D8F18091B2
:103B5000BC0083FDD9CF85EC8093BC000E94C114CA
:103B60006B017C018091E9028230E9F18091E802E9
:103B70008F3F61F18091E802803241F18091E8024B
:103B800025C080919C0290919D02A0919E02B091CF
:103B90009F02892B8A2B8B2B09F48BCF0E94C11497
:103BA00000919C0210919D0220919E0230919F02F3
:103BB0006C197D098E099F09061717072807390711
:103BC00008F077CF80919B020E945E1510929A02B6
:103BD000109299021092760202CF9D9191938F5F7D
:103BE0007ECF85EEB9CF80919C0290919D02A091ED
:103BF0009E02B0919F02892B8A2B8B2B09F4B2CFA6
:103C00000E94C11400919C0210919D0220919E027D
:103C100030919F026C197D098E099F0906171707BD
:103C20002807390708F09ECFCDCF0F931F93CF936E
:103C3000DF938C01C62F642FCC32E8F4CA3208F02F
:103C400041C0C83271F1C93209F442C080E0C034C9
:103C5000D0F1CF73F801EC0FF11D868D8F3F91F1FC
:103C6000C031E0F00E942E1421E0892B09F420E0FD
:103C7000F801218F27C0CD3289F140F384EB8C0FFE
:103C8000823020F7CF73C00FD12FD11D8E8D4111FF
:103C900033C061E00E94851460E08E8D0E9457144D
:103CA00011C0025E1F4FD0E0F80181918F018F3F5C
:103CB00031F061E0D03108F062E00E948514DF5FEE
:103CC000D63191F781E0DF91CF911F910F91089547
:103CD00070E090E080E00E94E614F4CF85E090E090
:103CE000433010F082E090E0880F991F880F991FF1
:103CF00005970197F1F7E6CF62E00E948514E2CFC5
:103D0000CF92DF92EF92FF920F931F93CF93DF93A7
:103D10006C01EB017B01E40EF51E10E000E0CE1516
:103D2000DF0561F06991D601ED91FC910190F08180
:103D3000E02DC6010995080F191FF1CFC801DF91C9
:103D4000CF911F910F91FF90EF90DF90CF9008954A
:103D5000CF92DF92EF92FF920F931F93CF93DF9357
:103D6000EC016C0124E0C20ED11CFC01E158FF4FB4
:103D70000190F081E02DC60109958E3FEFEF9E077F
:103D8000C8F48E010E571F4F7E01F1E8EF0EF11CB3
:103D90009C01F8014081F7016081C6010E94921ADE
:103DA000C15ADF4F98819130A9F078F09230A1F09C
:103DB0009330B9F081E090E0DF91CF911F910F91A6
:103DC000FF90EF90DF90CF900895F7019081890FD9
:103DD0008083F0CFF801FACFF7019081981B892FEB
:103DE000F7CFF801FACF089590E080E00895FC0144
:103DF00080819181009711F00C94792808950F9398
:103E00001F93CF93DF93EC0188819981009759F03C
:103E10002A813B812617370730F081E0DF91CF916F
:103E20001F910F9108958B016F5F7F4F0E940229B0
:103E3000009759F0998388831B830A832C813D81E5
:103E4000232B59F7FC011082E8CF80E0E7CFEF92F7
:103E5000FF920F931F93CF93DF93EC017B018A01B5
:103E6000BA010E94FF1E28813981811114C02115D9
:103E7000310519F0C9010E947928198218821D8222
:103E80001C821B821A82CE01DF91CF911F910F916C
:103E9000FF90EF9008951D830C83B701C9010E9424
:103EA000CF29F1CF85ED8093BC0080919C02909149
:103EB0009D02A0919E02B0919F020796A11DB11D87
:103EC00023E0B695A795979587952A95D1F72091E8
:103ED000BC0024FD03C01092E902089540919C02A9
:103EE00050919D0260919E0270919F02452B462B3E
:103EF000472B69F30097A105B10541F025E32A9509
:103F0000F1F700000197A109B109E1CF80919B026F
:103F10000C945E15FC01A081B18150962C9182AD6C
:103F200038E0839FC0011124289FA001299F500DD4
:103F3000112470E060E080AD91AD0C94C8298EED45
:103F400095E00E948A1F8BE39EE10E94DB1945EBFE
:103F500051E060E188E00E94681C82EC90E00E94E1
:103F6000DB1980912403813079F020F0823049F010
:103F70000C94CC1C41EC51E060E284E00E94681C8F
:103F8000F7CF4AEC51E0F8CF80911B0390911C03CE
:103F900043ED51E0892B81F34AED51E0EDCF1F92C3
:103FA0000F920FB60F9211242F933F934F935F936D
:103FB0006F937F938F939F93AF93BF93EF93FF93F1
:103FC00085E293E00E943513FF91EF91BF91AF918D
:103FD0009F918F917F916F915F914F913F912F9121
:103FE0000F900FBE0F901F9018951F920F920FB653
:103FF0000F9211242F938F939F93EF93FF93E09150
:104000003503F09136038081E0913B03F0913C034E
:1040100082FD1BC0908180913E038F5F8F73209142
:104020003F03821741F0E0913E03F0E0EB5DFC4F6F
:10403000958F80933E03FF91EF919F918F912F91E8
:104040000F900FBE0F901F9018958081F4CF1F9294
:104050000F920FB60F9211242F933F938F939F933C
:10406000AF93BF938091140390911503A091160311
:10407000B091170330910F0323E0230F2D3758F52C
:104080000196A11DB11D20930F03809314039093FB
:104090001503A0931603B09317038091100390911A
:1040A0001103A0911203B09113030196A11DB11D3C
:1040B0008093100390931103A0931203B093130302
:1040C000BF91AF919F918F913F912F910F900FBE14
:1040D0000F901F90189526E8230F0296A11DB11D81
:1040E000D2CF1F920F920FB60F9211242F933F93AE
:1040F0004F935F936F937F938F939F93AF93BF93F0
:10410000EF93FF938091B900887F803609F44AC00D
:10411000F0F5883209F4A7C018F5803109F49BC086
:10412000B8F4882309F4F9C0883009F494C0FF91E9
:10413000EF91BF91AF919F918F917F916F915F911F
:104140004F913F912F910F900FBE0F901F90189598
:10415000883109F488C0803251F78093E80214C096
:10416000803409F49DC040F48033B9F38833F9F604
:104170008093E80285ECB0C0803509F485C08835AD
:1041800009F496C0883499F60E94521FD0CF88391E
:1041900009F48CC038F5883729F050F4883611F0CE
:1041A000803729F683E08093E9021092E70257C036
:1041B000883809F47BC0803919F0803809F0B7CF0E
:1041C0008091E702803208F071C0E091E70281E05F
:1041D0008E0F8093E7028091BB00F0E0E953FD4F22
:1041E00080833DC0803B39F0E0F4803A09F479C027
:1041F000883A09F09CCF84E08093E9021092C402CF
:104200001092C302E091C102F091C202099580911F
:10421000C30281110FC081E08093C3021092A102FA
:1042200009C0803C09F4A6CF883C09F4A3CF883BA1
:1042300009F07DCFE091C40281E08E0F8093C4022B
:10424000F0E0EF55FD4F80818093BB009091C40258
:104250008091C30229C080910E038093BB0085EC3E
:104260008093BC0064CF90910D0380910C0398174C
:1042700058F5E0910D0381E08E0F80930D03F0E07F
:10428000E451FD4F8081E9CFE0910D0381E08E0F75
:1042900080930D038091BB00F0E0E451FD4F8083DB
:1042A00090910D0380910C039817C8F285E8D8CF40
:1042B000E0910D0381E08E0F80930D038091BB0090
:1042C000F0E0E451FD4F80838091EB0281115CCFDF
:1042D00081E08093EA0284EA8093BC001092E902B4
:1042E00026CF85EC8093BC001092E9028091E70212
:1042F000803230F4E091E702F0E0E953FD4F1082A4
:104300006091E70270E0E091C502F091C60287EC8F
:1043100092E009951092E7020ACF1092E80234CF9A
:10432000CF93109228031092270388EE93E0A0E029
:10433000B0E08093290390932A03A0932B03B093BA
:104340002C0323E831E0309326032093250325EC4A
:1043500030E0309332032093310324EC30E030938B
:1043600034032093330320EC30E030933603209362
:10437000350321EC30E0309338032093370322ECEF
:1043800030E030933A032093390326EC30E0309349
:104390003C0320933B0310923E0310923F03109284
:1043A0004003109241031092C5031092C4038093FE
:1043B000C6039093C703A093C803B093C90385E9CC
:1043C00091E09093C3038093C2031092DD05109295
:1043D000DC0589E592E190935A0680935906109284
:1043E0005B0610925C061092F60587EA91E09093C6
:1043F000DB058093DA051092DF051092DE0510923E
:10440000F3051092EA051092EB051092EC0510925C
:10441000ED058FEF8093F4058093F805ECEFF5E060
:1044200082E196E0CFEFC1938E179F07E1F78EE808
:1044300096E19093E3058093E2058DE797E19093F1
:10444000E5058093E40584ED9CE19093E705809376
:10445000E60585E19EE19093E9058093E80530E06B
:1044600020E040E069E08EED95E00E948E1610920B
:104470002A061092290683E692E190931306809310
:1044800012068EEC93E0909317068093160684E054
:10449000809318061092190610923606109256064E
:1044A00081E080935706809358068FEA91E09093BD
:1044B0001506809314068EED95E00E94F317109276
:1044C000250610922706C0932606C0932806E09181
:1044D0001406F09115060280F381E02D8EED95E033
:1044E000099586EC92E190932C0680932B0610920E
:1044F0003906C0930706C0930806C09309061092B8
:10450000CF051092CE051092D1051092D0051092D1
:10451000D3051092D20541E050E060EE71E08EECE0
:1045200095E00E94271F1092D5051092D405109295
:10453000D7051092D6051092D9051092D80541E002
:1045400050E062EE71E084ED95E0CF910C94271F6E
:10455000CF93DF93CDB7DEB7AE970FB6F894DEBF3B
:104560000FBECDBF789484B5826084BD84B5816070
:1045700084BD85B5826085BD85B5816085BD80912E
:104580006E00816080936E001092810080918100A6
:10459000826080938100809181008160809381009E
:1045A000809180008160809380008091B100846060
:1045B0008093B1008091B00081608093B0008091C1
:1045C0007A00846080937A0080917A008260809380
:1045D0007A0080917A00816080937A0080917A00DD
:1045E000806880937A001092C100E091E205F0911A
:1045F000E30530E020E040E06AE08EED95E00995CB
:1046000080915806882321F08EED95E00E948A1F44
:1046100080E00E94C8128EED95E00E94701C1091FF
:10462000190680911806180FE091DE05F091DF055C
:104630008189181708F4A6C38EED95E00E940E1626
:1046400080E00E94C812E091E205F091E30530E0BD
:1046500020E040E06BE08EED95E009950DE611E07D
:104660008FE7E82E81E0F82EF80180810E5F1F4F62
:1046700061E00E948514E016F106B1F761E089E07F
:104680000E94851461E081E10E94851461E080E16F
:104690000E94851461E08FE00E94851460E08CE048
:1046A0000E94851460E088E00E94851461E080E14A
:1046B0000E94571461E081E10E94571461E089E093
:1046C0000E94571481E090E090931C0380931B0399
:1046D0000E94DF128A3091050CF45EC3883C91057C
:1046E0000CF45CC382E080932403809323030E9434
:1046F0009F1FCE0101967C01B8E02B2E312C19E0D2
:10470000412E512C07E0A02EB12C0E94DF128A30DE
:1047100091050CF445C3883C91050CF443C382E039
:104720008093240390912303981721F0809323030F
:104730000E949F1F8CE00E942E149093220380936E
:104740002103209100013091010121303105C9F48C
:10475000892BB9F42FB7F894809114039091150325
:10476000A0911603B09117032FBF80931D03909360
:104770001E03A0931F03B093200310920101109217
:1047800000018091000190910101892B09F0E7C29D
:10479000809121039091220381309105C1F590937E
:1047A0000101809300012FB7F894409114035091B8
:1047B000150360911603709117032FBF00911D031D
:1047C00010911E0320911F0330912003401B510BB9
:1047D000620B730B4C3D5540610571058CF42091C3
:1047E0002403213069F420911B0330911C03232BF7
:1047F00009F0DAC290931C0380931B030E949F1F51
:104800008091000190910101892B09F0A8C280914B
:10481000210390912203892B09F0A1C22FB7F894AC
:104820008091140390911503A0911603B091170382
:104830002FBF40911D0350911E0360911F03709183
:104840002003841B950BA60BB70B8D3D9540A1054E
:10485000B10508F484C210921A03809124038823BE
:1048600009F47DC28EED95E00E948A1F8BE39EE1E4
:104870000E94DB1944EE51E060E188E00E94681C70
:1048800082EC90E00E94DB1980912403813009F4CE
:1048900090C2823051F44EEE51E060E284E00E941A
:1048A000681CB0921903A09218030E94CC1C10E05F
:1048B00000E0712C1BA21AA21DA21CA21FA21EA204
:1048C0004AE0B701C8010E940D27F70101900020BE
:1048D000E9F73197AF014E195F09B701CE01829612
:1048E0000E94271F1A8219821C821B821E821D822F
:1048F0004DE050E06EEF71E0C7010E94271F8AA0D3
:104900009BA08114910409F470C2CEA0DFA0C11451
:10491000D104B1F08D819E81C80ED91EB601C701A8
:104920000E94FF1E882309F460C229813A818D818B
:104930009E81B401820F931F0E94CF29DE82CD8217
:104940004D815E8169817A8185E293E00E94D8136E
:1049500042E050E06CE072E085E293E00E94D81300
:10496000C7010E94F71ECE0182960E94F71E61E0E9
:1049700081E10E94571461E089E00E945714C80148
:1049800095958795282F217028A7C801959587951B
:1049900095958795E82FE170E9A7C80163E09595A3
:1049A00087956A95E1F7F82FF170FAA7C80174E0CE
:1049B000959587957A95E1F7282F21702BA7C80147
:1049C000E5E095958795EA95E1F7E82FE170ECA78A
:1049D000C801F6E095958795FA95E1F7F82FF17003
:1049E000FDA7C801880F892F881F990B682ED12C2D
:1049F000C12C202F2170922E692D8AE00E9457141D
:104A000068A582E00E94571469A58BE00E945714A4
:104A10006AA586E00E9457146BA585E00E94571492
:104A20006CA584E00E9457146DA587E00E9457147E
:104A3000662D83E00E94571460E081E10E945714C4
:104A400060E080E10E94571461E08FE00E945714FB
:104A50006C2D61708AE00E945714B60175956795B8
:104A6000617082E00E945714B6017595679575953F
:104A7000679561708BE00E945714B601B3E075959D
:104A80006795BA95E1F7617086E00E945714B60108
:104A900084E0759567958A95E1F7617085E00E94DD
:104AA0005714B60195E0759567959A95E1F7617091
:104AB00084E00E945714B60126E0759567952A9503
:104AC000E1F7617087E00E945714B601660F672F07
:104AD000661F770B83E00E94571460E089E00E9414
:104AE000571461E081E10E94571461E089E00E945F
:104AF00057148FEFC81AD80AC11491E0D90609F0EB
:104B00007BCFE72DE170EEA761E081E10E945714B1
:104B100061E089E00E94571461E080E10E9457142F
:104B2000912C812CD12CC12C6EA58AE00E945714A7
:104B300068A582E00E94571469A58BE00E94571473
:104B40006AA586E00E9457146BA585E00E94571461
:104B50006CA584E00E9457146DA587E00E9457144D
:104B6000662D83E00E94571460E081E10E94571493
:104B70006C2D61708AE00E945714B6017595679597
:104B8000617082E00E945714B6017595679575951E
:104B9000679561708BE00E945714B60123E075950C
:104BA00067952A95E1F7617086E00E945714B60177
:104BB00034E0759567953A95E1F7617085E00E945C
:104BC0005714B60145E0759567954A95E1F7617010
:104BD00084E00E945714B60156E0759567955A9582
:104BE000E1F7617087E00E945714B601660F672FE6
:104BF000661F770B83E00E94571460E089E00E94F3
:104C0000571488E00E942E14880E991E61E081E1FD
:104C10000E94571461E089E00E945714FFEFCF1AF9
:104C2000DF0AC11421E0D20609F07ECF811481E0B1
:104C3000980609F459C091E090931A0380911803E3
:104C4000909119031BA21AA21DA21CA21FA21EA2B0
:104C500020E1A70160E070E0CB010E941827F70176
:104C600001900020E9F73197AF014E195F09B701B4
:104C7000CE0182960E94271F78948EED95E00E94C7
:104C80008A1F8BE39EE10E94DB1945EB51E060E156
:104C900088E00E94681C82EC90E00E94DB194FE0E3
:104CA00052E060E284E00E94681C4AA15BA160E2DD
:104CB00086E40E94681C0E94CC1CE1E0E0931A0389
:104CC0008CE00E942E14892BD9F38CE00E942E14C4
:104CD0000197D9F36CE271E080E090E00E94E61465
:104CE000CE0182960E94F71E0F5F1F4F7394F72D1F
:104CF000F1707F2E011521E0120709F0DBCD8091C4
:104D00001A0381117FC08EED95E00E948A1F8BE30C
:104D10009EE10E94DB1948E152E060E186E00E94DA
:104D2000681C82EC90E00E94DB1944E252E06EE1E4
:104D30008CE00E94681C0E94CC1C8CE00E942E1407
:104D4000892BD9F38CE00E942E140197D9F30E948D
:104D50009F1F6CE271E080E090E00E94E61464E640
:104D600070E080E090E00E94E61480E090E0892B03
:104D700009F4CBCC0E94C413882309F4C6CC0E944A
:104D80000000C3CC80915806882321F08EED95E079
:104D90000E948A1F812F3DCC80E0A5CC81E0A3CC6E
:104DA00080E0BECC81E0BCCC10921C0310921B03AF
:104DB00025CD80911B0390911C03892B59F443EF5F
:104DC00051E060E284E00E94681C50921903409216
:104DD00018036BCD49EF51E060E284E00E94681C4B
:104DE000309219032092180360CD89819A8100972F
:104DF00011F00E9479281A8219821E821D821C825B
:104E00001B829ECD0E949F1FAACF84ED95E00E9439
:104E1000F71E8EEC95E00C94F71EBB274A3031F458
:104E2000992322F4BDE2909581959F4F0C943B27E6
:104E3000BB27FA01A62F6217710581059105330B77
:104E400030FB66F0AA27660F771F881F991FAA1FDD
:104E5000A21710F0A21B63953850A9F7A05DAA33E2
:104E600008F0A95DA19336F7B111B1931082CA0180
:104E70000C945427BB27FB015527AA27880F991F9D
:104E8000AA1FA41710F0A41B83955051B9F7A05D79
:104E9000AA3308F0A95DA193009779F7B111B193F6
:104EA0001192CB010C945427DC01FC01672F719106
:104EB0007723E1F7329704C07C916D937083629100
:104EC000AE17BF07C8F308950E94A627A59F900DAF
:104ED000B49F900DA49F800D911D112408952F92D1
:104EE0003F924F925F926F927F928F929F92AF927A
:104EF000BF92CF92DF92EF92FF920F931F93CF93C7
:104F0000DF93CDB7DEB7CA1BDB0B0FB6F894DEBF5D
:104F10000FBECDBF09942A88398848885F846E8483
:104F20007D848C849B84AA84B984C884DF80EE80CD
:104F3000FD800C811B81AA81B981CE0FD11D0FB6D6
:104F4000F894DEBF0FBECDBFED010895A29FB00162
:104F5000B39FC001A39F700D811D1124911DB29FAD
:104F6000700D811D1124911D0895A1E21A2EAA1B16
:104F7000BB1BFD010DC0AA1FBB1FEE1FFF1FA21709
:104F8000B307E407F50720F0A21BB30BE40BF50B06
:104F9000661F771F881F991F1A9469F7609570958F
:104FA000809590959B01AC01BD01CF010895EE0F56
:104FB000FF1F0590F491E02D09940F931F93CF9359
:104FC000DF938230910510F482E090E0E0915F067B
:104FD000F091600630E020E0B0E0A0E0309799F476
:104FE0002115310509F44AC0281B390B243031053D
:104FF000D8F58A819B816115710589F1FB01938345
:105000008283FE0111C040815181028113814817C2
:105010005907E0F04817590799F4109761F0129674
:105020000C93129713961C933296CF01DF91CF9178
:105030001F910F91089500935F0610936006F4CFBF
:105040002115310551F04217530738F0A901DB0152
:105050009A01BD01DF01F801C1CFEF01F9CF9093B3
:10506000600680935F06CDCFFE01E20FF31F8193B0
:1050700091932250310939832883D7CF20915D063F
:1050800030915E06232B41F42091040130910501FB
:1050900030935E0620935D0620910201309103015A
:1050A0002115310541F42DB73EB7409106015091CD
:1050B0000701241B350BE0915D06F0915E06E217B7
:1050C000F307A0F42E1B3F0B2817390778F0AC012B
:1050D0004E5F5F4F2417350748F04E0F5F1F509308
:1050E0005E0640935D06819391939FCFF0E0E0E0F0
:1050F0009CCFCF93DF930097E9F0FC0132971382A6
:105100001282A0915F06B0916006ED0130E020E0D0
:105110001097A1F420813181820F931F20915D06A9
:1051200030915E062817390709F061C0F0935E06DA
:10513000E0935D06DF91CF910895EA01CE17DF0776
:10514000E8F54A815B819E0141155105B1F7E901FE
:10515000FB83EA8349915991C40FD51FEC17FD07D2
:1051600061F4808191810296840F951FE9019983F2
:105170008883828193819B838A83F0E0E0E01296AA
:105180008D919C9113970097B9F52D913C911197B2
:10519000CD010296820F931F20915D0630915E062D
:1051A0002817390739F6309751F51092600610929A
:1051B0005F06B0935E06A0935D06BCCFD383C28327
:1051C00040815181840F951FC817D90761F44E5F44
:1051D0005F4F88819981480F591F518340838A818D
:1051E0009B81938382832115310509F0B0CFF09321
:1051F0006006E0935F069ECFFD01DC01C0CF138205
:105200001282D7CFB0E0A0E0E8E0F9E20C94712779
:105210008C01009751F4CB010E94DD278C01C8015D
:10522000CDB7DEB7E0E10C948D27FC01E60FF71F48
:105230009C0122503109E217F30708F49DC0D901FF
:10524000CD91DC911197C617D70798F0C530D105DD
:1052500030F3CE0104978617970708F3C61BD70BC8
:105260002297C193D1936D937C93CF010E947928AB
:10527000D6CF5B01AC1ABD0A4C018C0E9D1EA091CD
:105280005F06B0916006512C412CF12CE12C109757
:1052900031F580915D0690915E068815990509F0BB
:1052A0005CC04616570608F058C0809102019091E4
:1052B0000301009741F48DB79EB7409106015091CC
:1052C0000701841B950BE817F90708F055C0F09308
:1052D0005E06E0935D06F90171836083A0CF8D9136
:1052E0009C91119712966C90129713967C9013973D
:1052F000A815B90559F56C0142E0C40ED11CCA14B9
:10530000DB0420F1AC014A195B09DA01129615970A
:1053100080F06282738251834083D9016D937C93C4
:10532000E114F10471F0D7011396FC93EE931297F8
:1053300076CF22968C0F9D1FF90191838083F30114
:10534000EFCFF0936006E0935F0669CF48165906E9
:1053500008F42C017D01D3019ACFCB010E94DD27F7
:105360007C01009749F0AE01B8010E94BF29C80135
:105370000E947928870153CF10E000E050CFFB0155
:10538000DC0102C001900D9241505040D8F70895C1
:10539000DC0101C06D9341505040E0F70895FB01DE
:1053A000DC0101900D920020E1F7089512E1CEE2B8
:1053B000D2E104C0FE010E94D7272196CF32D10747
:0653C000C9F7F894FFCFCD
:1053C60001000000610680001815A015C019FF181D
:1053D60015A115C819FF1815AE19FF1815AF19FF35
:1053E6001815AE15D5168015A8161F15D316001557
:1053F60040158D16141520160015A115C815DA16B8
:10540600021581168F15D916F115DB1640152E15C6
:10541600A415A619FF0001140A6464323200127A38
:10542600000004289610040000800020000A0002F4
:10543600000B00060005000400070003000E000034
:105446000000005713D813F812A413291307131BCF
:105456001300000000D815AB15F41E8115A4159194
:1054660015821500000000A81E801EF41EF31EF310
:10547600175D18E7174452414D2D54455354455274
:105486000020204F4646202020003431313620317E
:10549600366B003235364B78310036344B78310076
:1054A6005C002F0054657374206E6F2E31003E3100
:1054B600366B003E3235366B003E36346B00546533
:1054C6007374696E6720726F773A20000D0A004583
:1054D60072722E206F6E2000544553542050415353
:1054E600534544007072657373207374617274005F
:00000001FF
