:100000000C94761D0C949E1D0C949E1D0C949E1DAC
:100010000C949E1D0C949E1D0C949E1D0C949E1D74
:100020000C949E1D0C949E1D0C949E1D0C949E1D64
:100030000C949E1D0C949E1D0C949E1D0C949E1D54
:100040000C94EC2E0C949E1D0C94BA2E0C94942EB1
:100050000C949E1D0C949E1D0C949E1D0C949E1D34
:100060000C94362F0C949E1DBF0002020303030460
:1000700004050700FF06FF06000112022F0670208C
:100080000500BD012106B1B1192922075BB7495608
:1000900000230A2DB1AB86AA86AA00240A2DB15BE3
:1000A00035D820A505250934B1C920F60601260951
:1000B0002CB18B29563105270599B719280772B13C
:1000C00053CD00290872B189A952002A076BB149A2
:1000D000D56A2B0A2DB1CD280E9951042C075BAFA0
:1000E0005325002D060CB519012E0652B119012F0A
:1000F0000724B307B10D300873B1AB5C15003107AD
:1001000073B14BB235320A34B1533183588E003358
:100110000B34B11919248D645200340A34B18DAAFC
:100120001A318304350A34B1191A6C249302360A41
:1001300034B15319AC289302370B34B11919C40CDC
:10014000620611380A34B15331A9289302390A34AE
:10015000B15351A60D92023A076AB11971043B08D6
:1001600033AFB3912A013C086BB14D35C8203D082F
:100170001CB319198D003E096BB1C9208354023F8D
:100180000973B16BA60C1300400934B15351DD481B
:1001900001410934B153518E2903420A34B15971D6
:1001A000A4284702430B34B15351830C62520044DC
:1001B0000934B159D1391200450B34B1191AAC0CBC
:1001C000321801460B34B1191AAC0C32C800470A78
:1001D00034B153518334D300480834B189724C335D
:1001E000490773B159B1354A0B34B107196490818D
:1001F0004C0A4B0A34B1892A4999CA004C0C34B1D3
:10020000C920830C32C860044D0934B189E3886683
:10021000004E0834B1896BA9334F0934B153D199D9
:100220001400500A34B159518E944106510A3CAF22
:1002300053D15C49A300520934B159518ED40C53A7
:100240000A34B1533165542605540773B159B10BC3
:10025000550834B1899E4901560934B189CE241517
:1002600000570934B189E6386200580A34B189323E
:1002700049156500590873B1495659015A0A34B1F4
:100280001919C43618015B0773B119B1395C092417
:10029000B3C928A38C025D0773B199CD115E0553D4
:1002A000B96B5F060CB11901600652B9890161088A
:1002B00024B11B51A902620B34B1C9208315E54852
:1002C00000630723B19B1908640A34B10719A4110C
:1002D000651A650924B1536964A000660934B1AD9B
:1002E000CA99410467092CAF1B31A98C06680A34EE
:1002F000B1C9208315CD00690873B1CB4856036A94
:10030000097BAFCDB05415006B0B34B1C920839479
:10031000642A036C0773B1915D036D0824B14969C8
:1003200048196E0724B159D10C6F0824B1535126D6
:100330000570092CAF59518E940171092CAF1B51D6
:10034000A60D02720824B15951830C730824B11B05
:100350001A0D05740A34B1CB20CE0C321275072465
:10036000B189661A760763B1495605770724B189C2
:10037000721C780824B18949AA1879092CAF8932EE
:100380009525007A0824B119B11C017B0873B14D81
:1003900049D6207C05B1B1397D0A73B1C920AA982C
:1003A00022007E0714B94B2A01A00500BD01A10659
:1003B000B1B14923A20934AF8D23356702A3082CBC
:1003C000B155715602A40B2DB1C920CD14570601A9
:1003D000A50973B149AA5A3101A606A9B15102A7CC
:1003E000087BAF9BAA920BA8064BBB4901A90D3D08
:1003F000AF5B19A83455D2202D00AA061BB75B4964
:10040000AB071DB38BB201AC0714B3191904AD05CA
:100410004BB519AE0C3DAF5B198C34A7066901AF23
:10042000060CBB1901B0065BB7EB02B10B35B1CDC1
:10043000280E99511C02B20662B55106B30662B588
:100440001969B40652B95300B5082CAF89E64819AA
:10045000B60834B11B6AF503B70652B51901B806E0
:1004600052AF5300B90763B54B320DBA061BB7EB59
:1004700002BB081DB389A54C00BC0C3CAFC920834E
:100480000C62541B04BD0D3CAFC920830C92063195
:100490000301BE0B3CAF911A4415D50601BF097389
:1004A000B1CB30C55401C00934B153518E2903C1B9
:1004B0000934B153518E2903C20934B153518E29E5
:1004C00003C30934B153518E2903C40A34B1894995
:1004D000C5316500C50934B1932A8E2903C6093494
:1004E000B11BA91AAA25C70B3CAF5351830C6292CA
:1004F00011C80B34B1191AAC0C321801C90B34B144
:10050000191AAC0C321801CA0B34B1191AAC0C32DE
:100510001801CB0B34B1191AAC0C321801CC07738B
:10052000B159B135CD0773B159B135CE0773B15952
:10053000B135CF0773B159B135D00934B199697567
:100540008D04D10834B14973A933D20934B153D1E0
:10055000991400D30934B153D1991400D40934B19A
:1005600053D1991400D50934B153D1991400D60A46
:1005700034B1894945332900D70824B18949AA18DB
:10058000D80934B11BE9484702D90834B1899E49DA
:1005900001DA0834B1899E4901DB0834B1899E49EA
:1005A00001DC0A34B1891945332900DD0873B149EA
:1005B000565901DE0B34B1C960C59132C800DF095C
:1005C00034B15351955602E00A34B1CB288EA85469
:1005D00001E10934B1ADC1884A15E20934B1ADD2A7
:1005E000884A15E30A34B14B2A8EA85401E4093431
:1005F000B1ABE1884A15E50934B1937244A50AE626
:100600000824B11B69C501E7086BAF9B19A804E872
:100610000B34B1CB28AA34325000E90A34B1AD8191
:100620004A230305EA0B34B18B29AA34325000EB7C
:100630000B34B14999506964A000EC0873B1C9202A
:10064000C96AED0773B12B6535EE0773B1AB66353B
:10065000EF0873B14919C86AF00A34B1CBC88A32BD
:100660002900F10934B14B2AAD6806F20A34B1CB46
:1006700028AA289302F30A34B1AD818A322900F402
:100680000A34B1D3848A322900F50A34B14B2AAA3C
:10069000289302F60A34B1ABA18A322900F7092C5B
:1006A000B1D37064A800F80924B11B69A49100F9C2
:1006B0000934B1CBA834D300FA0734B16D9A69FB81
:1006C0000834B1D3309A69FC0934B1AB5134D3004A
:1006D000FD093CAF6DCA549600FE0A34AFC96045AF
:1006E000395206FF0A3CAFAB5194A92C010000001F
:1006F00004FFFF000000000000240027002A000083
:10070000000000250028002B000000000023002628
:100710000029000404040404040404020202020286
:1007200002030303030303010204081020408001B5
:100730000204081020010204081020000000080034
:100740000201000003040700000000000000000098
:100750000000000000000000000000000000000099
:100760000000000000000000000000000000000089
:100770000000000000000000000000000000000079
:100780000000000000000000000000000000000069
:100790000000000000000000000000000000000059
:1007A0000000000000000000000000000000000049
:1007B0000000000000000000000000000000000039
:1007C0000000000000000000000000000000000029
:1007D000216100000000000000000000000000C0D7
:1007E0003F1C00000000000000000000000000901E
:1007F000E481040000000000000000000000009000
:100800009C0F100000000000000000000000009895
:100810007FFB850000000000000000000000001ABF
:10082000FD67200000000000000000000000009EA6
:10083000CD3F040200000000000000000000001E88
:10084000D9FF41000000000000000000000000DFB0
:10085000EEFD0D000000000000000000000000DFC1
:100860003CFE060500000000000000000000009FA4
:10087000F7FF134000000000000000000000009F90
:10088000FBFFFF010100000000000000000000CF9E
:10089000EC9FFFFFFFFFFFFFFFFFFFFFFFFFFFC01A
:1008A00038FDFFFFFFFFFFFFFFFFFFFFFFFFFF8F91
:1008B0009EFEFFFFFFFFFFFFFFFFFFFFFFFFFF9F0A
:1008C000FCFF3F0008000000000000000000009F47
:1008D000BEF50D2002000000000000000000009F97
:1008E000FE7D230200000000000000000000009FC9
:1008F000EEFA070000000000000000000000009F6A
:100900006E0E200100000000000000000000009FAB
:100910003B37090000000000000000000000009EBE
:10092000BF5B000000000000000000000000009C11
:10093000EB81310000000000000000000000009882
:10094000ED0300000000000000000000000000981F
:10095000670402000000000000000000000000D05A
:100960001F18000000000000000000000000000050
:100970000000000000000000000000000000000077
:100980000000000000000000000000000000000067
:100990000000000000000000000000000000000057
:1009A0000000000000000000000000000000000047
:100B90000200000000000000000000000000000053
:100BA000CE0000000000000000000000000000C0B7
:100BB000FF0100000000000000000000000000E055
:100BC000FF13000000000000000000000000000013
:100BD000FE1F004048180000000000000000001840
:100BE000F03F00F00F07000000000000000000EFE1
:100BF000807F00247920010000000000000000E751
:100C00000FFE0024E703040000000000000000E7DE
:100C1000777800E6DF7E210000000000000000F190
:100C2000F3610046FF19080000000000000000E02A
:100C3000FBC78067F30F8100000000000000008FF9
:100C4000F91E8047F67F100000000000000000BF82
:100C5000FDFCD5B77B7F0300000000000000000111
:100C6000FCEFFF378FBF410100000000000000FED5
:100C7000F9E7FFE7FDFF041000000000000000FF9F
:100C8000C3EFFFE7FEFF7F4000000000000000FF11
:100C90001F00FF33FBE7FFFFFFFFFFFFFFFFFFFF2B
:100CA000FF7F00304EFFFFFFFFFFFFFFFFFFFFFF53
:100CB000FFFFFFA3A7FFFFFFFFFFFFFFFFFFFFFFF8
:100CC000FFFFFF27FFFF0F0002000000000000FFF2
:100CD000FFFFFFA76F7D038800000000000000FFFA
:100CE000FFFFFFA77FDF880000000000000000FF7B
:100CF000FFFFFFA7BBFE010000000000000000FC9A
:100D0000FFFFFFA79B034800000000000000000356
:100D100000F4FFE7CE4D020000000000000000FFDD
:100D20003F0080E7EF16000000000000000000FF19
:100D30003F0000E77A600C0000000000000000FFA8
:100D40007F000066FB00000000000000000000FFC4
:100D50007F0000E41981000000000000000000FF97
:100D60001F0000F40706000000000000000000FF64
:100D70001F00000000000000000000000000000054
:100D80000F00000000000000000000000000000054
:100D90000000000000000000000000000000000053
:100DA0000000000000000000000000000000000340
:100DB0000C00000000000000000000000000000126
:100DC0003E000000000000000000000000000000E5
:100DD0007E00000000000000000000000000000095
:100DE000FF01000000000000000000000000008083
:100DF000FF0300000000000000000000000000C031
:100E0000FF0700000000000000000000000000F0EC
:100E1000FF0F00000000000000000000000000FFC5
:100E2000FF1F00000000000000000000000000FFA5
:100E3000FF1F00000000000000000000000000FD97
:100E4000FF1F00000000000000000000000000D0B4
:100E5000FF1F00000000000000000000000000C0B4
:100E6000FF1F00000000000000000000000000E084
:100E7000FF0F00000000000000000000000000C0A4
:100E8000FF0F00000000000000000000000000E074
:100E9000FF0F00000000000000000000000000C084
:100EA000FF0700000000000000000000000000C07C
:100EB000FF0700000000000000000000000000E04C
:100EC000FF070000000000000000000000000020FC
:100ED0000000000000000000000000000000008092
:100EE000FF01000000000000000000000000008082
:100EF000FF0300000000000000000000000000C030
:100F0000FF1F00000000000000000000000000E0E3
:100F1000FF3F00000000000000000000000000C0D3
:100F2000FF7F00000000000000000000000000C083
:100F3000CF370000000000000000000000000000AB
:100F400000000000000000000000000000000000A1
:100F50000000000000000000000000000000000091
:100F60000000000000000000000000000000000081
:100F70000000000000000000000000000000000071
:100F80000000000000000000000000000000000061
:100F90000000200000000000000000000000000031
:100FA0000000E00C00000000000000000000000055
:100FB0000000FC1F00000000000000000000000016
:100FC0000000FE3F010000000000000000000000E3
:100FD0000000E0FF01008484010000000000000820
:100FE000008001FF0300FF70000000000000000807
:100FF00000F00EF80F40920712000000000000F809
:10100000017CFEE00F40723E40000000000000F84E
:10101000FF7F7F870760FEED17020000000000F0F1
:10102000FF1F3F1F0660F49F81000000000000F8D2
:10103000FF07BE7F047836FF10080000000000D0D4
:101040007FF898EF057864FF0701000000000000BA
:101050001AFFDBCFBF7DBBF73700000000000000A8
:10106000801FC0FFFE7FF3F81B140000000000008B
:1010700080EF9F7FFE7FDEFF4F0001000000000039
:10108000C0F73FFCFE7FEEFFFF07040000000000FA
:10109000E0F7FF01F03FB37FFEFFFFFFFFFFFF0020
:1010A000F0F7FFFF0700E3F4FFFFFFFFFFFFFF0084
:1010B000F8FBFFFFFF3F7AFAFFFFFFFFFFFFFF0094
:1010C000FCFBFFFFFF7FF2FFFF002000000000009D
:1010D000FCFBFFFFFF7FFAD637800800000000000E
:1010E000FEF7FFFFFF7FFAF78D0800000000000009
:1010F000FEF7FFFFFF7FBAEB1F00000000000000BB
:10110000FECFFFFFFF7FBA3980040000000000001F
:10111000FE3F0080FE7FEEDC2400000000000000A7
:10112000FEFFFF030078FE6E0100000000000000DB
:10113000FEFFFF070070AE07C600000000000000C1
:10114000FCFFFF070060B60F000000000000000079
:10115000FCFFFF0700409E11080000000000000097
:10116000FCFFFF0100407F60000000000000000065
:10117000FCFFFF0100000000000000000000000074
:101180000000F0000000000000000000000000006F
:10119000000000000000000000000000000000004F
:1011A000000000000000000000000000000000003F
:1011B000F83FC00100000000000000000000000037
:1011C000FE1FE0010000000000000000000000C061
:1011D000FF0FE0070000000000000000000000809A
:1011E000FF0FF03F0000000000000000000000C002
:1011F000FF07F83F0000000000000000000000F0C2
:10120000FF03FC7F0000000000000000000000FC65
:10121000FF03FFFF0000000000000000000000FED0
:10122000FFFFFFFF0100000000000000000000FFC2
:10123000FFFFFFFF0100000000000000000000FFB2
:10124000FFDFFFFF0100000000000000000000FFC2
:10125000FF0FFCFF0100000000000000000000FF85
:10126000FF01FCFF0100000000000000000000FF83
:101270007F00FEFF0000000000000000000000FFF3
:101280007F00FCFF0000000000000000000000FFE5
:101290001F00FEFF0000000000000000000000FF33
:1012A0000700FE7F0000000000000000000000FFBB
:1012B0000100FC7F00000000000000000000007F33
:1012C0000000FE7F00000000000000000000003E63
:1012D0000000020000000000000000000000001CF0
:1012E0000000F81F000000000000000000000000E7
:1012F0000000F83F000000000000000000000003B4
:101300000000FCFF01000000000000000000007F62
:101310000000FEFF03000000000000000000003F8E
:101320000000FCFF07000000000000000000003F7C
:101330000000FC7C03000000000000000000003FF3
:10134000000000000000000000000000000000009D
:10135000000000000000000000000000000000008D
:10136000000000000000000000000000000000007D
:10137000000000000000000000000000000000006D
:10138000000000000000000000000000000000005D
:1013900000000080000000000000000000000000CD
:1013A000000000803300000000000000000000008A
:1013B000000000F07F0000000000000000000000BE
:1013C000000000F8FF040000000000000000000022
:1013D00000000080FF07001012060000000000005F
:1013E00020000006FC0F00FCC3010000000000000C
:1013F0006000C03BE03F00491E48000000000000C4
:10140000E007F0F9833F00C9F90001000000000087
:10141000E0FFFFFD1D1E80F9B75F0800000000001F
:10142000C0FF7FFC7C1880D17F0602000000000016
:10143000E0FF1FF8FE31E0D9FC432000000000006F
:1014400040FFE163BE07E091FD1F040000000000C3
:101450000054FC6F3FF7F5EDDEDF000000000000F8
:1014600000007E00FFFBFFCDE36F50000000000096
:101470000000BE7FFEF9FF79FF3F0104000000007D
:101480000000DFFFF0FBFFB9FFFF1F1000000000AE
:101490000080DFFF07C0FFCCFEF9FFFFFFFFFF006A
:1014A00000C0DFFFFF1F008CD3FFFFFFFFFFFF0027
:1014B00000E0EFFFFFFFFFE8E9FFFFFFFFFFFF0096
:1014C00000F0EFFFFFFFFFC9FFFF038000000000F7
:1014D00000F0EFFFFFFFFFE95BDF002200000000EC
:1014E00000F8DFFFFFFFFFE9DF3722000000000008
:1014F00000F8DFFFFFFFFFE9AE7F00000000000003
:1015000000F83FFFFFFFFFE9E600120000000000C7
:1015100000F8FF0040FAFFB97393000000000000DC
:1015200000F8FFFF0F00E0F9BB050000000000001D
:1015300000F8FFFF0F00C0B91E18030000000000F4
:1015400000F0FFFF1F0080D93E00000000000000F7
:1015500000F0FFFF0F00807946200000000000002F
:1015600000F0FFFF0F0000FD8101000000000000FF
:1015700000F0FFFF0300000000000000000000007A
:10158000000000C003000000000000000000000098
:10159000000000000000000000000000000000004B
:1015A000000000000000000000000000000000003B
:1015B00000E0FF0003000000000000000000000049
:1015C00000F87F800F000000000000000000000015
:1015D00000FB3F801F000000000000000000000032
:1015E00000FF3FC0FF0000000000000000000000FE
:1015F00000FF1FE0FF0000000000000000000000EE
:10160000C0FF0FF0FF01000000000000000000001C
:10161000E0FF0FFCFF0300000000000000000000DE
:10162000FCFFFFFFFF0700000000000000000000BB
:10163000FEFFFFFFFF07000000000000000000C0E9
:10164000FFFFFFFFFF07000000000000000000F0A8
:10165000FFFF1FF8FF07000000000000000000F877
:10166000FFFF17E0FF07000000000000000000FC83
:10167000FFFF01F0FF03000000000000000000FE7B
:10168000FFFF01F8FF03000000000000000000F869
:10169000FF7F00F0FF03000000000000000000E3F7
:1016A000FF1F00F8FF010000000000000000000F15
:1016B000FF0700F0FF010000000000000000007FB5
:1016C000FC0100F8FF01000000000000000000FE27
:1016D000F90000080000000000000000000000FE0B
:1016E000730000E07F00000000000000000000FE2A
:1016F000030000E0FF00000000000000000000FE0A
:101700000F0000F0FF07000000000000000000FED6
:101710007F0000F8FF0F000000000000000000FE46
:10172000FF0100F8FF1F000000000000000000FEA5
:10173000FF0000E0F30D000000000000000000FCCE
:10174000FF0000000000000000000000000000E9B1
:101750000003020405040506101100FD0AFD0BFF3D
:10176000019C034904D820060090A7002108B11865
:10177000A6384402220834F6A6884C01230E86328D
:10178000A6895A86256A1996A8052414B7F2A50BCE
:1017900007258AA43049D7248CA4CA2066002511C5
:1017A000A712A609952829B5C669D4524AC40426A9
:1017B00012A712A611A32CCAA250D5A4A416552272
:1017C0002D270631F8A618280CC3F6A54AA224EA4C
:1017D0002DCA02290DC3F6A5C8A22CEA254A22006B
:1017E0002A0D7772A62B55DAB6A4A996012B0C7791
:1017F00032A68B6BC390C535002C0952B8A5189240
:1018000044012D071792A638042E072218A61802A5
:101810002F0CA712A64EE3B49C96D318300DA71236
:10182000A6DA2AA9AF49964D00310DA712A64BC5DD
:10183000248BE2DE8621320CA712A6199454EDE720
:101840006108330FA712A638C4697507E2584D0620
:10185000053411A712A64DC5248B6A49980C431A6A
:1018600057003510A712A638C8952111E3B29A0C7B
:101870000A003610A712A61AA234AE0C89A85A93F1
:101880004101370FA712A638C4699CC6699CC621BE
:10189000003811A712A6DA2A6992655B2555932CA8
:1018A0009B003910A712A61994D4511992B81A0D99
:1018B00011003A087218A618E2213B0BA2B8A5182D
:1018C000E2214914003C09A514A6CC3AA61D3D0A04
:1018D0004752A638E48443003E0AA514A6483B6656
:1018E0001D013F0EA712A61994548DD3E61CCE00FD
:1018F0004012A712A61994D4342899124D8A9C0339
:101900008302410DA712A64B93AC925A87AB354286
:1019100012A712A618A43049C56490C224352683A4
:1019200004430DA712A6199454EE6B322800440EFE
:10193000A712A618A43049FD980C1200450DA71255
:10194000A638C8E5418A9B8721460CA712A638C84D
:10195000E5418A3B03470FA712A61994546E1B5208
:101960006B322800480BA712A6485D87ABD7004909
:101970000BA514A618A4B09F06014A14A812A61B12
:10198000D41CC8811CC8811CC88128CC860C4B1271
:10199000A712A648C5248B6A63124659294CD20067
:1019A0004C0AA712A688FBF330044D10A712A648D4
:1019B000D56DA92815299222D51A4E0FA712A6482F
:1019C000D551C9A4484BC4D51A4F0CA712A61994D7
:1019D000D45F934101500DA712A6B8A4D66148E286
:1019E000CE00510FC7D2A51994D42F995419D41CE5
:1019F000105210A712A6B8A4D66148A2AC1426A90A
:101A00001A5311A712A61994D40EEC800EA86A32AC
:101A10002800540AA712A63864717F03550BA71239
:101A2000A648FD6B3228005612A712A648AD4916EB
:101A30006551560993304933005710A712A6483D07
:101A40004552244552A4744B005810A712A648D5FD
:101A500024ABA4719A6495540D590DA712A648D5CC
:101A600024ABA4716F005A0CA712A638C4699FE377
:101A700061085B0AC4F6A518B4FE6D085C11A712D4
:101A8000A6C88138077220CE811C8873205D0AC4E5
:101A9000F4A518B2FE6D105E0A47D2A64B93AC9225
:101AA000065F0718F0A5380860073316A7C80A6153
:101AB0000F7712A61974204E862115952109620F01
:101AC000A712A6885B864454ADA3322400630C772A
:101AD00012A61994546E4D0605640DA712A66E1930
:101AE000127175548624650E7712A61994541DCE72
:101AF00039302800660EA712A6DB4A5914878318CE
:101B000037026714A7B2A51912310993301AA21C23
:101B10001894544D0605680CA712A6885B86445499
:101B2000BD06690AA514A6D1D1B1A7416A0ED6B2E5
:101B3000A5D4296B57D1980C09006B0FA712A68862
:101B40005B3525D1D444CB94346C09A514A618FB7D
:101B5000D3206D107712A658942892222992222918
:101B600052036E0B7712A648864454BD066F0C775D
:101B700012A61994D46B322800700FA7B2A548861C
:101B80004454ADA332247119710DA7B2A519127175
:101B9000755486246E720C7712A688262D0993B888
:101BA00015730F7712A619945407061D509341011F
:101BB000740D9712A68AC3618BBB650B00751177F4
:101BC00012A60893300993300993301A9200760FC9
:101BD0007712A648D5248BB24A98A41900770E77BD
:101BE00012A6484D91144991D22D01780D7712A675
:101BF0004893AC9256B24A1A790DA6B2A5087D5305
:101C000096544C86047A0B7712A638A4BD0E430076
:101C10007B0DC5F6A55AC26AA4A959581D7C07C1F7
:101C2000F8A5F8007D0EC5F2A558C35AAA4969580F
:101C300099007E0A37F2A6D1A448530000000004A0
:101C4000FFFF4E24230ED5C1D5512D1C0E3AA0A363
:101C5000523CDC111D5593E14115655116655196B5
:101C60008658D3011D4E2A290FD3C1CEB14C87EC23
:101C700098A263911A0D0FB2A803A23C64B222C9C4
:101C800092A26A912A8B3AA0A943A44319004E2D2F
:101C9000290FD3C11375409492E19BA8038A1DD3E9
:101CA000D2E1A0233A36DC21351A1E645107441DC7
:101CB00050061D907644074E3A370FD3C11A327141
:101CC00088122D93860F8A4D524C43320CD290B815
:101CD0002492629386414B4A4A36484B246543120C
:101CE00025D2304899A22592340C913A24004E3BDB
:101CF000280FD3C1AB63764494D5288C86D38EEE5F
:101D0000409628A9A868AA6495A4588A643507C48F
:101D1000DAF010E528004E48350FD3C1CCA4708806
:101D20008665C824518B944C1A3E6BDA3044430EBE
:101D30004883320CD1124789988489940C49A6585B
:101D40001249312591120D5B3C44004E4B350FD3A7
:101D5000C187921CB36489920D83A6448A2629A662
:101D6000411912294D8CE1323C284AA22443221DFC
:101D7000064D1B126548863851121D9876244C007A
:101D80004E5D2A0FD3C1CAB16C78887444D3116DEB
:101D900078D3917078B3C492964AC3102A4A245AD1
:101DA000D2681834558EB5241A1E4E5F260FD3C143
:101DB000D474449392E1A3A6235A920E071DD161D5
:101DC0001DF859477770D021636654C4E10E5C005A
:101DD0004E662A0FD3C1CAA1501A064DD401518AAA
:101DE00086074D54448BA8448AB80C272D8DB6E144
:101DF000CD92683E6DC3908569024F462D0FD3C1C9
:101E0000D2A45499A44891864919A6E1A24491E22A
:101E1000A8382A8E8ADBB09886C429F1A8583625BE
:101E2000AA44431A4971184F4D280DD5C1CB815092
:101E3000192E4AA67852A42453A45951C6285B648B
:101E40006D38486E924D99D42507B4218B35004FDB
:101E5000532F0FD3C1CA8C9AA264CA708834454DDF
:101E600092E18B53321CA4C49764B80C91324A8B14
:101E7000AC1C93411922C54B14294A390A014F5C05
:101E8000290FD3C1CDC14CCC869F522931A68A944B
:101E900003AF928E8462343CA88A8E293AA688A920
:101EA000224A87415187054F602F0FD3C1CA09527B
:101EB0009C49C3C9A80C83A849A27418A42111A5E0
:101EC000610895441995441A064D123549D4245198
:101ED000938641AB4600505A310FD3C1C9A1344754
:101EE000C42D1A958AB22A8B124A91222D92A20CE5
:101EF000C922264A3264CA944CD1A84CAA32A98A73
:101F0000365CB41C887214513F280FD3C1D474447A
:101F10009392E1A3A623610E3CC89A0E88F2F018B2
:101F2000EEE090638A0ED9114DD6865007520051CB
:101F300043340FD3C1CB09872C93B2414A061D48C5
:101F4000A2448B12A5322C529269C345DA116989D9
:101F5000322551064953A2CC12659621B344D1963D
:101F60004311005145350FD3C147A26C98143189F4
:101F7000164D3155942119166590A46191D46518B8
:101F8000A42191C4219134451906C5498B1449CA2D
:101F90001449C9966110A31C514632FFD2C18C86E8
:101FA000211926455234455234455226455994C488
:101FB000B22843322CCA900C8BB42CA6E5A02992EF
:101FC000A2293AA6E898A223C301514827FFD2C10B
:101FD0004987215215D12286929A49D2F0491ED5BD
:101FE000211407D1222A89242E9A3685623CE4A83E
:101FF000065149270FD3C107C3E11DD121695825D7
:1020000035193EE604314786411D72201C1EA2266A
:10201000C5A72E3A38E4A804514B320FD3C1D9E1F9
:102020001D4994683888A9225A9461506CA32249AA
:10203000C3321C1453A2448A344C8A942891220D32
:1020400093224A89711814758A0051652A0FD3C1E9
:10205000CE295A38BCD681211AB3488B8607451E33
:10206000B52156C6501E326D8895359307291CD26E
:1020700068C8110051682C0FD3C187E21C11C561DB
:10208000C8C42C4C1535E9367CD2C4CCB469831451
:1020900069A2A42492380D4AB4A55216CED190015B
:1020A000516B250FD3C1CE093AAC4399960E075117
:1020B000B24A56C92A5992E1F30E2A3AA4E9803A63
:1020C000EAC01D4C00516C290FD3C1D6A14C4B87DF
:1020D00083285925DBF071D181211B95E1499112AB
:1020E0005152AAC34187226DB8E8E80E67005173C8
:1020F0002B0FD3C109D33094363151A561507244AE
:102100008D42255392619092540752599592D27004
:1021100048645556577595631151762B0FD3C10BF3
:102120007348DAB245192645B2482E8B242D26175E
:10213000C9457291164991944919A64C5964259341
:1021400055594D0152292C0FD3C1D474449392E1B7
:10215000A3A603610E693AA08991A20C87440A35AF
:102160002991CC8A32889114A6666588B71CCA006A
:10217000522B330FD3C18AB34C49868BA5651832D5
:102180004919B2A4494C2AC3902D99A888D3306428
:10219000CBA226C930488A63140D43122B3A360C61
:1021A0003A9003523031FFD2C10893611A86504AE7
:1021B0009428D112A575D8A424518683A2648A32AA
:1021C0006C4A942899AC8AC3264B913C2489386484
:1021D000431AAB005236260FD3C18772829885E22C
:1021E000B0898A6811A544191E14D1225A4471106D
:1021F0002DA998233AACC33A9C025237270ED5C179
:10220000CD611D08C568784834D3F0A49986A750DD
:10221000CC012D87941D1974684B8749DA863BB031
:1022200000524D290FD3C1CC097728CCA161276476
:10223000C9F0A52D49B7411B1425DE062D69515261
:102240006D88452919BE89B22A02526A2BFFF2C154
:1022500087E23053226938448A2C65A2980DD3B0A6
:1022600048A22689DA306A92A80DA39248E264DB7C
:1022700024311A0E0153412D0FD3C119DE9168C7C5
:10228000C468785034511A1E224D9486874813A58D
:102290003631316689322DA67050D42889863B703C
:1022A000C80053431F0FD3C1CAB16C788834FF36BE
:1022B000BCF96FC39B9F444D1235298D862407239B
:1022C00000534E350FD3C1C9C238D254291BA46460
:1022D00018724CC9922CC906456993926450D42453
:1022E00091D22891A4291906454A244D31694A649E
:1022F00053925B92D50053552F0FD3C18706291CEB
:102300004659CA94E110A53B900DDA2025CA244510
:1023100052A6C4A1340C9A49D4147548346988442F
:1023200045CC86D4025357310FD3C14B7344D401EB
:102330005156A54C498641912C52A429CA202A52B3
:10234000222A9A92299A62B22C9232444926A59A5C
:102350000E483B906600535A220ED5C1C7D2E19079
:10236000233AAAA33A2A26C383ACA33AAAA33AAA39
:10237000A33AAA63438EE60053612B0FD3C1D66103
:102380001D5C7444DD7468888641CA91301C86CC1B
:10239000A4D886C52629B661B1498A2D13B5689B94
:1023A000C234025370300FD3C1CD816418926108DA
:1023B0006529923249914C83B4688916A9EA382676
:1023C0005AA229922259166592222953656D0887CF
:1023D0005096005374300FD3C1D391501B864C4A92
:1023E0002CC341112D9A9628D9701027458912497E
:1023F00091B261915C2497451A169BA44899B2C882
:102400005216025427300FD3C19292301B1E924CA9
:1024100091948AA46C9B14468A3869C3341C522553
:10242000931565966AD9F010E5900E0C8A328C43AC
:102430008E4A00544A290FD3C1CDE11DD57244D430
:1024400081581CDE862599252507241DB243764434
:10245000D3114DCB442D52874147060554582E0FBA
:10246000D3C1942259B20D83144BEAF0CD8E448926
:10247000140D83628B15295122251A0669B50D8327
:10248000322589A62899A46D4A2C552E2E0FD3C12A
:102490000C7560535265183455C9B461501255CA51
:1024A00094E1104971260D27A326293649B1498A9E
:1024B0004D4A8C9A362972025546290FD3C1938C06
:1024C000894B347C50D2448A86B3A623C3902369B7
:1024D0000EBC633A321C724C4C86EF800E0E399C57
:1024E000035668380FD3C14BC3E1431625DA904435
:1024F00043920C49942815251AA2488992214986AD
:102500004392685A9265E2902AC3344C8A2591A27C
:1025100055498624DA1453D6005728240FD3C1070F
:1025200072828E6AE970D0111D9593E1AB8EAAF18B
:102530007088531DD5114907777887630057302D70
:102540000FD3C12C2B9A3C6452960C076D93134DFC
:1025500089166518A2920E7C88952C9694718856DF
:10256000459B34451A8734CE2100573A310FD3C1E9
:102570004BC368194EA2A668899228519228C9B403
:1025800068CA2085A1942825299386210C0F5745D8
:10259000B3244A326CA6345954AD00573E2B0FD3A6
:1025A000C15265559614C9451A0E89E422598643CD
:1025B000B444A6515DC52191A46191A4C5E42259FA
:1025C0000E8728D281005740280FD3C11673641894
:1025D000B44C4B878328ABC32195D5E1904A528EEA
:1025E000A9C9F06DD821C52C499B6D505305575B87
:1025F000300FD3C14B73604AA44C1A2E9A2855D27F
:10260000285AB3411A461D557224193E88CA0E290C
:102610004A3A448A322499A444D196433100592736
:10262000250FD3C10C7560D30151CA94E190A86AFB
:10263000A28999349C9444F36D18327F1B86CCA7F1
:102640002D2C0159292C0FD3C18CD27019064DD2D3
:102650003C899A92686EC39059124D4C8A6252140A
:1026600093A29814C5A4498B9292944E7520015957
:10267000342B0FD3C1ACA89B928A52A60C87441668
:10268000132992326950262D1942751507514B9422
:1026900050526C8AE42A65E25C0559392D0FD3C18A
:1026A0000C75605262C9282983A40D5145D4014D8F
:1026B0000BA561D0A44856A54C190E912A8B43AAAC
:1026C000499B244E75200159732B0FD3C1D691E13C
:1026D00021C77264187428D9B19D1066C3433A6447
:1026E000AA22A9CA122B433445DB9A483B324473D1
:1026F0003C0459792B0FD3C15693E1930E0F6F39D8
:10270000140E6F3A200E072DC98ACBA04C499F9614
:102710009E926450A6A5A7241A968AAD00597D31D1
:102720000FD3C187B2241B8648D154658AA52C29B2
:10273000A9C390A851624B94C4A62C2617A3A20C3F
:102740005A32298B122A520E4839B4C309005B5001
:10275000280FD3C18D726CCA214D0754F31029C3C1
:10276000900CA124A59A0E687316E5A09403EF902F
:102770000EEBB09A0C1F5B57270FD3C107D36C1811
:1027800042555665551C4429538643A4CAAAACCA6F
:102790004A268FE290AA39A083438EAA005B582B69
:1027A000FFD2C1CAA1501B864C8775281994E12419
:1027B000EA80A803A29669C32029B1B603CA902370
:1027C000520E443A38E4A8045B662B0FD3C147C3CA
:1027D00078D0A46195AC926D182425938693AB6450
:1027E00095ACCA262E9A34444AA21415A53A2C73E5
:1027F0009425005C312E0FD3C1CB816C189261C837
:1028000072201CB4411AB452D6348863122ACA30DA
:1028100024A11D1C0EE9B0A5D9B00E8724193EEBEA
:10282000005C40290FD3C1D474449392E1A3A64322
:102830003A414D862FA11A0D0F8A264A9A2869A27D
:10284000A48992A64DA1982339025C4F2C0FD3C1C5
:10285000D474449392E1A3A623C3A0039A0E885292
:10286000260F510EC5C3214E7540D3214507071DC4
:10287000D1862D0724005C5E250FD3C1D474449308
:1028800092E1A3A6435A8E88B26A56A2E19392C9F6
:102890008A244B8AAC25B22A8B73115C71280FD322
:1028A000C1D474449392E1A3A683833CECA89A0C10
:1028B0005F951C9374641AD2215286C955D2213B6C
:1028C00094C5005E26280FD3C1D474449392E1D3FB
:1028D000701023450A8783A8382A8EC3411DCE4332
:1028E000264B833C5C92E1B30EEB005E382C0FD399
:1028F000C1D4A464F8A8C9C341CCD468F8904452A8
:10290000A264C3944652387CC9E468785024457266
:10291000915C24298BA2055E552D0FD3C1526551C0
:1029200007342D945265F8A4499B9248E2F0104D6B
:10293000B64D92864C92864C92124D12254D9B427A
:10294000314A33005E72310FD3C112B3501B86CCB3
:10295000244AC3362C912A0D272593372D5B944C9E
:102960005994D2B024966488A2214AC4C4E4A28CAB
:102970004916C529005E73300FD3C1526575D0A4C6
:102980004896860F8A16596CCA705B4CD2220DD1BC
:10299000A465432425C9202D15D3A04552528AA6EB
:1029A0006C90AA0B005E74320FD3C1927220928693
:1029B0009329320D1F9445B254246538444B9C4DE5
:1029C000D56951922119A26458865451123153127B
:1029D00051D986414A87055E762D0FD3C1B2899AB7
:1029E000A264CA70882C52327C5ADC94E1102D6E9D
:1029F000C3D3A428D1902CE290DC1265B12D96931C
:102A00002265A5145E7B320FD3C1D28641D21493C6
:102A1000360C92A628C3A00C83A44552A444523875
:102A20000DEA284587877488127148328B498B14C8
:102A3000658AA63A10025F53320FD3C147736418F8
:102A400094AC120E5A122A531225CAF0A00C49C592
:102A5000322415CB90549461482A4A942815791A47
:102A6000625556E5E1AC2A005F552A0FD3C1C77203
:102A70008256D5065553A6E1A264167552066952D0
:102A8000BC0C8A924DD128CBB10EE770320CA23427
:102A90002C005F622E0FD3C18772821265C9302865
:102AA0008394498AA4688A362A923229C64159B247
:102AB00024319906C9944576C88E683A90EA700622
:102AC0006027370FD3C12D49C93028C3A0494BA275
:102AD0002D4B320CCA9288CA922859B2244A962C9D
:102AE00089D2B25486241906A5451A928E495BA64E
:102AF000B49512694AC304603B390FD3C14E734485
:102B00005BA248938643222991362CC990288912CA
:102B100049D1900C43A4289194582225599468488F
:102B2000A42131454A6299232511A325D1C2240B42
:102B30006234320FD3C10B072952863149A56C7814
:102B4000886A52B40C0745596C8A326C8AB248CBF9
:102B5000705AA52491862154D5E14152948A964811
:102B60004A2262402B0FD3C1CB01551B362519E2F7
:102B7000415225A3529332653844A3ACCAE2908AED
:102B80004AAA249238D92651ABAE399000624B2F15
:102B90000FD3C1CB2455194E4A228943326C922956
:102BA0005192E1102D6E92629386419322591A063A
:102BB0004DC9E46518A4558EA5783804624D340FCC
:102BC000D3C1CAA2244AA6E1A22989920CC9900CB9
:102BD00049942889A5226D4A74D92A912869DA3046
:102BE00048A2A429916D191E42290CC5350712006F
:102BF00062532C0FD3C1D609B31A46C383A25525FD
:102C00004D89A464181465131769949441939461D1
:102C1000B2244E4AE2342951660B8B00626B2D0FB1
:102C2000D3C152734095C5751CC221322543122A67
:102C30008979519261C84CA226899A326A52AAE9CE
:102C4000882666DA3048E9B000636E360FD3C1C912
:102C5000A1344A456588D44489A45089949A320C99
:102C60008934292625312E892D5112654A86C4B210
:102C7000288965D11465912C92A20C5125540064C9
:102C8000442C0FD3C109E32C1B4E1663A458D26108
:102C90009042C5A429266D18D41C0993E1206592A1
:102CA000B649DA266993E6314A33006458300FD3C7
:102CB000C149E3281C0649536C99A2CC8A251C2ED5
:102CC000A20E88636918B44A2865C9B06C49986C2B
:102CD000C9B06C499868D130D5C2006478310FD33F
:102CE000C148C5481A266912B54C548749C9A14143
:102CF0005186C92259872111C56413A349C9246586
:102D00005224458B32298D86709824006536290F10
:102D1000D3C1D6A1508C860F522C655A120E871C37
:102D20001073E05591D46CD8213B34EC901DB24324
:102D3000CA0E652900653F2F0FD3C1CAD468F8A019
:102D400048A664B8A4928E0C838E4852363C84E622
:102D5000E1100E992245C390858A8E29430E283BA7
:102D6000A20E120065592E0FD3C12E69464D8A93CB
:102D7000E1904649940C9F14A5A2294A4553A621E7
:102D800053544D196E8AAA29C36DC881481A1E87EB
:102D900041016570340FD3C1C9C168785074481AB5
:102DA0001E225BAA4889122DD29029CA302883940A
:102DB000888A942891A2C5CA70504C91A6484A1896
:102DC000696296291200662F2CFFF2C18A5D326972
:102DD000388951A86452342CD2A428D990444B94F9
:102DE00024B6441C425995C75191142D52B4214B1D
:102DF000D404663E2E0FD3C14A676D07A4E1A4290F
:102E00002E91A20C83320C8A2F91621912691894A8
:102E1000219445459C32CB70502255CA621D9600C4
:102E2000667A2AFFF2C1CBE11D08B561887440546F
:102E3000524D1995645086932CEA8036A8628EE82C
:102E40004828ABDA100E610E8800672C310FD3C111
:102E50000B7364D3325119125107A22447A2494B74
:102E6000064919246993A44453064953544D4E34DA
:102E700051D2942133A5D28E841100673A2F0FD3FB
:102E8000C14B736089A44C1A2E5AAC44D5245A867F
:102E900069908C9AA489C33448B22AC6C930689212
:102EA000A60C99291D861C092300676524DF12C220
:102EB000CC916458864192555955426D98864D562D
:102EC000E5515632599186501A64250A87036821C4
:102ED0002B0FD3C1AE031F94164D4C8A5AA44AA19E
:102EE000351D442594864153652D59B52109A548C2
:102EF00099864C4AA664C851156837320FD3C189E8
:102F000086218A867488946449A4211D2225591239
:102F100049E9220DC921AA46C9F04107A7E1940356
:102F20003A360C39A8C3523A1C2400683C2F0FD300
:102F3000C1127344DB014DCCB4647848351D91B6A1
:102F4000501A224D1A244BA2448B92A89192E888E1
:102F5000A6239A8E68F2A8031900684C2D0FD3C1DE
:102F6000D2A14C1B064947341D90063149E528DAA9
:102F700086411952291944A5A2845A226B89ACCAE8
:102F8000AA38A4EA2A870068632C0FD3C152734081
:102F9000955529D3860751C974405B95431646C39E
:102FA00017254AB44453B4445394CCA2649641B216
:102FB0006D3A086B2130FFD2C1528741CD4C496632
:102FC0002A4943122543A48489260D91A623D210B1
:102FD0000E43A20C8BA69834C5A429264D19942D16
:102FE0008A33006B4C300FD3C1C9A21C18245991ED
:102FF000A44C91864991E4419215498B94E1A098A3
:10300000D6415242455234457291A4C5A445C9A443
:103010006665006B63310FD3C1C9526D9086491943
:10302000A64C913249596CC39484CA708814555384
:10303000B471D0A448190E8A4D55345551123599A2
:10304000C62C4C016B642F0FD3C1C9CA83122991BE
:10305000321C14654815658E0665D8141D53868389
:10306000E271508C8AA3E2A8B8448A976489862DBD
:103070000917006B7B380FD3C18992301C124D8B1E
:10308000124D8B86458B1265588644D3A2E116C536
:103090005A941C94216952A2A449899229892AB57B
:1030A000529228533428CAA44461006C602D0FD377
:1030B000C11A0EA2D22226CA9044C3872CCD9441B5
:1030C0001994EC9AF41C55878758D1912519A5417C
:1030D00092933AB4CC3A20016D3B300FD3C1AC0E81
:1030E0009BAC4A99345C64558B9448542CC3A0988B
:1030F00094213129C321522629523455D1A468D0B4
:10310000A448D1861D1B12006D412B0FD3C1CC4AA0
:10311000C364D3864112256B96E9A85A19166D31FE
:10312000659222299AA225A1225AB471905CA450DA
:1031300007D2046D4E290FD3C1AC439AA444436215
:1031400052B451D1B4441992E1A00E392119BEEA0A
:10315000A89C0E076D4835459587730D6D4F2F0F51
:10316000D3C1CE81CB70B24A56451B2E9A3A84CA3F
:10317000E190542C4352B10C49C5322415CB902C0C
:103180009621558621559475CD81046D6A310FD3F2
:10319000C14BB238E931E9222A522426593A7C4AF5
:1031A0004A39B20D524B160D4392452D526549A432
:1031B000484994A696448B2A4DE112096D77300F49
:1031C000D3C187D22C1B074D8A14691812CB240D4A
:1031D0004A3264CA262A92A20D4A2425B6E1224D1B
:1031E0008A25510EE21055776CC774046E38260F8D
:1031F000D3C1191E22298B4C59240D0F39876C78A5
:10320000C8011DD6A14C87A4619574C80ED9216B45
:10321000327C706B310FD3C1077424D5B2E1211217
:10322000E3449487874CD40151079461D0D68A1423
:1032300029A1A44859924891A20C61525186439405
:103240000D1300706F330FD3C1077424D5B2E12181
:1032500092722491D468A90C9392D594ACA624833D
:10326000122D592551A229539241C9A225994C5991
:10327000949594308E007136270FD3C1D5093B1237
:10328000A6D1F041AA499922C59A8E8CF170089571
:10329000D0B4EC90A2A33AAAA33AB6430072472D49
:1032A000EFF2C1CA11515D453551127958E44449D4
:1032B000B428519261481225B10D8B55535425B154
:1032C0000E43A20D496289C2E1007259380FD3C181
:1032D0008772208BA44C4B94491B86245132251AAB
:1032E0009661481225D18644493425519261488619
:1032F00045F32519866C18326548124D4AA51D09FB
:10330000230072692F0FD3C14794344B8CD290A401
:10331000523226CA70192635518683A224B644D962
:10332000A4E1934BA65C87A932246B140E77E0903E
:10333000007279310FD3C14774208BA44C1A4E46CA
:1033400025514665785012658C12655694E1978A2E
:1033500064A948CA708886A5322C4B4509956488B3
:103360002B0075282F0FD3C14DD264F894449AD204
:10337000B229C383D22246493BD26558BA69499BD8
:10338000B61C9634D38621D3D24C1B864C2926C337
:10339000207531350FD3C1CDD261C8A22C898621C9
:1033A0006959B4E1416959942EC321A92C4A976106
:1033B000505A166D1922A53AFC1029692229C3908A
:1033C0000C4B1885090075352F0FD3C1AD0D433255
:1033D0000C51922651D21429C387A44F499F92BE03
:1033E00028956D482A6A72785C5A8641E9AAB40C1D
:1033F00083D2713804754C300FD3C1C8D270D8361F
:1034000045B46852A4489A3228C32129A5990E6B65
:1034100062360D17CD922889A62493A60C99451DD6
:10342000861CD11400767B360FD3C19122395A867F
:1034300087449692619006459392CA3044494593D9
:10344000066518A2A42465496998928A260DCAA225
:1034500085D13A6489B44A43AA2600767E360FD3D2
:10346000C191A2418B96A6614B32291C92645034C3
:103470002929A649536950864169511229A92889E9
:10348000945486211A14259172241EA261D9C6B9BA
:10349000007740350FD3C1CA227950A4304B866DD6
:1034A00099342551126918944D5D966418B24919E2
:1034B000C26C508621524CDAA0489A62D21493967C
:1034C0001CA62CCA220000006000030304050406A9
:1034D000060F1700FC10FC1000020B04010602206E
:1034E00006001054012108021534F1A144220934C8
:1034F000B65521998802231E08135427114D449272
:10350000916424911C0E928948E57090A849641238
:10351000D144A404241448D3532796D22CA322794F
:103520009F89A5898D2A9601251808135423B3482D
:10353000282255B1AA582A5615A94822129B0400E0
:103540002617081354372CC9243289783A244A6440
:103550001209C9CD343919270732B4355101281061
:103560000417541593885444FA26128D220029100A
:10357000041754139289D444FA22928C42002A12DE
:10358000787255278C48228710E9108948823200CA
:103590002B0C66745425141D4A4211002C0732F47A
:1035A0003341092D0726B45471282E0622143441C4
:1035B0002F140813542D9D8AA553B154AC2A964E4E
:1035C000C5D22900300F08135445B38C8AFCC7D2EA
:1035D000C44602310B041754253A5044FA1F3214E2
:1035E00008135445B38C8A6C53E9702A9DAA4E0F78
:1035F00007013312081354F1209DAAAE92C79A4BCB
:10360000131B0900341208135427156B156B11E9AD
:10361000743808C54A003513081354F14056365D16
:103620004645B132B134B19100361408135445B354
:103630008C8A64B1E9322A722C4D6C24003713084D
:103640001354F140A44DC5AA53B174552C9D0A01E1
:10365000381508135445B38C8A8CA589C9322A328F
:103660009626361200391408135445B38C8A1C4B25
:103670009393594C2C4D6C24003A08925434418752
:10368000113B09A23434418751023C0D95765C19F7
:10369000932C05674361003D0967545CF18EF0008F
:1036A0003E0E95765C1114CE86A1C95210003F12D1
:1036B00008135445B38C8A62E970AAAC3B82580661
:1036C000402A3E938369071CA2C3D91C2019954840
:1036D0002692124989A4445222299194484AA483EB
:1036E000E9109A43E7D083F81002411308135427D6
:1036F000160F7994C824229D4C171991284214085A
:10370000135451BBC824426E12D34556E426B9D493
:1037100000431008135445B38C8A64FDB134B19151
:1037200000440F08135461BAC88AFC6F87890900E6
:10373000450F081354F140D6D96412EB7C38084683
:103740000E081354F140D6D96412EB330047110828
:10375000135445B38C8A649D1C194B939301480DF7
:1037600008135421E4C7C3C1C88F024908021534A5
:10377000F103014A0D081354ADFF99589AD8480037
:103780004B1A08135421AB494413918AAC469C4E02
:103790008935894CA434914964034C0B0813542196
:1037A000D6FFF3E1204D13081354212C391D7E90D0
:1037B0004828128A84C8A3004E1308135421ACB5BC
:1037C000994C178A8422A19CDC3A0A4F0F081354A3
:1037D00045B38C8AFCC7D2C4460250110813545119
:1037E000BBC82442DE24979A58CF00510E081354C8
:1037F00045B38C8AFCC7D2E464521508135451BBFC
:10380000C82442DE241793DE2432894C221453113B
:1038100008135445B38C8AE47D269626361200544C
:103820000C081354F12013EBFF0D00550D08135431
:1038300021E4FFB134B19100561708135421244AF2
:1038400064129944A437894C22AB11A95B650057D7
:103850001107155C21E34B8412A14428875F5C06A5
:1038600058150813542194C824226D12598DC8B1DB
:103870003411E98D28591708135421948826225DA4
:103880006644E2742C154BA762E914005A1508131C
:1038900054F120968AA562A9582A968AA5E2C341C6
:1038A000005B0B05175471A8E97F3B0C5C110715F1
:1038B000542155964AA7AA53D5A9EA54005D0B0591
:1038C00015547198E97F3B145E0936145625A38878
:1038D000045F071AF0537118600833F85521110975
:1038E0006116C9125C37AD29C9E40099E922940830
:1038F0002542D1214411621108135421D66CBA8C8F
:103900008A7C2C1D2626006310C8125445B38C8A6D
:10391000641D4B131B0900640F081354AD93E5306D
:103920002AF2B13439196512C8125445B38C8AC4CD
:10393000C3C12C1E4D6C2400660F08135447336915
:1039400056BCDCC4FA1100671608935365398C8A9B
:10395000C4D2C454138B2D8721F130B100680E08F6
:10396000135421D66CBA8C8AFCA300690D0313345E
:1039700021910324FA9789006A0F469553A98E2452
:10398000D4FF483A4428006B1808135421D6AD26BA
:10399000114D442A3289AC6D229A4C6412D9006CC4
:1039A0000B04133421D2FF1365006D1BCE1284610A
:1039B000221D2C23525148141285442151481412BF
:1039C00085442151016E0CC8125461BA8C8AFCA343
:1039D000006F0FC8125445B38C8A7C2C4D6C2400A8
:1039E000701108935361BA8C8A7C2C1D2626B1660F
:1039F00000710F08935365398C8A7C2C4D4E661DDF
:103A0000720BC61244F11021EA8F007310C7124CDA
:103A100035ABC89889641A4D521B01740E05133CCE
:103A200023D37498C8F41B6900750CC8125421E4A0
:103A30001F4B9393017613C8125421244A6412D168
:103A400044A43789AC4664027720CE128421141234
:103A50006712D94C22A24944242592524526D146C8
:103A600092C84844129144027814C8125421948890
:103A7000262219912A961269222D4201791B089358
:103A8000532393C824329164249149641299444881
:103A90009C6E8B8C8A43007A11C81254F1201D4E03
:103AA000A5C3A974383D1C047B1026D553291B09D6
:103AB000751BCD8643BD0E057C0842D953F18702A4
:103AC0007D1026D553215CD4EB6C24D46D341302C5
:103AD0007E0929D25471081D027F0600105401008E
:103AE000000004FFFF0000005530533511241FBEB5
:103AF000CFEFD8E0DEBFCDBF26E0ACEAB2E001C038
:103B00001D92AD3DB207E1F712E0A0E0B1E0E4E4C0
:103B1000F0E702C005900D92AC3AB107D9F71DE16C
:103B2000C5E7DDE104C02197FE010E941636C437C7
:103B3000D107C9F70E9451310C9415380C9400003C
:103B4000662329F06A3019F0862F90E008958FEFF0
:103B50009FEF0895CF92DF92EF92FF920F931F9302
:103B6000CF93DF93EC01842F8770E1E0F0E0082E23
:103B700001C0EE0F0A94EAF73E2F7E0199E7E90EA5
:103B8000F11CD7019C9110E0923018F41E2F913057
:103B900029F150E0487FE8ADF9ADC880D980D60161
:103BA00050969C91949F6001959FD00C11246C0DB0
:103BB0007D2D711DDF01A60FB71F011115C08C915E
:103BC000812B83278D932150D1F7DF91CF911F91C6
:103BD0000F91FF90EF90DF90CF90089530E0D9CF14
:103BE000110F330F222389F39C91912B93279C93E0
:103BF0008F5F877021508111F3CF9CADA90FB11D4C
:103C0000F7019081923028F4913009F031E011E011
:103C1000E9CF31E0E7CF80E0089580E00895CF93C9
:103C2000DF93C6E5D6E08FAFEAADFBAD0190F08142
:103C3000E02D8AE596E00995EAADFBAD0280F381BF
:103C4000E02D8AE596E0DF91CF91099486E4809398
:103C50007C0080917A00806480937A0080917A0061
:103C600086FDFCCF809178009091790008959B01AA
:103C7000DC011896ED91FC9141E067E10994AF9267
:103C8000BF92CF92DF92EF92FF920F931F93CF9349
:103C9000DF936C017B018B01040F151FEB015E01AB
:103CA000AE18BF08C017D10759F06991D601ED9140
:103CB000FC910190F081E02DC6010995892B79F7DF
:103CC000C501DF91CF911F910F91FF90EF90DF9091
:103CD000CF90BF90AF900895FC01538D448D252F58
:103CE00030E0842F90E0821B930B541710F0CF9696
:103CF000089501970895FC01918D828D981761F0C8
:103D0000A28DAE0FBF2FB11D5D968C91928D9F5FDE
:103D10009F73928F90E008958FEF9FEF0895FC01BD
:103D2000918D828D981731F0828DE80FF11D858D70
:103D300090E008958FEF9FEF0895FC01918D228D03
:103D4000892F90E0805C9F4F821B91098F73992788
:103D5000089581EA93E00E949D1E21E0892B09F4D9
:103D600020E0822F089580E090E0892B29F00E94C6
:103D7000A91E81110C9400000895FC01A48DA80FC8
:103D8000B92FB11DA35ABF4F2C91848D90E001969D
:103D90008F739927848FA689B7892C93A089B189BD
:103DA0008C91837080648C93938D848D981306C05E
:103DB0000288F389E02D80818F7D80830895EF92C2
:103DC000FF920F931F93CF93DF93EC0181E0888FD5
:103DD0009B8D8C8D98131AC0E889F989808185FFA5
:103DE00015C09FB7F894EE89FF896083E889F98947
:103DF00080818370806480839FBF81E090E0DF9149
:103E0000CF911F910F91FF90EF900895F62E0B8D9B
:103E100010E00F5F1F4F0F731127E02E8C8D8E1156
:103E20000CC00FB607FCFACFE889F989808185FFBD
:103E3000F5CFCE010E94BD1EF1CFEB8DEC0FFD2F13
:103E4000F11DE35AFF4FF0829FB7F8940B8FEA8978
:103E5000FB8980818062CFCFCF93DF93EC01888D87
:103E60008823B9F0AA89BB89E889F9898C9185FDF5
:103E700003C0808186FD0DC00FB607FCF7CF8C9183
:103E800085FFF2CF808185FFEDCFCE010E94BD1E60
:103E9000E9CFDF91CF910895833081F028F481300C
:103EA00099F08230A9F008958730A9F08830C9F0E0
:103EB0008430B1F4809180008F7D03C080918000B8
:103EC0008F7780938000089584B58F7784BD08959F
:103ED00084B58F7DFBCF8091B0008F778093B00049
:103EE00008958091B0008F7DF9CFCF93DF93282F75
:103EF00030E0F901E55CF84F8491F901E95DF84F94
:103F0000D491F901ED5EF84FC491CC23A1F0811159
:103F10000E944C1FEC2FF0E0EE0FFF1FE75FF84F01
:103F2000A591B491EC91ED2381E090E009F480E05B
:103F3000DF91CF91089580E090E0FACF1F93CF9367
:103F4000DF93282F30E0F901E55CF84F8491F90107
:103F5000E95DF84FD491F901ED5EF84FC491CC239F
:103F6000A9F0162F81110E944C1FEC2FF0E0EE0FEC
:103F7000FF1FE150F94FA591B4918FB7F894EC91E0
:103F8000111108C0D095DE23DC938FBFDF91CF9154
:103F90001F910895DE2BF8CFCF93DF9390E0FC01C3
:103FA000E95DF84F24918D5E984FFC018491882340
:103FB000C9F090E0880F991FFC01EB50F94FA591D3
:103FC000B491FC01E150F94FC591D49161110DC03C
:103FD0009FB7F8948C91209582238C938881282315
:103FE00028839FBFDF91CF910895623051F49FB72E
:103FF000F8943C91822F809583238C93E8812E2B1B
:10400000EFCF8FB7F894EC912E2B2C938FBFEACF84
:104010003FB7F89480918C0390918D03A0918E030B
:10402000B0918F0326B5A89B05C02F3F19F00196CC
:10403000A11DB11D3FBFBA2FA92F982F8827BC0102
:10404000CD01620F711D811D911D42E0660F771F2A
:10405000881F991F4A95D1F708958F929F92AF922A
:10406000BF92CF92DF92EF92FF926B017C010E9490
:1040700008204B015C01C114D104E104F104B9F042
:104080000E940820681979098A099B09683E7340D3
:104090008105910580F321E0C21AD108E108F108F9
:1040A00088EE880E83E0981EA11CB11CE4CFFF901F
:1040B000EF90DF90CF90BF90AF909F908F9008953A
:1040C00020913F03260F3327331F21323105ECF4B3
:1040D00020916503FC0190E080E0243069F082E0EB
:1040E0000895A0913F032191AC01435E5C4FA40F62
:1040F000B52FB11D2C930196861798F380913F033D
:10410000680F60933F0380E0089581E00895109266
:10411000650381E0809367031092660361E082E1AA
:104120000E949E1F61E083E10E949E1FE9EBF0E088
:1041300080818E7F808380818D7F808388E48093DF
:10414000B80085E48093BC000895CF93DF9391E09D
:1041500090931C038823B9F0C091B800D091BA00A5
:104160008091BC008A7B8093BC0060E082E10E9469
:104170009E1F60E083E10E949E1F0E948720D093D3
:10418000BA00C093B800DF91CF91089508950895C3
:104190000895E091140380911303E81730F4F0E0E0
:1041A000ED50FD4F808190E008958FEF9FEF0895CF
:1041B00090911403809113032FEF3FEF981748F469
:1041C000E92FF0E0ED50FD4F208130E09F5F9093AC
:1041D0001403C90108958091130390911403891B5E
:1041E000990B0895CF92DF92EF92FF920F931F9356
:1041F000CF93DF937C01CB018A012091F20222232D
:1042000089F0EB016B01C40ED51ECC15DD0569F0FC
:104210006991D701ED91FC910190F081E02DC701EA
:104220000995F3CF642F0E946020C801DF91CF91E0
:104230001F910F91FF90EF90DF90CF900895CF9353
:10424000DF931F92CDB7DEB769832091F20222235C
:10425000F9F020911503203258F021E030E0FC0104
:104260003383228390E080E00F90DF91CF91089517
:1042700080911603E82FF0E0EE52FD4F9981908374
:104280008F5F809316038093150381E090E0ECCF5D
:1042900061E0CE0101960E946020F7CFDC011A9602
:1042A000ED91FC9130E020E00994DC011496ED9151
:1042B000FC9130E020E040E060E10994DC011696DA
:1042C000ED91FC9130E020E040E069E10994DC01EF
:1042D0001696ED91FC9130E020E040E068E1099411
:1042E0009A01DC011696ED91FC91462F67E1099445
:1042F000EF92FF920F931F93CF93DF931F92CDB74F
:10430000DEB77C018B01D8016C91673129F150F443
:104310006531A0F40F90DF91CF911F910F91FF9025
:10432000EF9008956A3118F16E3FA1F7F8014181CD
:10433000498369E2C7010E944E210BC0F801418107
:104340004983D7011696ED91FC9130E020E0C7013A
:1043500009950E5F1F4FD7CFF80181818983AE0188
:104360004F5F5F4F61E0C7010E947021F2CF0F5F86
:104370001F4FD7011696ED91FC9130E020E040E010
:10438000C7010995C0CF462FDC011696ED91FC912F
:1043900030E020E066E10994462FDC011696ED91AD
:1043A000FC9130E020E065E10994EF92FF920F93D9
:1043B0001F93CF93DF93EC01042F7901693069F4E7
:1043C00085E591E0998388831C8A81E0DF91CF9114
:1043D0001F910F91FF90EF9008956D3009F475C013
:1043E00038F46A3091F16B3009F468C080E0EECFA8
:1043F0006E3009F47DC06F30C9F70E946721F70164
:104400001381110F110F110F6C89160F612F629517
:104410006F706061CE010E94CC21612F6F70CE0160
:104420000E94CC21F7016481606BCE010E94CC21F7
:10443000F701408151816281660F660F660FCE01E0
:104440000E9470210150A1F75DC0EA85FB8530E034
:1044500020E040E068E20995EE81FF8130E020E055
:1044600040E064E1CE01099541E06BE4CE010E9499
:104470004E21E881F981448169E2CE010E944E21FA
:1044800040E06BE4CE010E944E21E881F981448135
:1044900069E2CE010E944E2141E06BE4CE010E9410
:1044A0004E21E881F981458169E2CE010E944E21C9
:1044B00060E271E0CE010E94782187CF6BE171E06C
:1044C0004423C1F366E171E0F5CF411109C06FE00B
:1044D00071E00E947821E881F98182898C8B75CF07
:1044E00068E071E00E947821E881F9818389F6CF44
:1044F0000E94672161E8CE010E94CC21602FCE018D
:104500000E94C321CE010E945E215FCFDC0118967C
:10451000ED91FC9130E020E040E069E10994DC019C
:104520001896ED91FC9130E020E040E068E10994BC
:10453000CF93DF931F92CDB7DEB76983BE016F5F64
:104540007F4F0E94371E0F90DF91CF910895EF9219
:10455000FF921F93CF93DF93EC01162F7A010E94F5
:104560008F2260E4CE010E949822E885F9859701A8
:10457000412F67E1CE010995CE01DF91CF911F91C7
:10458000FF90EF900C948622EF92FF921F93CF93AF
:10459000DF93EC01142F7901663181F138F4643135
:1045A00009F44BC0653179F080E022C06831C9F16F
:1045B00050F16931C9F78091D102882391F1CE0180
:1045C0000E9486222EC08091D102882319F0CE014C
:1045D0000E948622CE010E948F2260E0CE010E94BE
:1045E0009822612FCE010E94982281E08093D1020F
:1045F000DF91CF911F91FF90EF900895642F0E945B
:10460000982281E0F5CF8091D102882319F0CE0164
:104610000E948622A701193138F4612FCE010E9431
:10462000A7221092D102EDCF68E1CE010E94A7220D
:10463000185188E1E80EF11CEDCF8E898F3F11F4FF
:1046400088E78E8BE885F9859701412F64E1CE01DB
:10465000DF91CF911F91FF90EF9009940F93DC01B0
:10466000DE963C91DE97431BD496ED91FC91099523
:104670000F910895CF93DF93FC01A081B18182ADAA
:10468000982F990F990F990F95AF50969C9150972D
:10469000903208F09FE1990F990F990F94AF23ADD5
:1046A000922F990F990F990F96AF51963C91519770
:1046B000682F620F7727771F3617170614F4832F9A
:1046C000821B97AFEF01C05CDF4F880F880F880F08
:1046D000890F8883219680EF888354968D919C91D1
:1046E0005597813F910508F48883EE5BFF4F5696FE
:1046F0008C918083DF91CF9108950F93FC01EB5B48
:10470000FF4F308131965081451730F4301738F023
:10471000041728F080E013C03017D0F3FBCFFC0162
:10472000ED5BFF4F30818C5B9F4FFC0180816817F0
:1047300040F481E0321718F081E0261758F70F9106
:1047400008953217C8F3E6CF2F923F924F925F92AF
:104750006F927F928F929F92AF92BF92CF92DF9291
:10476000EF92FF920F931F93CF93DF93EC014C01D5
:1047700083E4880E911CF4011082329720805E0140
:10478000F4E4AF0EB11CF50120823FAC6E01F5E4FC
:10479000CF0ED11CF6013082359740807E01F6E4C1
:1047A000EF0EF11CF7014082349610813297608041
:1047B0003196708032975080012F262D472D652D20
:1047C000CE010E947D23CD58DF4F811114C0188285
:1047D000DF91CF911F910F91FF90EF90DF90CF90DD
:1047E000BF90AF909F908F907F906F905F904F9011
:1047F0003F902F90089581E08883552011F0F401B7
:104800005082621410F4F5016082371410F4F6013E
:1048100070821415E8F6F7011083DACF0F93DC01EC
:10482000802FFD01ED58FF4F90819923E9F122235C
:10483000D9F1223020F0023079F56F5F621B082F2A
:104840000170FD0180FD32C0EB5BFF4F8081481796
:1048500058F131968081481738F532979081319719
:104860008081260F2617F0F46917D8F42FEF290F4F
:104870008217D0F4681708F4682F291708F4922FCC
:10488000961BD696ED91FC91D7970480F581E02D8B
:10489000292FCD01099508C0033089F64F5F421BCF
:1048A000CECF682F691720F30F910895ED5BFF4F6E
:1048B00080816817C8F3319680816817A8F732960F
:1048C000908131978081240F241778F4491760F480
:1048D0002FEF290F821740F7481708F4482F2917A0
:1048E00008F4922F941BCDCF482F4917E8F6F2CF4A
:1048F0000F9390919F066917A0F09091A0066917F9
:1049000080F490919D06891760F090919E0689171A
:1049100040F4462F682F00E021E08AE596E00E94EF
:104920000E240F910895CF92DF92EF92FF920F9392
:104930001F93CF93DF93D82FC62F6817F0F4182F4B
:10494000161B113838F5D12E8C2FE12C10E820E8F9
:10495000F22EC0E0012F0695CC24CA94D81710F48B
:10496000CC24C394FC16F0F4DF91CF911F910F91EA
:10497000FF90EF90DF90CF900895162F181B1138FD
:1049800010F3F62EC82F80E8D82EEE24E39480E8AA
:10499000D0E0E0CFF82E90E8D92EEE24E39480E02A
:1049A000D0E8D8CF6D2F8C2FEE2011F06C2F8D2FEB
:1049B0000E9478240D1907FF02C0DC0D010FCF5FA4
:1049C000D1CFAF92BF92CF92DF92EF92FF920F932F
:1049D0001F93CF93DF937C0100E420E840E060E088
:1049E0008AE596E00E947D23882391F1C0E0CC24E3
:1049F000C394CC0E0C2D20E84C2F60E08AE596E0A5
:104A00000E947D238823F1F0D090D3065701D0E097
:104A100011E0F5018491812331F1D092D30600E0B9
:104A200021E04C2F6D2F8AE596E00E940E24DF5F77
:104A3000110F21F4FFEFAF1ABF0A11E0D03849F788
:104A4000D092D30680E1E80EF11CCC2DC03479F66B
:104A5000DF91CF911F910F91FF90EF90DF90CF905A
:104A6000BF90AF9008958091D2068111E0CF81E090
:104A7000D11080E08093D306D2CF213039F020F0DE
:104A8000223031F0840F0895860F0895841B089515
:104A9000861B0895213039F020F0223031F0861B3A
:104AA0000895840F0895860F0895841B08955F92DA
:104AB0006F927F928F929F92AF92BF92CF92DF922E
:104AC000EF92FF920F931F93CF93DF935C01162F0A
:104AD000642EEC01C15BDF4FDC80ED804C0189E787
:104AE000880E911CFE80FD18C12EF11608F4CF2C03
:104AF0005B800C85202F4E2D6D2D8A810E943D25D7
:104B0000782E202F4E2D6D2D852D0E944A25482F61
:104B1000662071F08A85F40180832C2D672DC501F4
:104B20000E940E241F1548F01F19E394D12CDACFF0
:104B300089858111F7CF8B85EECF1D0D1C83ED820A
:104B4000DF91CF911F910F91FF90EF90DF90CF9069
:104B5000BF90AF909F908F907F906F905F900895DF
:104B6000DC0118964C911897ED91FC9111972491C6
:104B700030E0042E02C0359527950A94E2F7842F81
:104B8000860F883068F031961196FC93EE93E4918D
:104B900098E0941B01C0EE0F9A95EAF72E2B8850EF
:104BA00018968C938FEF9FEF01C0880F6A95EAF7F4
:104BB000809582230895FC01E60FF11D849190E019
:104BC000982F88273196E4918E0F911D0895CF93E9
:104BD000DF932091A5063091A6062817390709F41E
:104BE00090C0EC019093A6068093A506FC018491E9
:104BF0008093B6063196E491E093B706FE013296B3
:104C0000E491E093B806FE013396E491E093B9068F
:104C1000FE013496E491E093BA06FE013596E491E4
:104C2000E093BB06FE013696E491E093BC06FE01DC
:104C30003796E491E093BD06FE013896E491E09347
:104C4000BE06FE013996E491E093BF06FE013A9656
:104C5000E491E093C006FE013B96E491E093C10627
:104C6000FE013C96E491E093C206FE013D96E4917C
:104C7000E093C306FE013E96E491E093C406FE0174
:104C80003F96E491E093C506FE017096E491E093AF
:104C9000C60661E1CE010E94DB259093C806809391
:104CA000C70663E1CE010E94DB259093CA0680937C
:104CB000C90665E1CE010E94DB259093CC06809366
:104CC000CB068091A5069091A606892BD1F0809104
:104CD000C3068093CF064091C4064093D0069091BE
:104CE000CE06992371F0913079F49091C506891719
:104CF00014F49093CF068091C606841714F4809321
:104D0000D006DF91CF9108953091C0062091C20660
:104D1000082E000C990B622F022E000C770B630FEC
:104D2000711D37FD7A95861797071CF4320F309363
:104D3000CF06241734F72093D006E3CF6F927F92EB
:104D40008F929F92AF92BF92CF92DF92EF92FF929B
:104D50000F931F93CF93DF93EC01062F142F79014C
:104D6000FC01E55AFF4F8081813009F445C0D0F144
:104D7000823009F44BC0833009F452C0FE01EF5A6F
:104D8000FF4F00833196108337978081918147963A
:104D90002FEFE216F10411F008F0E6C0E1E6EE169E
:104DA000F10408F447C0FE01E159FF4F2081318131
:104DB000820F931F9C012F5F3F4FF90144914111D6
:104DC00042C0712C872DDF91CF911F910F91FF90E1
:104DD000EF90DF90CF90BF90AF909F908F907F909B
:104DE0006F900895FE01E35BFF4F0190F081E02D8D
:104DF000CE010995180FC2CFFE01E35BFF4F019072
:104E0000F081E02DCE010995081BB8CFFE01E35BD0
:104E1000FF4F0190F081E02DCE010995181BAECF18
:104E2000FE01E35BFF4F0190F081E02DCE0109957B
:104E3000080FA4CFF1E4EF16F10408F4BBCFFE0194
:104E4000E359FF4FB3CFFC0144914E151F0409F005
:104E500086C00296009709F4B4CF7E01FFE4EF0EFE
:104E6000F11CF70191838083108671966081C701E0
:104E70000E94B025F701868372966081C7010E9467
:104E8000B025A82EF70187836E01F9E7CF0ED11C5C
:104E9000F6019081F701928781E0911180E0F7019E
:104EA0008387FE01EE59FF4FB0806B2DC7010E9432
:104EB000B025882EFE01ED59FF4F1081612FC701EB
:104EC0000E94B025982EFE01EC59FF4F0081602F03
:104ED000C7010E94B025015041E050E09A0101C095
:104EE000220F0A95EAF7782E721AF701068110163A
:104EF0000CF068CFBA94CA0101C0880FBA94EAF7DF
:104F0000881AB4849A0C115001C0440F1A95EAF71C
:104F1000F42FF9199F2E2B2D4F2F682DF701828129
:104F20000E943D25182FF70182832B2D492D682DD6
:104F300083810E944A25F7018383F1E0BF1609F4BB
:104F40007CC0BF1608F43FC022E0B21609F47BC053
:104F500093E0B91609F482C0082F212F38C0F90157
:104F60002491820F911D26CFFE01EF58FF4F008143
:104F70001181080F191F680160E0C6010E94DB253E
:104F8000080F191F62E0C6010E94DB25F4E0CF0E76
:104F9000D11C8E159F0580F3F801849190E0982F25
:104FA00088273196E4918E2B009709F40ACFE816F2
:104FB000F90619F4C80103964DCFF8013296E49131
:104FC0000E0F111DE9CF202F210F082F0A0D482F9A
:104FD000612FCE010E947D23882309F4F3CEF701CF
:104FE000148215828E01025A1F4F4E01FFE58F0E6B
:104FF000911CF8016081C7010E94B025682EF40160
:105000006081C7010E94B025B82E40E0662DCE0118
:105010000E94572541E06B2DCE010E94572561E08B
:10502000C7010E94B0258111F0CFF70185818A1553
:1050300004F38285F6018083C5CEBA1821E0210FE2
:10504000080F1B0DC4CF91E0392F301B21E0210F39
:105050009A1901E0080F890F130FB9CF212F2A0DDC
:10506000982F901B01E0080F81E0890FB0CFFF92CD
:105070000F931F93CF93DF93C82FD62F10927206F2
:105080008A01F12CF80161918F01E0915C06F091A9
:105090005D068AE596E009958F3F9807F1F08E3F0F
:1050A0002FEF920779F39C014D2F6C2F8AE596E044
:1050B0000E949E269091B506913049F030F09230D2
:1050C00041F0933041F0F80EDDCFC80FFCCFD80F80
:1050D000FACFC81BF8CFD81BF6CF8F2DDF91CF9119
:1050E0001F910F91FF90089520EA3DE130935D06F6
:1050F00020935C060C943728AF92BF92CF92DF9238
:10510000EF92FF920F931F93CF93DF9300D000D0C5
:105110001F92CDB7DEB78C01DC01DA96AC90DA973E
:10512000DB96EC90DB97ED91FC91B188FE2CD12CB5
:10513000C12CD801ED91FC9111978089D8962D91C1
:105140003C911C82FD828B83B8E08B9FC0011124AF
:105150008C9DA0018D9D500D9C9D500D1124240F00
:10516000351F3A832983D8011496ED91FC919E0155
:105170002F5F3F4F41E06FE0C8010995F3948F2DF9
:105180008E198A1528F4BFEFCB1ADB0AFB1488F2BC
:105190000F900F900F900F900F90DF91CF911F9174
:1051A0000F91FF90EF90DF90CF90BF90AF90089558
:1051B0008AE596E00E947C288AE596E00C945521C9
:1051C000CF92DF92EF92FF920F931F93CF93DF93D3
:1051D000EC01962F683109F44BC0B901993130F4D4
:1051E0009431C9F0973189F080E006C0993109F413
:1051F00061C09032C9F781E0DF91CF911F910F918B
:10520000FF90EF90DF90CF90089550E08EE394E010
:105210000E94F220F0CF8C859D85AE85BF85892BBD
:105220008A2B8B2B71F4E881F981A585B0E020EA07
:1052300036E841E050E00E94A3356C877D878E8779
:105240009F8710921403109213031092160310926A
:1052500015030E94872086EC90E290933E03809392
:105260003D0387EC90E29093420380934103C3CFC8
:105270002C853D854E855F8560E074E284EF90E08B
:105280000E94F4352051310941095109569547953D
:10529000379527952093B8008E8990E0959587954E
:1052A00091E09093F2028093D00210921603109234
:1052B0001503A1CFD0911503D13208F093C0C0914E
:1052C000D0020E9408206B017C018091650381114E
:1052D00064C082E08093650381E0809367038FEF71
:1052E0008093640310928903D0938803A2EDB2E007
:1052F000E8E6F3E080E0D8137CC010928A03809146
:105300008A03CC0FC82BC0938A0380916603813037
:1053100009F073C0109266030E9408206B017C01A3
:1053200080918A038093BB008091180390911903A8
:10533000A0911A03B0911B03892B8A2B8B2B99F018
:105340000E940820009118031091190320911A035C
:1053500030911B036C197D098E099F0906171707E9
:1053600028073907D8F18091BC0083FDD9CF85EC9F
:105370008093BC000E9408206B017C018091650332
:105380008230E9F1809164038F3F61F18091640381
:10539000803241F18091640325C08091180390917F
:1053A0001903A0911A03B0911B03892B8A2B8B2B15
:1053B00009F48BCF0E940820009118031091190363
:1053C00020911A0330911B036C197D098E099F09E6
:1053D000061717072807390708F077CF80911703BA
:1053E0000E94A52010921603109215031092F2024B
:1053F00002CF9D9191938F5F7ECF85EEB9CF809143
:10540000180390911903A0911A03B0911B03892BE3
:105410008A2B8B2B09F4B2CF0E940820009118032D
:105420001091190320911A0330911B036C197D0907
:105430008E099F09061717072807390708F09ECF1E
:10544000CDCF0F931F93CF93DF938C01C62F642F83
:10545000CC32E8F4CA3208F041C0C83271F1C93226
:1054600009F442C080E0C034D0F1CF73F801EC0FF2
:10547000F11D868D8F3F91F1C031E0F00E94751FC4
:1054800021E0892B09F420E0F801218F27C0CD32DB
:1054900089F140F384EB8C0F823020F7CF73C00F7B
:1054A000D12FD11D8E8D411133C061E00E94CC1FE0
:1054B00060E08E8D0E949E1F11C0025E1F4FD0E0E3
:1054C000F80181918F018F3F31F061E0D03108F018
:1054D00062E00E94CC1FDF5FD63191F781E0DF915F
:1054E000CF911F910F91089570E090E080E00E94AD
:1054F0002D20F4CF85E090E0433010F082E090E082
:10550000880F991F880F991F05970197F1F7E6CF2C
:1055100062E00E94CC1FE2CFEF92FF920F931F93A5
:10552000CF93DF937C010DE611E0D0E0C0E08091E5
:105530009D0390919E03C817D90794F4F8018081C8
:105540000E5F1F4F97010C2E02C0369527950A94C7
:10555000E2F761E020FF60E00E949E1F2196E7CF06
:10556000DF91CF911F910F91FF90EF900895CF930E
:10557000DF93EB010E948C2A60E081E10E949E1F74
:10558000CE010E948C2A80919F039091A00360E03D
:105590008230910519F0039721F461E083E00E94C5
:1055A0009E1F60E089E00E949E1F88E00E94751F98
:1055B000EC0161E089E00E949E1F61E081E10E94B0
:1055C0009E1FCE01DF91CF9108951F93CF93DF935C
:1055D000EB01142F0E948C2A60E081E10E949E1F43
:1055E00060E080E10E949E1F612F8FE00E949E1F5D
:1055F000CE010E948C2A80919F039091A00360E0CD
:105600008230910519F0039721F461E083E00E9454
:105610009E1F60E089E00E949E1F61E080E10E9481
:105620009E1F61E089E00E949E1F61E081E1DF91A1
:10563000CF911F910C949E1FCF92DF92EF92FF9219
:105640000F931F93CF93DF936C01EB017B01E40E6B
:10565000F51E10E000E0CE15DF0561F06991D6017E
:10566000ED91FC910190F081E02DC6010995080FA4
:10567000191FF1CFC801DF91CF911F910F91FF90BA
:10568000EF90DF90CF900895CF92DF92EF92FF924C
:105690000F931F93CF93DF93EC016C0124E0C20EB4
:1056A000D11CFC01E158FF4F0190F081E02DC601B3
:1056B00009958E3FEFEF9E07C8F48E010E571F4FDE
:1056C0007E01F1E8EF0EF11C9C01F8014081F70129
:1056D0006081C6010E949E26C15ADF4F9881913099
:1056E000A9F078F09230A1F09330B9F081E090E029
:1056F000DF91CF911F910F91FF90EF90DF90CF90AE
:105700000895F7019081890F8083F0CFF801FACFD7
:10571000F7019081981B892FF7CFF801FACF0895F0
:1057200090E080E00895FC0101900020E9F73197B6
:10573000AF01481B590BBC0181EA93E00C943F1E5A
:105740008F929F92AF92BF920F931F93CF93DF934D
:10575000CDB7DEB7A1970FB6F894DEBF0FBECDBFB1
:1057600019A2423008F44AE08E010F5D1F4F842ECB
:10577000912CB12CA12CA50194010E94F435E62FA7
:10578000B901CA01EA30F4F4E05DD801EE938D016D
:10579000232B242B252B79F790E080E0109719F02C
:1057A000CD010E94932BA1960FB6F894DEBF0FBED9
:1057B000CDBFDF91CF911F910F91BF90AF909F9080
:1057C0008F900895E95CE1CF85ED8093BC008091D6
:1057D000180390911903A0911A03B0911B03079627
:1057E000A11DB11D23E0B695A795979587952A959C
:1057F000D1F72091BC0024FD03C0109265030895E9
:10580000409118035091190360911A0370911B0382
:10581000452B462B472B69F30097A105B10541F0B5
:1058200025E32A95F1F700000197A109B109E1CF1D
:10583000809117030C94A520FC0180819181009731
:1058400011F00C94B8360895EF92FF920F931F93C6
:10585000CF93DF93EC017B018A01888199810097C6
:1058600029F02A813B812417350788F4B8016F5F3E
:105870007F4F0E944137009791F0998388831B8363
:105880000A832C813D81232B11F4FC0110821D839E
:105890000C83B701888199810E940E380CC08881E1
:1058A0009981009711F00E94B836198218821D82E2
:1058B0001C821B821A82CE01DF91CF911F910F9122
:1058C000FF90EF900895FC011182108213821282E2
:1058D00015821482FB0101900020E9F73197AF0196
:1058E000461B570B0C94242CFC01A081B1815096CF
:1058F0002C9182AD38E0839FC0011124289FA00124
:10590000299F500D112470E060E080AD91AD0C94A2
:105910000738CF93DF93EC018AE596E00E94742C60
:1059200088EC94E30E94E72584E08093D70680E129
:105930008093D8064C815D816881798186E596E007
:105940000E941C2B8FE497E10E94E72580919C0325
:10595000813089F028F0823059F0DF91CF9108959D
:105960004FEE51E060E284E0DF91CF910C94742817
:1059700045EB51E0F7CF80919F039091A003892BD5
:1059800031F44AEB51E060E284E00E947428809197
:105990009F039091A003019731F440EC51E060E245
:1059A00084E00E94742880919F039091A003029745
:1059B00031F445EC51E060E284E00E94742880916B
:1059C0009F039091A003039741F64EEC51E0CACF9C
:1059D0008AE596E00E94742C88EC94E30E94E72507
:1059E00048ED51E060E188E00E94742888E690E08C
:1059F0000E94E72544EE51E06BE18AE50E9474289D
:105A00008FE497E10E94E72580919C03813079F033
:105A100020F0823049F00C94D8284AEE51E060E240
:105A200084E00E947428F7CF43EF51E0F8CF8091D3
:105A30009F039091A003892B31F44CEF51E060E279
:105A400084E00E94742880919F039091A0030197A5
:105A500031F443E052E060E284E00E9474288091D7
:105A60009F039091A003029731F449E052E060E275
:105A700084E00E94742880919F039091A003039773
:105A800051F641E152E0CBCF0F931F93CF93DF93B9
:105A9000CDB7DEB7A7970FB6F894DEBF0FBECDBF68
:105AA0008C0120919D0330919E031BA21AA21DA27E
:105AB0001CA21FA21EA2072E000C880B990B04C06B
:105AC000660F771F881F991F2A95D2F7012E000CA9
:105AD000220B330B600F711F821F931F20E18E0179
:105AE0000F5F1F4FA8010E945B35F8010190002055
:105AF000E9F73197AF01401B510BB801CE018296F7
:105B00000E94242C78948AE596E00E94742C88ECFC
:105B100094E30E94E72548ED51E060E188E00E94AF
:105B200074288FE497E10E94E72549E152E060E2A2
:105B300084E00E9474284AA15BA160E286E40E948E
:105B400074280E94D82881E0809394038CE00E94FE
:105B5000751F892BD9F38CE00E94751F0197D9F32B
:105B60006CE271E080E090E00E942D20CE018296F0
:105B70000E941C2CA7960FB6F894DEBF0FBECDBFB7
:105B8000DF91CF911F910F910895AF92BF92CF9265
:105B9000DF92EF92FF920F931F93CF93DF93CC246A
:105BA000C394D12C80919F039091A003029714F489
:105BB000D12CC12CD0E0C0E0F12CE12CAA24A3947C
:105BC000B12C80919D0390919E038C199D099501A4
:105BD00002C0220F331F8A95E2F7C217D30784F55C
:105BE00010E000E080919D0390919E03950102C01A
:105BF000220F331F8A95E2F702171307FCF4A7015F
:105C0000BE01C8010E94E52ABE01C8010E94B72A50
:105C1000E816F90671F0BE01C801DF91CF911F911E
:105C20000F91FF90EF90DF90CF90BF90AF900C94CA
:105C3000442D31E0E3260F5F1F4FD4CF2196C1CF13
:105C4000DF91CF911F910F91FF90EF90DF90CF9058
:105C5000BF90AF9008959F92AF92BF92CF92DF9284
:105C6000EF92FF920F931F93CF93DF937C01962EB9
:105C7000CC24C394D12C80919F039091A0030297D0
:105C800014F4D12CC12CD0E0C0E0AA24A394B12CF0
:105C900080919D0390919E038C199D09950102C0EE
:105CA000220F331F8A95E2F7C217D3078CF510E055
:105CB00000E080919D0390919E03950102C0220F08
